:020000040800F2
:100000000050002071320008D92B0008E12B0008B5
:10001000E92B0008F12B0008F92B00080000000074
:10002000000000000000000000000000012C00089B
:100030000D2C000800000000192C0008252C0008D9
:10004000B9320008B9320008B9320008B9320008E4
:10005000B9320008B9320008B9320008B9320008D4
:10006000492C0008B9320008B9320008B93200083A
:10007000B9320008B9320008B9320008B9320008B4
:10008000B9320008B9320008B9320008B9320008A4
:10009000B9320008B9320008B9320008B932000894
:1000A000B9320008B9320008B9320008B932000884
:1000B000B9320008B9320008B9320008B932000874
:1000C000B9320008B9320008B9320008B932000864
:1000D000B9320008B9320008B9320008592C0008BA
:1000E000B9320008B9320008B93200080000000037
:1000F0000000000000000000000000000000000000
:0C01000000000000000000005FF808F1A3
:1001100010B5054C237833B9044B13B10448AFF341
:1001200000800123237010BDF001002000000000BA
:1001300028B5000808B5034B1BB103490348AFF3CA
:10014000008008BD00000000F401002028B5000870
:10015000034613F8012B002AFBD1181A0138704707
:1001600081F0004102E000BF83F0004330B54FEA68
:1001700041044FEA430594EA050F08BF90EA020FD5
:100180001FBF54EA000C55EA020C7FEA645C7FEA68
:10019000655C00F0E2804FEA5454D4EB5555B8BF8B
:1001A0006D420CDD2C4480EA020281EA030382EAFC
:1001B000000083EA010180EA020281EA0303362D8E
:1001C00088BF30BD11F0004F4FEA01314FF4801C61
:1001D0004CEA113102D0404261EB410113F0004F73
:1001E0004FEA03334CEA133302D0524263EB43032A
:1001F00094EA050F00F0A780A4F10104D5F1200EC8
:100200000DDB02FA0EFC22FA05F2801841F1000122
:1002100003FA0EF2801843FA05F359410EE0A5F1F6
:1002200020050EF1200E012A03FA0EFC28BF4CF027
:10023000020C43FA05F3C01851EBE37101F00045DD
:1002400007D54FF0000EDCF1000C7EEB00006EEBEA
:100250000101B1F5801F1BD3B1F5001F0CD3490874
:100260005FEA30004FEA3C0C04F101044FEA4452CB
:1002700012F5800F80F09A80BCF1004F08BF5FEA52
:10028000500C50F1000041EB045141EA050130BD32
:100290005FEA4C0C404141EB0101013C28BFB1F544
:1002A000801FE9D291F0000F04BF01460020B1FA8F
:1002B00081F308BF2033A3F10B03B3F120020CDA62
:1002C0000C3208DD02F1140CC2F10C0201FA0CF040
:1002D00021FA02F10CE002F11402D8BFC2F1200CA5
:1002E00001FA02F120FA0CFCDCBF41EA0C0190405B
:1002F000E41AA2BF01EB0451294330BD6FEA0404A4
:100300001F3C1CDA0C340EDC04F11404C4F120028E
:1003100020FA04F001FA02F340EA030021FA04F3A0
:1003200045EA030130BDC4F10C04C4F1200220FAF7
:1003300002F001FA04F340EA0300294630BD21FA35
:1003400004F0294630BD94F0000F83F4801306BFFB
:1003500081F480110134013D4EE77FEA645C18BFEF
:100360007FEA655C29D094EA050F08BF90EA020F86
:1003700005D054EA000C04BF1946104630BD91EA7E
:10038000030F1EBF0021002030BD5FEA545C05D181
:100390004000494128BF41F0004130BD14F58004C0
:1003A0003CBF01F5801130BD01F0004545F0FE4134
:1003B00041F470014FF0000030BD7FEA645C1ABF69
:1003C000194610467FEA655C1CBF0B46024650EAA0
:1003D000013406BF52EA033591EA030F41F40021CC
:1003E00030BD00BF90F0000F04BF0021704730B552
:1003F0004FF4806404F132044FF000054FF0000127
:1004000050E700BF90F0000F04BF0021704730B5E7
:100410004FF4806404F1320410F0004548BF4042BC
:100420004FF000013EE700BF42004FEAE2014FEA11
:1004300031014FEA02701FBF12F07F4393F07F4FEC
:1004400081F06051704732F07F4208BF704793F0EF
:100450007F4F04BF41F40021704730B54FF4607402
:1004600001F0004521F000411CE700BF50EA010205
:1004700008BF704730B54FF000050AE050EA0102AE
:1004800008BF704730B511F0004502D5404261EB1E
:1004900041014FF4806404F132045FEA915C3FF45F
:1004A000D8AE4FF003025FEADC0C18BF03325FEAFC
:1004B000DC0C18BF033202EBDC02C2F1200300FAAD
:1004C00003FC20FA02F001FA03FE40EA0E0021FAD2
:1004D00002F11444BDE600BF70B54FF0FF0C4CF4C0
:1004E000E06C1CEA11541DBF1CEA135594EA0C0F72
:1004F00095EA0C0F00F0DEF82C4481EA030621EAAD
:100500004C5123EA4C5350EA013518BF52EA0335E7
:1005100041F4801143F4801338D0A0FB02CE4FF099
:100520000005E1FB02E506F00042E0FB03E54FF0C9
:100530000006E1FB03569CF0000F18BF4EF0010EC1
:10054000A4F1FF04B6F5007F64F5407404D25FEABD
:100550004E0E6D4146EB060642EAC62141EA555170
:100560004FEAC52040EA5E504FEACE2EB4F1FD0CB2
:1005700088BFBCF5E06F1ED8BEF1004F08BF5FEA30
:10058000500E50F1000041EB045170BD06F00046E2
:1005900046EA010140EA020081EA0301B4EB5C048F
:1005A000C2BFD4EB0C0541EA045170BD41F4801187
:1005B0004FF0000E013C00F3AB8014F1360FDEBFAC
:1005C000002001F0004170BDC4F10004203C35DA88
:1005D0000C341BDC04F11404C4F1200500FA05F30B
:1005E00020FA04F001FA05F240EA020001F00042AC
:1005F00021F0004110EBD37021FA04F642EB060122
:100600005EEA430E08BF20EAD37070BDC4F10C044B
:10061000C4F1200500FA04F320FA05F001FA04F20F
:1006200040EA020001F0004110EBD37041F10001FB
:100630005EEA430E08BF20EAD37070BDC4F1200506
:1006400000FA05F24EEA020E20FA04F301FA05F26E
:1006500043EA020321FA04F001F0004121FA04F216
:1006600020EA020000EBD3705EEA430E08BF20EAE6
:10067000D37070BD94F0000F0FD101F00046400020
:1006800041EB010111F4801F08BF013CF7D041EAA2
:10069000060195F0000F18BF704703F000465200A6
:1006A00043EB030313F4801F08BF013DF7D043EA77
:1006B0000603704794EA0C0F0CEA135518BF95EA2D
:1006C0000C0F0CD050EA410618BF52EA4306D1D1B4
:1006D00081EA030101F000414FF0000070BD50EAD3
:1006E000410606BF1046194652EA430619D094EA5D
:1006F0000C0F02D150EA013613D195EA0C0F05D147
:1007000052EA03361CBF104619460AD181EA03019A
:1007100001F0004141F0FE4141F470014FF0000052
:1007200070BD41F0FE4141F4780170BD70B54FF0ED
:10073000FF0C4CF4E06C1CEA11541DBF1CEA13556D
:1007400094EA0C0F95EA0C0F00F0A7F8A4EB05044F
:1007500081EA030E52EA03354FEA013100F0888046
:100760004FEA03334FF0805545EA131343EA12630F
:100770004FEA022245EA111545EA10654FEA0026C4
:100780000EF000419D4208BF964244F1FD0404F57D
:10079000407402D25B084FEA3202B61A65EB0305D9
:1007A0005B084FEA32024FF480104FF4002CB6EB96
:1007B000020E75EB030E22BFB61A754640EA0C0016
:1007C0005B084FEA3202B6EB020E75EB030E22BF56
:1007D000B61A754640EA5C005B084FEA3202B6EB97
:1007E000020E75EB030E22BFB61A754640EA9C0056
:1007F0005B084FEA3202B6EB020E75EB030E22BF26
:10080000B61A754640EADC0055EA060E18D04FEAE3
:10081000051545EA16754FEA06164FEAC30343EA83
:1008200052734FEAC2025FEA1C1CC0D111F4801F50
:100830000BD141EA00014FF000004FF0004CB6E749
:1008400011F4801F04BF01430020B4F1FD0C88BFE8
:10085000BCF5E06F3FF6AFAEB5EB030C04BFB6EBF3
:10086000020C5FEA500C50F1000041EB045170BDE6
:100870000EF0004E4EEA113114EB5C04C2BFD4EB13
:100880000C0541EA045170BD41F480114FF0000E97
:10089000013C90E645EA060E8DE60CEA135594EA13
:1008A0000C0F08BF95EA0C0F3FF43BAF94EA0C0F16
:1008B0000AD150EA01347FF434AF95EA0C0F7FF48B
:1008C00025AF104619462CE795EA0C0F06D152EADF
:1008D00003353FF4FDAE1046194622E750EA4106C3
:1008E00018BF52EA43067FF4C5AE50EA41047FF4D4
:1008F0000DAF52EA43057FF4EBAE12E74FF0FF3C39
:1009000006E000BF4FF0010C02E000BF4FF0010C09
:100910004DF804CD4FEA410C7FEA6C5C4FEA430C82
:1009200018BF7FEA6C5C1BD001B050EA410C0CBFD1
:1009300052EA430C91EA030F02BF90EA020F002033
:10094000704710F1000F91EA030F58BF994208BF9A
:1009500090422CBFD8176FEAE37040F00100704757
:100960004FEA410C7FEA6C5C02D150EA013C07D1AE
:100970004FEA430C7FEA6C5CD6D152EA033CD3D0F9
:100980005DF8040B704700BF8446104662468C46F3
:100990001946634600E000BF01B5FFF7B7FF002826
:1009A00048BF10F1000F01BD4DF808EDFFF7F4FF4F
:1009B0000CBF012000205DF808FB00BF4DF808EDDA
:1009C000FFF7EAFF34BF012000205DF808FB00BFFD
:1009D0004DF808EDFFF7E0FF94BF012000205DF81F
:1009E00008FB00BF4DF808EDFFF7CEFF94BF0120D4
:1009F00000205DF808FB00BF4DF808EDFFF7C4FFCD
:100A000034BF012000205DF808FB00BF4FEA410C15
:100A10007FEA6C5C02D150EA013C0AD14FEA430CF8
:100A20007FEA6C5C02D152EA033C02D14FF0000035
:100A300070474FF0010070474FEA410212F5001273
:100A400015D211D56FF47873B3EB625212D94FEA15
:100A5000C12343F0004343EA505311F0004F23FAFF
:100A600002F018BF404270474FF00000704750EA54
:100A7000013005D111F0004008BF6FF00040704711
:100A80004FF00000704700BF4A0011D212F500126B
:100A900011D20DD56FF47873B3EB62520ED44FEAD6
:100AA000C12343F0004343EA505323FA02F0704756
:100AB0004FF00000704750EA013002D14FF0FF3094
:100AC00070474FF0000070474FEA4102B2F1E04337
:100AD00024BFB3F5001CDCF1FE5C0DD901F0004C25
:100AE0004FEAC0024CEA5070B2F1004F40EB830075
:100AF00008BF20F00100704711F0804F21D113F1A1
:100B00003872BCBF01F00040704741F480114FEAD9
:100B10005252C2F11802C2F1200C10FA0CF320FA62
:100B200002F018BF40F001004FEAC1234FEAD3237F
:100B300003FA0CFC40EA0C0023FA02F34FEA4303E9
:100B4000CCE77FEA625307D150EA01331EBF4FF072
:100B5000FE4040F44000704701F0004040F0FE408D
:100B600040F40000704700BF38B50022002304465F
:100B70000D46FFF723FF28B920462946BDE8384037
:100B800000F00AB8204605F1004100F005F84042A7
:100B900061EB410138BD00BFD0B500220B4B0646CA
:100BA0000F46FFF799FCFFF76FFF0446FFF71AFCAB
:100BB0000022074BFFF790FC02460B4630463946B1
:100BC000FFF7D2FAFFF760FF2146D0BD0000F03DED
:100BD0000000F041B0B48FB000AF786040F2B113C4
:100BE000FB62072387F83030072387F83130012371
:100BF00087F83230FF2387F83630642387F83730A0
:100C00000823BB867B681D4607F10C040FCC0FC57B
:100C10000FCC0FC594E8070085E8070078683C37DB
:100C2000BD46B0BC704780B584B000AF7860396015
:100C30000121786800F0FFF90346BB73BB7BFB73AF
:100C40003B68002B07D1BB7B23F00703FB737B685A
:100C50000022DA613EE03B68012B0CD197F90E309F
:100C600023F007035BB243F001035BB2FB737B68C5
:100C70000122DA612EE03B68032B0CD197F90E308C
:100C800023F007035BB243F003035BB2FB737B68A3
:100C90000322DA611EE03B68052B0CD197F90E3078
:100CA00023F007035BB243F005035BB2FB737B6881
:100CB0000522DA610EE03B68062B0BD197F90E3066
:100CC00023F007035BB243F006035BB2FB737B6860
:100CD0000622DA61FB7B1A460121786800F0C5F92B
:100CE00000BF1037BD4680BD80B584B000AFF8604E
:100CF000B9603B601346FB80FB681868FB689B8803
:100D00000022194602F0BBFEFB689869FA884FF48E
:100D1000FA63B96803F082FB00BFFB689B69184661
:100D200003F082FF0346012BF7D1FB6898693A8BE9
:100D30004FF4FA63396803F0B5FC00BFFB689B69A8
:100D4000184603F071FF0346012BF7D1FB681868C2
:100D5000FB689B880122194602F091FE00BF103704
:100D6000BD4680BD80B584B000AFF860B9603B601F
:100D70001346FB80FB681868FB689B8800221946B5
:100D800002F07DFEFB689869FA884FF4FA63B9684F
:100D900003F044FB00BFFB689B69184603F044FF67
:100DA0000346012BF7D1FB6898693A8B4FF4FA633D
:100DB000396803F033FB00BFFB689B69184603F0FA
:100DC00033FF0346012BF7D1FB681868FB689B884B
:100DD0000122194602F053FE00BF1037BD4680BD08
:100DE00080B584B000AF78600B46FB702621786830
:100DF00000F021F90346BB73FB78002B04D0BB7BCA
:100E000043F00803FB7303E0BB7B23F00803FB7391
:100E1000FB7B1A462621786800F027F90A2002F0A9
:100E2000AFFA00BF1037BD4680BD000080B596B058
:100E300000AF7860174A07F10803114650221846A0
:100E400006F0A3F97B6893F824301A4601239340F7
:100E50001846FFF7D7FA7B6893F82530DB00583344
:100E60003B44503BD3E90023FFF760FC02460B46AE
:100E700010461946FFF7E0FD0346102BCCBF0123B7
:100E80000023DBB219467868FFF7AAFF00BF583786
:100E9000BD4680BD40B5000880B584B000AF786025
:100EA00039603B68DB045B11FB60FB681B0CFB7269
:100EB000FB7A1A460621786800F0D7F8052002F080
:100EC0005FFAFB681B0AFB72FB7A1A4607217868F7
:100ED00000F0CBF8052002F053FAFB68FB72FB7AB6
:100EE0001A460821786800F0C0F8052002F048FA98
:100EF00000BF1037BD4680BD80B584B000AF7860BC
:100F000039603B680C2B01DD0C233B603B68062BF2
:100F100001DC07233B601E21786800F08CF8034653
:100F2000FB730A2002F02CFA3B68DBB21B01DAB239
:100F3000FB7B03F00F03DBB21344BB73BB7B1A468E
:100F40001E21786800F091F80A2002F019FA7868FA
:100F5000FFF76CFF00BF1037BD4680BD80B582B083
:100F600000AF78600B46FB70FB781A460921786861
:100F700000F07BF80A2002F003FA00BF0837BD46F4
:100F800080BD000080B584B000AF78600B46FB7078
:100F90000023FB73FB782C2B01D82D23FB70FB78EF
:100FA000F02B01D9F023FB70FB78782B09D8FB7864
:100FB0002D3B124A82FB03125210DB17D31AFB732C
:100FC0000BE0FB78F02B08D8FB781E330B4A82FB32
:100FD00003129210DB17D31AFB73FB7B2033FB73D6
:100FE000FB7B1A460B21786800F03FF80A2002F0DC
:100FF000C7F900BF1037BD4680BD00BF6766666693
:1010000080B584B000AF78601E21786800F013F8D6
:101010000346FB73FB7B43F00703BB73BB7B1A46A2
:101020001E21786800F021F80A2002F0A9F900BF1B
:101030001037BD4680BD80B586B002AF78600B46E4
:10104000FB70FB7803F07F03DBB2BB7307F10F0388
:1010500007F10E010122009201227868FFF744FE99
:10106000FB7B18461037BD4680BD80B586B002AF09
:1010700078600B46FB701346BB70FB7863F07F0310
:10108000DBB2BB73BB78FB7307F10F0307F10E01F3
:101090000122009201227868FFF764FE00BF10373A
:1010A000BD4680BD80B586B000AFF8607A601A4654
:1010B0000B46FB721346BB72FB7A63F07F03DBB215
:1010C000FB75FB681868FB689B880022194602F0D4
:1010D000D6FCFB68986907F117014FF4FA63012207
:1010E00003F09CF900BFFB689B69184603F09CFD68
:1010F0000346012BF7D1FB689869BB7A9AB24FF48B
:10110000FA63796803F08AF900BFFB689B691846A7
:1011100003F08AFD0346012BF7D1FB681868FB68D2
:101120009B880122194602F0AAFC00BF1837BD4671
:1011300080BD80B483B000AF7860012318460C37BF
:10114000BD4680BC704780B586B000AFF860B9601E
:1011500011461A460B46FB711346BB80FB68DB69E0
:101160007B610121F868FFF75EFD0E21F868FFF74B
:1011700062FF0346FB74FB7C1A460D21F868FFF7FB
:1011800074FFFB791A462221F868FFF76EFFFB799E
:10119000BA680021F868FFF785FF0321F868FFF7B8
:1011A00042FD1221F868FFF746FF0346FB74FB7C03
:1011B00003F00803002B0AD0FF221221F868FFF782
:1011C00054FF7969F868FFF72EFD01230FE0BB8813
:1011D000013BBB80BB88002B05D17969F868FFF71C
:1011E00022FD002303E0012002F0CAF8D9E71846E7
:1011F0001837BD4680BD80B584B000AF7860786890
:10120000FFF797FF0346002B00F0968000217868D7
:10121000FFF709FD0A2002F0B3F801217868FFF713
:101220000AFF0346FB730A2002F0AAF8FB7B63F077
:101230007F03BB73BB7B1A4601217868FFF715FF5C
:10124000642002F09DF87B681B6A19467868FFF7F6
:1012500023FE7B6893F82A3019467868FFF77EFEF4
:101260007B6893F82B3019467868FFF78BFE2322B2
:101270000C217868FFF7F9FE7868FFF7C1FE7B68FC
:1012800093F8243019467868FFF736FEFF221F21B5
:101290007868FFF7EAFE0023BB737B6893F825307C
:1012A0001B01DAB27B6893F826305B00DBB2134493
:1012B000BB73BB7B1A461D217868FFF7D6FE7868A2
:1012C000FFF7B4FD7B681B8D1B0A9BB2DBB21A468D
:1012D00020217868FFF7C9FE7B681B8DDBB21A46B8
:1012E00021217868FFF7C1FE40217868FFF7A3FE4F
:1012F0000346FB73FB7B43F03F03BB73BB7B1A4688
:1013000040217868FFF7B1FE01217868FFF78BFC78
:101310007B680122DA610A2002F032F84221786803
:10132000FFF789FE0346FB73FB7B122B01D1C82319
:1013300004E04FF4CA7301E040F2F7131846103787
:10134000BD4680BD2DE9B0438CB000AF78603960F8
:101350005B4B00221A600023FB6204E0584B1B68C1
:101360000133574A1360564B1B681A467B68134477
:101370001B782C2BF2D1524B1B680133504A13605F
:1013800004E04F4B1B6801334D4A13604C4B1B6804
:101390001A467B6813441B782C2BF2D1484B1B68F0
:1013A0000133474A136004E0454B1B680133444A4C
:1013B0001360434B1B681A467B6813441B782C2B25
:1013C000F2D13F4B1B6801333D4A136004E03C4BB4
:1013D0001B6801333A4A1360394B1B681A467B6815
:1013E00013441B782C2BF2D1354B1B680133344A44
:1013F000136004E0324B1B680133314A1360304BF9
:101400001B681A467B6813441B782C2BF2D12C4B9B
:101410001B6801332A4A136004E0294B1B6801331F
:10142000274A1360264B1B681A467B6813441B78B7
:101430002C2BF2D1224B1B680133214A1360204B25
:101440001B681A467B6813441B78312B0FD01C4B4A
:101450001B681A467B6813441B78322B07D0184B45
:101460001B681A467B6813441B78362B06D13B68F1
:101470000122DA61124B00221A6009E03B68002267
:10148000DA610123F2E20E4B1B6801330C4A136050
:101490000B4B1B681A467B6813441B782C2BF2D12C
:1014A000074B1B680133064A136007F10C030C223B
:1014B0000021184605F0C5FD0023FB6216E000BFC1
:1014C0000C020020A74B1B681A467B68134419784E
:1014D00007F10C02FB6A13440A461A70FB6A0133D7
:1014E000FB62A04B1B6801339E4A13609D4B1B6837
:1014F0001A467B6813441B782C2BE3D107F10C03AD
:10150000184604F083FD0346974A82FB0312121328
:10151000DB17D21A954B1B68954981FB03014911D2
:10152000DB17CB1A1344934A136007F10C031846D8
:1015300004F06CFD03468E4A82FB03125211DB1746
:10154000D31A8B4A82FB03125111DA178A1A6421CB
:1015500001FB02F29A1A854B1968854B83FB010344
:101560005811CB17C31A642000FB03F3CB1A1344A2
:10157000814A1360804B1B683B2B09DD7E4B1B6847
:101580003C3B7D4A13607B4B1B680133794A1360F7
:10159000784B1B68002B09DA764B1B681833754AA9
:1015A0001360764B1B68013B744A1360714B1B68D8
:1015B000172B09DD6F4B1B68183B6E4A13606F4B8E
:1015C0001B6801336D4A13606A4B1A683B681A61E5
:1015D000694B1A683B685A6107F10C03184604F01E
:1015E00015FD0246624B83FB02135911D317CB1A28
:1015F000642101FB03F3D31A3A689361594B1B68CA
:101600000133584A136007F10C030C2200211846DD
:1016100005F017FD0023FB6213E0524B1B681A46CE
:101620007B681344197807F10C02FB6A13440A46DD
:101630001A70FB6A0133FB624A4B1B680133494A4B
:101640001360484B1B681A467B6813441B782C2B8D
:10165000E3D107F10C031846FEF77AFD0346052B8C
:1016600001D8022302E207F10C03184604F0CEFC75
:101670000346FB840023BB6202E0BB6A0133BB620A
:1016800007F10C02BB6A13441B782E2BF5D1BB6A01
:101690000133BB6207F10C031846FEF759FD024601
:1016A000BB6AD31A3B62BB6A07F10C0213441846AB
:1016B00004F0ACFCF861B7F926301846FEF7A2FE3C
:1016C0004FF000022E4BFFF731F802460B469046D2
:1016D0009946F869FEF796FE04460D463B6A0233CA
:1016E0001846FEF78FFE02460B464FF000002549D4
:1016F00009F00AF802460B4620462946FFF716F87D
:1017000002460B4640464946FEF730FD02460B4670
:1017100010461946FFF7D8F90346BB613B68BA6922
:101720001A60104B1B6801330E4A13600D4B1B6887
:101730001A467B6813441A783B681A71094B1B6878
:101740000133084A1360074B1B680133054A1360D5
:1017500007F10C030C220021184605F072FC00234F
:10176000FB6225E00C020020AD8BDB68000000204E
:101770001F85EB51100200201402002024020020DB
:101780000000594000002440884B1B681A467B68C3
:101790001344197807F10C02FB6A13440A461A70C5
:1017A000FB6A0133FB62814B1B6801337F4A136084
:1017B0007E4B1B681A467B6813441B782C2BE3D1A5
:1017C00007F10C03184604F021FC0346FB840023B8
:1017D000BB6202E0BB6A0133BB6207F10C02BB6A69
:1017E00013441B782E2BF5D1BB6A0133BB6207F182
:1017F0000C031846FEF7ACFC0246BB6AD31A3B62E8
:10180000BB6A07F10C021344184604F0FFFBF861B1
:10181000B7F926301846FEF7F5FD4FF00002644B8D
:10182000FEF784FF02460B4690469946F869FEF79C
:10183000E9FD04460D463B6A02331846FEF7E2FD19
:1018400002460B464FF000005A4908F05DFF024681
:101850000B4620462946FEF769FF02460B464046E6
:101860004946FEF783FC02460B4610461946FFF731
:101870002BF90346BB613B68BA699A604B4B1B6806
:1018800001334A4A1360494B1B681A467B6813446C
:101890001A783B681A73454B1B680133434A13603F
:1018A000424B1B680133414A1360404B1B680133B4
:1018B0003E4A13603D4B1B6801333C4A136007F1FD
:1018C0000C030C220021184605F0BBFB0023FB6231
:1018D00013E0364B1B681A467B681344197807F1EE
:1018E0000C02FB6A13440A461A70FB6A0133FB625E
:1018F0002E4B1B6801332D4A13602C4B1B681A4674
:101900007B6813441B782C2BE3D107F10C0318469A
:1019100004F07CFB02463B689A62244B1B6801334F
:10192000224A136004E0214B1B6801331F4A1360F5
:101930001E4B1B681A467B6813441B782C2BF2D174
:101940001A4B1B680133194A136007F10C030C2270
:101950000021184605F075FB0023FB6213E0134BD2
:101960001B681A467B681344197807F10C02FB6A5E
:1019700013440A461A70FB6A0133FB620B4B1B6867
:1019800001330A4A1360094B1B681A467B681344EB
:101990001B782C2BE3D107F10C03184604F036FB1F
:1019A0000346FB840023BB6209E000BF0C02002059
:1019B0000000594000002440BB6A0133BB6207F1BC
:1019C0000C02BB6A13441B782E2BF5D1BB6A013382
:1019D000BB6207F10C031846FEF7BAFB0246BB6A6E
:1019E000D31A3B62BB6A07F10C021344184604F099
:1019F0000DFBF861B7F926301846FEF703FD0446E3
:101A00000D46F869FEF7FEFC80468946386AFEF707
:101A1000F9FC02460B464FF00000174908F074FE2F
:101A200002460B4640464946FEF780FE02460B46FC
:101A300020462946FEF79AFB02460B4610461946F9
:101A4000FFF742F80346BB613B68BA691A620B4B69
:101A50001B680133094A1360084B1B681A467B68F0
:101A600013441A783B6883F8242000231846303743
:101A7000BD46BDE8B08300BF000024400C0200203A
:101A80002DE9B04390B000AF78603960924B0022EE
:101A90001A600023FB6304E08F4B1B6801338E4AFE
:101AA00013608D4B1B681A467B6813441B782C2BE4
:101AB000F2D1894B1B680133874A136004E0864BDF
:101AC0001B680133844A1360834B1B681A467B688A
:101AD00013441B782C2BF2D17F4B1B6801337E4AB9
:101AE00013607D4B1B681A467B6813441B78412B9F
:101AF0000DD13B6801225A61774B1B680133764A4E
:101B00001360754B1B680133734A136009E03B682F
:101B100000225A610123D5E16F4B1B6801336E4AE5
:101B200013606D4B1B681A467B6813441B782C2B83
:101B3000F2D1694B1B680133674A136004E0664BBE
:101B40001B680133644A1360634B1B681A467B6849
:101B500013441B782C2BF2D15F4B1B6801335E4A78
:101B6000136004E05C4B1B6801335B4A13605A4B03
:101B70001B681A467B6813441B782C2BF2D1564BFA
:101B80001B680133544A136004E0534B1B68013354
:101B9000514A1360504B1B681A467B6813441B78EC
:101BA0002C2BF2D14C4B1B6801334B4A13600023A2
:101BB000FB6307F108030C220021184605F041FAE7
:101BC00013E0454B1B681A467B681344197807F1EC
:101BD0000802FB6B13440A461A70FB6B0133FB636C
:101BE0003D4B1B6801333C4A13603B4B1B681A4654
:101BF0007B6813441B782C2BE3D107F108031B7877
:101C0000002B55D007F10803184604F0FFF90346EE
:101C10007B860023BB6302E0BB6B0133BB6307F130
:101C20000802BB6B13441B782E2BF5D1BB6B013321
:101C3000BB6307F108031846FEF78AFA0246BB6B3E
:101C4000D31AFB62BB6B07F108021344184604F079
:101C5000DDF9B862B7F932301846FEF7D3FB044617
:101C60000D46B86AFEF7CEFB80468946F86AFEF755
:101C7000C9FB02460B464FF00000184908F044FD2E
:101C800002460B4640464946FEF750FD02460B46CB
:101C900020462946FEF76AFA02460B4610461946C8
:101CA000FEF712FF03467B623B687A6ADA6003E064
:101CB0003B684FF00002DA60074B1B680133064AAD
:101CC00013600023FB6307F108030C220021184670
:101CD00005F0B7F918E000BF0C0200200000244016
:101CE0007B4B1B681A467B681344197807F108027E
:101CF000FB6B13440A461A70FB6B0133FB63744B96
:101D00001B680133724A1360714B1B681A467B686B
:101D100013441B782C2BE3D107F108031B78002B0D
:101D200055D007F10803184604F070F903467B8488
:101D300000237B6302E07B6B01337B6307F10802C6
:101D40007B6B13441B782E2BF5D17B6B01337B63AC
:101D500007F108031846FEF7FBF902467B6BD31A1E
:101D6000FB617B6B07F108021344184604F04EF93F
:101D7000B861B7F922301846FEF744FB04460D4619
:101D8000B869FEF73FFB80468946F869FEF73AFBE3
:101D900002460B464FF000004E4908F0B5FC0246E3
:101DA0000B4640464946FEF7C1FC02460B4620461C
:101DB0002946FEF7DBF902460B4610461946FEF7A8
:101DC00083FE03467B613B687A691A6103E03B68E6
:101DD0004FF000021A613E4B1B6801333C4A13600E
:101DE0000023FB6307F108030C220021184605F0CD
:101DF00028F913E0364B1B681A467B6813441978A0
:101E000007F10802FB6B13440A461A70FB6B01339F
:101E1000FB632F4B1B6801332D4A13602C4B1B684F
:101E20001A467B6813441B782C2BE3D107F1080377
:101E3000184604F0EBF80346274A82FB03121213FC
:101E4000DB17D31A254A136007F10803184604F07C
:101E5000DDF80346224A82FB03125211DB17D21A25
:101E60001F4B83FB02135911D317CB1A642101FBBB
:101E700003F3D31A1B4A136007F10803184604F052
:101E8000C5F80246164B83FB02135911D317CB1A20
:101E9000642101FB03F3D31A134A13600F4B1A6832
:101EA000124B1B6813440D4A13600C4B1A683B68B5
:101EB0001A600C4B1A683B685A600B4B1A683B68F7
:101EC0009A60002318464037BD46BDE8B08300BF86
:101ED0000C02002000002440AD8BDB6818020020BB
:101EE0001F85EB511C02002020020020240200204C
:101EF00080B483B000AF0346FB80084B1B68002210
:101F00005A6200BF054B1B685A6AFB889A42F9D394
:101F100000BF00BF0C37BD4680BC70478002002068
:101F200080B584B000AF3B4600221A605A609A60C8
:101F3000DA604FF400733B6001237B600023BB60D9
:101F40000223FB603B4619460F4801F0FDFB0022CF
:101F50004FF400710C4801F092FD122001F010FACC
:101F600001224FF40071084801F089FD1E20FFF79F
:101F7000BFFF00237B603B461946034801F0E4FBAA
:101F800000BF1037BD4680BD000C014080B500AFDA
:101F90001B4B00221A701B4B1B6800225A6200BFA9
:101FA0004FF40071184801F053FD0346002B04D193
:101FB000144B1B685B6A632BF2D9124B1B685B6A7C
:101FC000632B01D9002319E00E4B1B6800225A62D3
:101FD00000BF4FF400710C4801F03AFD0346002B9E
:101FE00004D0084B1B685B6A632BF2D9054B1B6856
:101FF0005B6A632B01D9002300E00123184680BDF2
:102000008804002080020020000C014080B582B0CE
:1020100000AF0023FB711D4B00221A702DE000BFA2
:102020004FF400711A4801F013FD0346002BF7D05E
:10203000184B1B6800225A6200BF4FF4007114480D
:1020400001F006FD0346002BF7D1124B1B685B6ABB
:10205000282B0CD90D4B1B78C3F10703012202FA80
:1020600003F35AB297F9073013435BB2FB71074B86
:102070001B780133DAB2054B1A70044B1B78072B1F
:10208000CDD9FB7918460837BD4680BD8A040020AB
:10209000000C01408002002080B582B000AF786063
:1020A0007868FEF755F803469AB24FF0FF33796827
:1020B000034803F0E5F900BF0837BD4680BD00BF07
:1020C000C80200202DE9F04FA1B006AF01F0F6F8EC
:1020D00000F0D6FAAF4A07F14C0307CA83E80700BD
:1020E00000F0EAFB00F094FB00F0BCFB00F00AFB00
:1020F00000F03EFB00F0ACFE4FF4FA7001F040F946
:10210000A549A64800F08DFE4FF4FA7001F038F9A9
:10211000A34C07F108031846FEF75CFD254607F1BE
:1021200008040FCC0FC50FCC0FC594E8070085E855
:1021300007009B4B9B4A1A60994B01229A80984B4F
:10214000984A9A60964B02229A81954B954A1A6159
:10215000934B04229A82924B934A9A61904B4FF48C
:10216000DC721A628E4B072283F824208C4B0422E7
:1021700083F825208A4B012283F82620884BFF22F2
:1021800083F82A20864B822283F82B20844B092255
:102190001A85864802F0B0FE6B467B604FF47A7079
:1021A00001F0EEF8FFF7BCFEFFF7F0FE034687F8FC
:1021B000643097F86430002B03D17D48FFF76CFF43
:1021C000AEE0FFF723FF03461A467A4B1A70FFF77B
:1021D0001DFF03461A46784B1A70FFF717FF034698
:1021E0001A46764B1A70FFF711FF03461A46744BD6
:1021F0001A70FFF70BFF03461A46724B1A706D4BAD
:102200001B781B021AB26C4B1B781BB213431BB218
:10221000A7F86230694B1B781B021AB2684B1B7817
:102220001BB213431BB2A7F86630002387F8653052
:10223000B7F86630B3F5004F08D9B7F86630C3F386
:102240000E03A7F86630012387F86530B7F86220DF
:1022500007F144035C49184604F090FEB7F8662085
:1022600007F13C035849184604F088FE554B1B788B
:102270001946504B1B781A464F4B1B7813444F4A54
:10228000127813444E4A12781344DBB2994244D177
:102290004E48FFF701FFB7F862304D4AA2FB032317
:1022A000DB089BB21846B7F86220494BA3FB021328
:1022B000D9080B469B000B445B00D31A9BB2024625
:1022C0004449454804F05AFE4348FFF7E5FE97F8B5
:1022D0006530002B01D02D2000E02020B7F86630BB
:1022E0003B4AA2FB0323DB089BB21C46B7F86620DF
:1022F000374BA3FB0213D9080B469B000B445B0032
:10230000D31A9BB20093234602463449344804F062
:1023100035FE3348FFF7C0FE02E03248FFF7BCFE4F
:1023200031491E4800F07DFD304800F0BBFE0346F9
:10233000012B15D12E4B41F288321A602D492E48BF
:1023400000F030FE2D492B48FEF7FCFF0346002B22
:1023500003D12B4B02221A6002E0294B01221A60A2
:10236000284800F09FFE0346012B56D1204B41F236
:1023700088321A602449204800F014FE234922487C
:10238000FFF77EFB0346002B44D1214B02221A604B
:1023900043E000BFD8B6000890B50008C80200208E
:1023A00058030020000C0140280200208002002079
:1023B000A0B500088D0400208E0400208B040020AE
:1023C0008C04002089040020C0B50008C8B50008AE
:1023D000CDCCCCCCD8B50008B0040020ECB50008BA
:1023E0009004002004B6000828B6000830B60008A3
:1023F00004000020D004002034B600089805002016
:10240000DC05002038B6000834050020C405002093
:10241000E0050020884B01221A60884B1B68022BC4
:102420000CBF01230023DAB2834B1B68022B0CBFC5
:1024300001230023DBB21343DBB2002B3BD0804BE4
:102440001C697F4B5D697E4B9B697D4AD26A7C49E2
:10245000096B7B48406B03900291019200932B46DD
:1024600022467849784804F089FD7749774800F09A
:10247000D8FC734B1B681846FDF7D6FF04460D4683
:102480006F4B1B791E466E4B9B681846FDF7CCFFC1
:1024900002460B466A49097B0491CDE90223009666
:1024A00022462B466A49684804F068FD6649674839
:1024B00000F0B7FC19E0614B1B68012B0CBF012336
:1024C0000023DAB25C4B1B68012B0CBF01230023F5
:1024D000DBB21343DBB2002B07D05E495B4800F050
:1024E000A0FC5D49594800F09CFC5C4B1B68002B2C
:1024F00012DC5A4B41F288321A604F4B00221A60AC
:102500004D4B1B684D4A13605549504800F089FCFB
:1025100054494E4800F085FC4FF47A7000F030FFCB
:1025200007F14C031846FDF713FE03469AB207F174
:102530004C014FF47A73454802F0A2FF4FF47A70D1
:1025400000F01EFF484B002283F88020474B0022FA
:1025500083F8802008E04648FEF74DFE0346C82B6E
:1025600002D1444B01221A80424B1B88002BF2D02F
:102570003548FDF7EDFD03469CB23F48FDF7E8FD09
:1025800003469BB223449CB23C48FDF7E1FD034661
:102590009BB223449BB20133A7F86030B7F86010B8
:1025A0000B46013BFB658BB200229A4693464FF0E7
:1025B00000024FF000034FEACB0343EA5A734FEA9D
:1025C000CA028BB20022984691464FF000024FF0AB
:1025D00000034FEAC90343EA58734FEAC8020B46A7
:1025E0000733DB08DB00ADEB030D06AB0033BB6547
:1025F0000B461A460021B86D04F023FD1249B86D50
:1026000004F0ADFD1C49B86D04F023FD1B49B86D05
:1026100004F01FFDB86DFDF79BFD0346DAB264239D
:10262000B96D1348FEF78FFD41F2883000F0A8FE27
:10263000D7F804D0B0E500BFE0050020DC0500209D
:10264000980500203CB60008E4050020C8020020E0
:102650005CB6000888B600089CB60008040000209C
:10266000B0B60008C4B600080804002088030020A3
:10267000580300208403002090040020B0040020B0
:1026800080B590B000AF07F118032822002118464A
:1026900004F0D7FC3B1D00221A605A609A60DA6091
:1026A0001A610223BB610123BB621023FB62022378
:1026B0007B630023BB634FF46013FB6307F11803D4
:1026C000184601F017FA0346002B01D000F054F928
:1026D0000F237B600223BB600023FB604FF4806309
:1026E0003B6100237B613B1D0221184601F084FC05
:1026F0000346002B01D000F03FF900BF4037BD4634
:1027000080BD000080B500AF174B184A1A60164B09
:102710004FF482725A60144B00229A60124B0022CE
:10272000DA60114B00221A610F4B00225A610E4BE6
:102730004FF400729A610C4B1022DA610A4B0022AE
:102740001A62094B00225A62074B00229A62064B1A
:102750000A22DA62044801F0DDFD0346002B01D0B5
:1027600000F00AF900BF80BD2802002000300140BF
:1027700080B586B000AF07F1080300221A605A60E6
:102780009A60DA603B4600221A605A601E4B1F4A6C
:102790001A601D4B3F225A601B4B00229A601A4B55
:1027A0004FF6FF72DA60184B00221A61164B0022B6
:1027B0005A61154B00229A61134802F04EFB034602
:1027C000002B01D000F0D8F84FF48053BB6007F124
:1027D000080319460C4802F0D9FB0346002B01D030
:1027E00000F0CAF800233B6000237B603B4619469B
:1027F000054802F097FD0346002B01D000F0BCF81D
:1028000000BF1837BD4680BD80020020002C01406B
:1028100080B500AF114B124A1A60104B4FF416529C
:102820005A600E4B00229A600C4B0022DA600B4B70
:1028300000221A61094B0C225A61084B00229A614E
:10284000064B0022DA61054802F0CAFD0346002B60
:1028500001D000F091F800BF80BD00BFC802002089
:102860000038014080B500AF114B124A1A60104B7E
:102870004FF416525A600E4B00229A600C4B002205
:10288000DA600B4B00221A61094B0C225A61084B8B
:1028900000229A61064B0022DA61054802F0A0FD91
:1028A0000346002B01D000F067F800BF80BD00BFD9
:1028B000100300200048004080B588B000AF07F149
:1028C000100300221A605A609A60DA60274B9B69F5
:1028D000264A43F020039361244B9B6903F02003B5
:1028E000FB60FB68214B9B69204A43F00403936122
:1028F0001E4B9B6903F00403BB60BB681B4B9B69C9
:102900001A4A43F008039361184B9B6903F00803CC
:102910007B607B6801220321154801F0B0F8032396
:102920003B6101237B610023BB610223FB6107F153
:10293000100319460E4800F007FF04233B610D4BBE
:102940007B610023BB6107F110031946084800F0C2
:10295000FBFE00220121082000F00DFE082000F0FF
:1029600026FE00BF2037BD4680BD00BF00100240DC
:10297000000C01400000111080B400AF72B600BF1F
:1029800000BFFDE780B485B000AF154B9B69144ACA
:1029900043F001039361124B9B6903F00103BB6099
:1029A000BB680F4BDB690E4A43F08053D3610C4B7D
:1029B000DB6903F080537B607B680A4B5B68FB60DC
:1029C000FB6823F0E063FB60FB6843F00073FB608F
:1029D000044AFB68536000BF1437BD4680BC704793
:1029E000001002400000014080B588B000AF786060
:1029F00007F1100300221A605A609A60DA607B685F
:102A00001B681B4A93422FD11A4B9B69194A43F406
:102A100080539361174B9B6903F48053FB60FB6801
:102A2000144B9B69134A43F004039361114B9B6958
:102A300003F00403BB60BB68A0233B6102237B61FE
:102A40000323FB6107F1100319460B4800F07CFEDD
:102A500040233B6100237B610023BB6107F110032E
:102A60001946054800F070FE00BF2037BD4680BD06
:102A700000300140001002400008014080B485B0E1
:102A800000AF78607B681B68094A93420BD1094B01
:102A90009B69084A43F400639361064B9B6903F406
:102AA0000063FB60FB6800BF1437BD4680BC704705
:102AB000002C01400010024080B58AB000AF786061
:102AC00007F1180300221A605A609A60DA607B6886
:102AD0001B683C4A934232D13B4B9B693A4A43F4D0
:102AE00080439361384B9B6903F480437B617B692E
:102AF000354B9B69344A43F004039361324B9B6925
:102B000003F004033B613B694FF40073BB61022394
:102B1000FB6103237B6207F1180319462B4800F081
:102B200013FE4FF48063BB610023FB6100233B6213
:102B300007F118031946254800F006FE3EE07B68C1
:102B40001B68234A934239D11F4BDB691E4A43F469
:102B50008023D3611C4BDB6903F48023FB60FB689B
:102B6000194B9B69184A43F008039361164B9B6904
:102B700003F00803BB60BB684FF48063BB610223B2
:102B8000FB6103237B6207F118031946114800F02B
:102B9000DBFD4FF40063BB610023FB6100233B625C
:102BA00007F1180319460B4800F0CEFD0022002162
:102BB000272000F0E0FC272000F0F9FC00BF2837B8
:102BC000BD4680BD003801400010024000080140B1
:102BD00000480040000C014080B400AF00BFFDE79A
:102BE00080B400AF00BFFDE780B400AF00BFFDE7D9
:102BF00080B400AF00BFFDE780B400AF00BFFDE7C9
:102C000080B400AF00BFBD4680BC704780B400AF49
:102C100000BFBD4680BC704780B400AF00BFBD465A
:102C200080BC704780B500AF064B1B88002B05D0D9
:102C3000044B1B88013B9AB2024B1A8000F084FBC4
:102C400000BF80BD1C06002080B500AF042000F04E
:102C50002FFF00BF80BD000080B500AF034800F02B
:102C6000A9FA024802F098FC00BF80BD10030020C2
:102C700080B400AF01231846BD4680BC704780B5C4
:102C800082B000AF7860396004F03CFA0346162247
:102C90001A604FF0FF3318460837BD4680BD80B537
:102CA00082B000AF78604FF0FF317868FFF7E7FF40
:102CB00000BFFDE780B586B000AFF860B9607A600C
:102CC00000237B610AE0AFF300800146BB685A1C19
:102CD000BA60CAB21A707B6901337B617A697B681A
:102CE0009A42F0DB7B6818461837BD4680BD80B538
:102CF00086B000AFF860B9607A6000237B6109E0BC
:102D0000BB685A1CBA601B781846AFF300807B6919
:102D100001337B617A697B689A42F1DB7B681846F4
:102D20001837BD4680BD80B483B000AF78604FF0E7
:102D3000FF3318460C37BD4680BC704780B483B063
:102D400000AF786039603B684FF400525A6000234E
:102D500018460C37BD4680BC704780B483B000AFC6
:102D60007860012318460C37BD4680BC704780B49C
:102D700085B000AFF860B9607A6000231846143758
:102D8000BD4680BC7047000080B586B000AF78605B
:102D9000144A154BD31A7B617B693B61134B1B684B
:102DA000002B02D1114B124A1A60104B1A687B6833
:102DB00013443A699A4207D204F0A4F903460C225C
:102DC0001A604FF0FF3309E0084B1B68FB60074BAC
:102DD0001A687B681344054A1360FB681846183765
:102DE000BD4680BD005000200004000018060020F1
:102DF000880B002080B400AF00BFBD4680BC704788
:102E000080B582B000AF78600B46FB70F91C4FF6BE
:102E1000FF730122786802F033FB00BF0837BD461C
:102E200080BD80B582B000AF7860396007E03B6854
:102E30005A1C3A601B7819467868FFF7E1FF3B6837
:102E40001B78002BF3D100BF00BF0837BD4680BD03
:102E500080B400AF0C4B0D4A1A600D4B0D4A1A603E
:102E60000D4B1B685A690C4B1B6842F001025A61FA
:102E7000094B1B68DA68084B1B6842F02002DA60D5
:102E800000BFBD4680BC7047300A002020060020ED
:102E9000340A0020280800201003002080B485B0E8
:102EA00000AF03463960FB713B68D3F80032013351
:102EB000C3F30803FB603B68D3F80422FB689A4223
:102EC00009D03B68D3F800323A68F979D154FA68EE
:102ED0003B68C3F8002200BF1437BD4680BC704772
:102EE00080B483B000AF134B1B68D3F80022114BA2
:102EF0001B68D3F804329A4202D14FF0FF3313E03B
:102F00000C4B1A680B4B1B68D3F80432D35CFB7173
:102F1000084B1B68D3F804325A1C064B1B68C2F3DB
:102F20000802C3F80422FB7918460C37BD4680BC62
:102F3000704700BF300A002080B400AF0A4B1B6806
:102F4000D3F800329AB2084B1B68D3F804329BB214
:102F5000D31A9BB203F500739BB2C3F30803184660
:102F6000BD4680BC704700BF300A002080B400AF6F
:102F70000B4B1B68D3F80022094B1B68D3F80432B3
:102F80009A4202D14FF0FF3306E0054B1A68044B1A
:102F90001B68D3F80432D35C1846BD4680BC70472A
:102FA000300A002080B586B000AF78603960002319
:102FB0007B617868FDF7CCF80346FB6000233B613A
:102FC0001EE0364B1968354B1B68D3F804223B6969
:102FD000386803448A5C1A70304B1B68D3F804329B
:102FE0005A1C2E4B1B68C2F30802C3F804223B692B
:102FF00001333B6100BFFFF79FFF0346002BFAD070
:10300000FFF7B4FF01467B697A6813441B78994245
:10301000D7D127E07B6901337B61FFF761FF014670
:103020003B695A1C3A611A463B681344CAB21A708B
:103030007A69FB689A4201D101232AE0184B4FF4C8
:10304000FA721A8000BFFFF777FF0346002B03D107
:10305000134B1B88002BF6D1114B1B88002B01D181
:10306000002316E0FFF782FF01467B697A6813446C
:103070001B789942CED07A69FB689A4202D000232D
:103080007B619DE77A69FB689A4201D1012300E0E8
:10309000002318461837BD4680BD00BF300A002007
:1030A0001C06002080B584B000AF78600023FB6070
:1030B0007868FDF74DF80346BB603C4B4FF4FA725D
:1030C0001A8000BFFFF738FF0346002B03D1374BB0
:1030D0001B88002BF6D1354B1B88002B19D1002300
:1030E00060E0334B1B68D3F80422314B1B68D3F8E4
:1030F00000329A420BD02E4B1B68D3F804325A1C74
:103100002B4B1B68C2F30802C3F8042201E0002322
:1031100048E0FFF72BFF0146FB687A6813441B78F1
:103120009942DED127E0FB680133FB60204B1B682E
:10313000D3F804325A1C1E4B1B68C2F30802C3F8B2
:103140000422FA68BB689A4201D101232AE0174B96
:103150004FF4FA721A8000BFFFF7EEFE0346002B11
:1031600003D1124B1B88002BF6D1104B1B88002B70
:1031700001D1002316E0FFF7F9FE0146FB687A68EB
:1031800013441B789942CED0FA68BB689A4202D0A9
:103190000023FB6091E7FA68BB689A4201D10123E2
:1031A00000E0002318461037BD4680BD1C060020F5
:1031B000300A002080B586B000AF78607B681B685D
:1031C0001B687B617B681B68DB683B617B6903F084
:1031D0002003002B13D03B6903F02003002B0ED0FB
:1031E0007B681B681B687B681B685B68FB731E4BF6
:1031F0001A68FB7B11461846FFF750FE31E07B69E9
:1032000003F08003002B2CD03B6903F08003002BDC
:1032100027D0164BD3F80022144BD3F804329A422D
:1032200008D17B681B68DA687B681B6822F0800223
:10323000DA6015E00D4BD3F804320C4AD35CBB7353
:103240000A4BD3F804320133C3F30803074AC2F828
:1032500004327B681B681B687B681B68BA7B5A60FA
:1032600000BF1837BD4680BD300A00202808002066
:10327000FFF7C0FD0B480C490C4A002302E0D4586C
:10328000C4500433C4188C42F9D3094A094C0023B2
:1032900001E013600432A242FBD303F039FFFEF7D2
:1032A00011FF704700000020F001002080BB0008E3
:1032B000F0010020880B0020FEE7000080B500AF81
:1032C000084B1B68074A43F010031360032000F00B
:1032D00047F90F2000F008F8FFF754FB00231846C9
:1032E00080BD00BF0020024080B582B000AF786092
:1032F000124B1A68124B1B7819464FF47A73B3FBC2
:10330000F1F3B2FBF3F3184600F05FF90346002B2C
:1033100001D001230EE07B680F2B0AD800227968C8
:103320004FF0FF3000F027F9064A7B681360002356
:1033300000E0012318460837BD4680BD0800002084
:10334000100000200C00002080B400AF054B1B785B
:103350001A46054B1B681344034A136000BFBD4661
:1033600080BC704710000020380A002080B400AFF5
:10337000024B1B681846BD4680BC7047380A0020C7
:1033800080B584B000AF7860FFF7F0FFB8607B686D
:10339000FB60FB68B3F1FF3F05D00A4B1B781A4670
:1033A000FB681344FB6000BFFFF7E0FF0246BB6809
:1033B000D31AFA689A42F7D800BF00BF1037BD464B
:1033C00080BD00BF1000002080B485B000AF7860E1
:1033D0007B6803F00703FB600C4BDB68BB60BA68DB
:1033E0004FF6FF031340BB60FB681A02BB68134330
:1033F00043F0BF6343F40033BB60044ABB68D3604F
:1034000000BF1437BD4680BC704700BF00ED00E030
:1034100080B400AF044BDB681B0A03F007031846B7
:10342000BD4680BC704700BF00ED00E080B483B0B3
:1034300000AF0346FB7197F90730002B0BDBFB79DC
:1034400003F01F02064997F907305B09012000FAD3
:1034500002F241F8232000BF0C37BD4680BC704704
:1034600000E100E080B483B000AF03463960FB7137
:1034700097F90730002B0ADB3B68DAB20C4997F961
:1034800007301201D2B20B4483F800230AE03B68F4
:10349000DAB20849FB7903F00F03043B1201D2B200
:1034A0000B441A7600BF0C37BD4680BC704700BF86
:1034B00000E100E000ED00E080B489B000AFF8600A
:1034C000B9607A60FB6803F00703FB61FB69C3F135
:1034D0000703042B28BF0423BB61FB690433062BBD
:1034E00002D9FB69033B00E000237B614FF0FF3210
:1034F000BB6902FA03F3DA43BB681A407B699A405E
:103500004FF0FF317B6901FA03F3D9437B680B402D
:10351000134318462437BD4680BC704780B582B03F
:1035200000AF78607B68013BB3F1807F01D301235A
:103530000FE00A4A7B68013B53600F214FF0FF30D8
:10354000FFF790FF054B00229A60044B07221A6098
:10355000002318460837BD4680BD00BF10E000E0DC
:1035600080B582B000AF78607868FFF72DFF00BFAC
:103570000837BD4680BD80B586B000AF0346B96050
:103580007A60FB7300237B61FFF742FF78617A6802
:10359000B9687869FFF790FF024697F90F30114636
:1035A0001846FFF75FFF00BF1837BD4680BD80B5E6
:1035B00082B000AF0346FB7197F907301846FFF75A
:1035C00035FF00BF0837BD4680BD80B582B000AF73
:1035D00078607868FFF7A2FF034618460837BD46B3
:1035E00080BD80B485B000AF78600023FB737B683A
:1035F00093F82130DBB2022B08D07B6804229A6357
:103600007B68002283F82020012320E07B681B6870
:103610001A687B681B6822F00E021A607B681B68C0
:103620001A687B681B6822F001021A607B681A6CBA
:103630007B68DB6B012101FA02F25A607B68012290
:1036400083F821207B68002283F82020FB7B18462A
:103650001437BD4680BC704780B584B000AF786039
:103660000023FB737B6893F82130DBB2022B05D07B
:103670007B6804229A630123FB7351E07B681B681B
:103680001A687B681B6822F00E021A607B681B6850
:103690001A687B681B6822F001021A607B681B684D
:1036A000224A934229D07B681B68214A934222D048
:1036B0007B681B681F4A93421AD07B681B681E4AAE
:1036C000934212D07B681B681C4A93420AD07B68E5
:1036D0001B681B4A934202D14FF480130EE04FF057
:1036E00080730BE04FF4803308E04FF4805305E023
:1036F0004FF4807302E0102300E00123114A53606D
:103700007B68012283F821207B68002283F8202037
:103710007B685B6B002B03D07B685B6B786898479A
:10372000FB7B18461037BD4680BD00BF0800024035
:103730001C00024030000240440002405800024099
:103740006C0002400000024080B48BB000AF786093
:10375000396000237B6200233B6269E101227B6ABE
:1037600002FA03F3FB613B681B68FA691340BB6113
:10377000BA69FB699A4240F058813B685B689A4A93
:1037800093425ED0984A934275D8984A934258D053
:10379000964A93426FD8964A934252D0944A9342A3
:1037A00069D8944A93424CD0924A934263D8924A41
:1037B000934246D0904A93425DD8122B2AD8122BBE
:1037C00059D801A252F823F0433800081D380008E8
:1037D0002F3800087138000877380008773800085B
:1037E00077380008773800087738000877380008FD
:1037F00077380008773800087738000877380008ED
:10380000773800087738000877380008253800082E
:1038100039380008794A934213D02CE03B68DB68C2
:103820003B6229E03B68DB6804333B6224E03B6891
:10383000DB6808333B621FE03B68DB680C333B62AC
:103840001AE03B689B68002B02D104233B6213E023
:103850003B689B68012B05D108233B627B68FA69B2
:103860001A6109E008233B627B68FA695A6103E048
:1038700000233B6200E000BFBB69FF2B01D87B68DF
:1038800001E07B6804337B61BB69FF2B02D87B6A54
:103890009B0002E07B6A083B9B003B617B691A68E6
:1038A0000F213B6901FA03F3DB431A40396A3B6994
:1038B00001FA03F31A437B691A603B685B6803F003
:1038C0008053002B00F0B1804D4B9B694C4A43F074
:1038D000010393614A4B9B6903F00103BB60BB6822
:1038E000484A7B6A9B08023352F82330FB607B6AAC
:1038F00003F003039B000F2202FA03F3DB43FA6891
:103900001340FB607B68404A934213D07B683F4A78
:1039100093420DD07B683E4A934207D07B683D4A74
:10392000934201D1032306E0042304E0022302E0D2
:10393000012300E000237A6A02F003029200934020
:10394000FA681343FB602F497B6A9B080233FA68CD
:1039500041F823203B685B6803F48013002B06D0FA
:103960002D4B9A682C49BB6913438B6006E02A4BA8
:103970009A68BB69DB43284913408B603B685B68EE
:1039800003F40013002B06D0234BDA682249BB69ED
:103990001343CB6006E0204BDA68BB69DB431E496A
:1039A0001340CB603B685B6803F40033002B06D008
:1039B000194B5A681849BB6913434B6006E0164B14
:1039C0005A68BB69DB43144913404B603B685B6832
:1039D00003F48033002B21D00F4B1A680E49BB69CA
:1039E00013430B6021E000BF0000321000003110D3
:1039F0000000221000002110000012100000111021
:103A0000001002400000014000080140000C01408D
:103A10000010014000140140000401400B4B1A68E3
:103A2000BB69DB43094913400B607B6A01337B624E
:103A30003B681A687B6A22FA03F3002B7FF48EAE90
:103A400000BF00BF2C37BD4680BC7047000401405A
:103A500080B485B000AF78600B467B807B689A6845
:103A60007B881340002B02D00123FB7301E000236D
:103A7000FB73FB7B18461437BD4680BC704780B48F
:103A800083B000AF78600B467B8013467B707B78F9
:103A9000002B03D07A887B681A6103E07B881A04C4
:103AA0007B681A6100BF0C37BD4680BC70470000C0
:103AB00080B582B000AF0346FB80084B5A69FB8893
:103AC0001340002B06D0054AFB885361FB8818463B
:103AD00000F006F800BF0837BD4680BD0004014075
:103AE00080B483B000AF0346FB8000BF0C37BD46F7
:103AF00080BC704780B586B000AF78607B68002BD3
:103B000001D1012372E27B681B6803F00103002BE3
:103B100000F08780924B5B6803F00C03042B0CD001
:103B20008F4B5B6803F00C03082B12D18C4B5B6846
:103B300003F48033B3F5803F0BD1894B1B6803F44A
:103B40000033002B6CD07B685B68002B68D10123AD
:103B50004CE27B685B68B3F5803F06D1804B1B6805
:103B60007F4A43F4803313602EE07B685B68002B50
:103B70000CD17B4B1B687A4A23F480331360784B5B
:103B80001B68774A23F4802313601DE07B685B6821
:103B9000B3F5A02F0CD1724B1B68714A43F48023FC
:103BA00013606F4B1B686E4A43F4803313600BE065
:103BB0006B4B1B686A4A23F480331360684B1B68A5
:103BC000674A23F4802313607B685B68002B13D063
:103BD000FFF7CCFB386108E0FFF7C8FB02463B6902
:103BE000D31A642B01D9032300E25D4B1B6803F455
:103BF0000033002BF0D014E0FFF7B8FB386108E089
:103C0000FFF7B4FB02463B69D31A642B01D90323A7
:103C1000ECE1534B1B6803F40033002BF0D100E0C0
:103C200000BF7B681B6803F00203002B63D04C4B82
:103C30005B6803F00C03002B0BD0494B5B6803F06F
:103C40000C03082B1CD1464B5B6803F48033002B1C
:103C500016D1434B1B6803F00203002B05D07B6891
:103C60001B69012B01D00123C0E13D4B1B6823F0F0
:103C7000F8027B685B69DB00394913430B603AE06B
:103C80007B681B69002B20D0364B01221A60FFF79E
:103C90006DFB386108E0FFF769FB02463B69D31A08
:103CA000022B01D90323A1E12D4B1B6803F0020372
:103CB000002BF0D02A4B1B6823F0F8027B685B696D
:103CC000DB00274913430B6015E0264B00221A60E6
:103CD000FFF74CFB386108E0FFF748FB02463B6901
:103CE000D31A022B01D9032380E11D4B1B6803F07B
:103CF0000203002BF0D17B681B6803F00803002B44
:103D00003AD07B689B69002B19D0174B01221A60AF
:103D1000FFF72CFB386108E0FFF728FB02463B6900
:103D2000D31A022B01D9032360E10D4B5B6A03F028
:103D30000203002BF0D0012000F0CEFA1CE00A4B69
:103D400000221A60FFF712FB38610FE0FFF70EFB4D
:103D500002463B69D31A022B08D9032346E100BF70
:103D6000001002400000424280044242924B5B6AD3
:103D700003F00203002BE9D17B681B6803F0040306
:103D8000002B00F0A6800023FB758B4BDB6903F052
:103D90008053002B0DD1884BDB69874A43F0805359
:103DA000D361854BDB6903F08053BB60BB680123A3
:103DB000FB75824B1B6803F48073002B18D17F4B7B
:103DC0001B687E4A43F480731360FFF7CFFA3861B3
:103DD00008E0FFF7CBFA02463B69D31A642B01D9FE
:103DE000032303E1754B1B6803F48073002BF0D0B1
:103DF0007B68DB68012B06D16F4B1B6A6E4A43F070
:103E0000010313622DE07B68DB68002B0CD16A4B49
:103E10001B6A694A23F001031362674B1B6A664AF7
:103E200023F0040313621CE07B68DB68052B0CD1D4
:103E3000614B1B6A604A43F0040313625E4B1B6ACA
:103E40005D4A43F0010313620BE05B4B1B6A5A4A65
:103E500023F001031362584B1B6A574A23F00403F3
:103E600013627B68DB68002B15D0FFF77FFA38619F
:103E70000AE0FFF77BFA02463B69D31A41F2883227
:103E8000934201D90323B1E04B4B1B6A03F00203B9
:103E9000002BEED014E0FFF769FA38610AE0FFF773
:103EA00065FA02463B69D31A41F28832934201D93E
:103EB00003239BE0404B1B6A03F00203002BEED16F
:103EC000FB7D012B05D13C4BDB693B4A23F0805342
:103ED000D3617B68DB69002B00F08780364B5B6821
:103EE00003F00C03082B61D07B68DB69022B46D101
:103EF000334B00221A60FFF739FA386108E0FFF708
:103F000035FA02463B69D31A022B01D903236DE02F
:103F1000294B1B6803F00073002BF0D17B681B6AF0
:103F2000B3F5803F08D1244B5B6823F400327B68F3
:103F30009B68214913434B601F4B5B6823F4741249
:103F40007B68196A7B685B6A0B431B4913434B60B0
:103F50001B4B01221A60FFF709FA386108E0FFF7EE
:103F600005FA02463B69D31A022B01D903233DE02F
:103F7000114B1B6803F00073002BF0D035E0104BA1
:103F800000221A60FFF7F2F9386108E0FFF7EEF956
:103F900002463B69D31A022B01D9032326E0064BC4
:103FA0001B6803F00073002BF0D11EE07B68DB6917
:103FB000012B07D1012319E00010024000700040DE
:103FC000600042420B4B5B68FB60FB6803F480328D
:103FD0007B681B6A9A4206D1FB6803F470127B6807
:103FE0005B6A9A4201D0012300E00023184618378B
:103FF000BD4680BD0010024080B584B000AF78603F
:1040000039607B68002B01D10123D0E06A4B1B682B
:1040100003F007033A689A4210D9674B1B6823F0F4
:10402000070265493B6813430B60634B1B6803F051
:1040300007033A689A4201D00123B8E07B681B6805
:1040400003F00203002B20D07B681B6803F00403FD
:10405000002B05D0594B5B68584A43F4E06353602A
:104060007B681B6803F00803002B05D0534B5B688B
:10407000524A43F460535360504B5B6823F0F002A4
:104080007B689B684D4913434B607B681B6803F05A
:104090000103002B40D07B685B68012B07D1474BA5
:1040A0001B6803F40033002B15D101237FE07B68EC
:1040B0005B68022B07D1414B1B6803F00073002B98
:1040C00009D1012373E03D4B1B6803F00203002B71
:1040D00001D101236BE0394B5B6823F003027B685D
:1040E0005B68364913434B60FFF740F9F8600AE01C
:1040F000FFF73CF90246FB68D31A41F2883293423B
:1041000001D9032353E02D4B5B6803F00C027B685D
:104110005B689B009A42EBD1274B1B6803F00703B7
:104120003A689A4210D2244B1B6823F007022249B6
:104130003B6813430B60204B1B6803F007033A688E
:104140009A4201D0012332E07B681B6803F004032C
:10415000002B08D0194B5B6823F4E0627B68DB68B6
:10416000164913434B607B681B6803F00803002B60
:1041700009D0124B5B6823F460527B681B69DB003B
:104180000E4913434B6000F021F802460B4B5B686D
:104190001B0903F00F030A49CB5C22FA03F3094A17
:1041A0001360094B1B681846FFF79EF8002318465A
:1041B0001037BD4680BD00BF002002400010024005
:1041C000E4B60008080000200C00002080B487B08E
:1041D00000AF0023FB600023BB6000237B61002352
:1041E0007B6000233B611E4B5B68FB60FB6803F058
:1041F0000C03042B02D0082B03D027E0194B3B61A2
:1042000027E0FB689B0C03F00F03174AD35C7B602D
:10421000FB6803F48033002B10D0114B5B685B0C00
:1042200003F00103114AD35CBB607B680D4A03FBBA
:1042300002F2BB68B2FBF3F37B6104E07B680C4ADB
:1042400002FB03F37B617B693B6102E0054B3B6151
:1042500000BF3B6918461C37BD4680BC704700BF95
:104260000010024000127A00FCB600080CB70008EB
:1042700000093D0080B400AF024B1B681846BD46E4
:1042800080BC70470800002080B500AFFFF7F2FF48
:104290000246054B5B681B0A03F007030349CB5C2E
:1042A00022FA03F3184680BD00100240F4B600085D
:1042B00080B500AFFFF7DEFF0246054B5B68DB0A07
:1042C00003F007030349CB5C22FA03F3184680BDD1
:1042D00000100240F4B6000880B485B000AF7860EA
:1042E0000A4B1B680A4AA2FB03235B0A7A6802FB9B
:1042F00003F3FB6000BFFB685A1EFA60002BF9D184
:1043000000BF00BF1437BD4680BC704708000020C6
:10431000D34D621080B582B000AF78607B68002B0F
:1043200001D1012376E07B685B6A002B08D17B68B2
:104330005B68B3F5827F09D07B680022DA6105E013
:104340007B6800221A617B6800225A617B68002228
:104350009A627B6893F85130DBB2002B06D17B6800
:10436000002283F850207868FEF73EFB7B6802222B
:1043700083F851207B681B681A687B681B6822F0F1
:1043800040021A607B685B6803F482727B689B68FA
:1043900003F404431A437B68DB6803F400631A43A5
:1043A0007B681B6903F002031A437B685B6903F0B7
:1043B00001031A437B689B6903F400731A437B680B
:1043C000DB6903F038031A437B681B6A03F0800340
:1043D00042EA03017B689B6A03F400527B681B6816
:1043E0000A431A607B689B691A0C7B681B6802F0A1
:1043F00004025A607B681B68DA697B681B6822F4D8
:104400000062DA617B6800225A657B68012283F8CA
:104410005120002318460837BD4680BD80B588B0BE
:1044200000AFF860B9603B601346FB80FEF79EFF6B
:10443000F861FB887B83FB6893F85130DBB2012B7A
:1044400001D002232AE1BB68002B02D0FB88002B9D
:1044500001D1012322E1FB6893F85030012B01D1F7
:1044600002231BE1FB68012283F85020FB68032232
:1044700083F85120FB6800225A65FB68BA681A630A
:10448000FB68FA889A86FB68FA88DA86FB6800225D
:104490009A63FB6800229A87FB680022DA87FB6830
:1044A00000225A64FB6800221A64FB689B68B3F51B
:1044B000004F0FD1FB681B681A68FB681B6822F06D
:1044C00040021A60FB681B681A68FB681B6842F4AC
:1044D00080421A60FB681B681B6803F04003402B96
:1044E00007D0FB681B681A68FB681B6842F0400233
:1044F0001A60FB68DB68B3F5006F52D1FB685B683C
:10450000002B02D07B8B012B45D1FB681B6B1A88DB
:10451000FB681B68DA60FB681B6B9A1CFB681A63FC
:10452000FB68DB8E9BB2013B9AB2FB68DA8632E015
:10453000FB681B689B6803F00203022B12D1FB6827
:104540001B6B1A88FB681B68DA60FB681B6B9A1C84
:10455000FB681A63FB68DB8E9BB2013B9AB2FB6877
:10456000DA8618E0FEF702FF0246FB69D31A3A68C2
:104570009A4203D83B68B3F1FF3F02D13B68002B5E
:1045800009D1FB68012283F85120FB68002283F8DF
:104590005020032382E0FB68DB8E9BB2002BC7D147
:1045A00053E0FB685B68002B02D07B8B012B47D16B
:1045B000FB681A6BFB681B680C3312781A70FB6877
:1045C0001B6B5A1CFB681A63FB68DB8E9BB2013BBA
:1045D0009AB2FB68DA8633E0FB681B689B6803F0DD
:1045E0000203022B13D1FB681A6BFB681B680C33A8
:1045F00012781A70FB681B6B5A1CFB681A63FB6805
:10460000DB8E9BB2013B9AB2FB68DA8618E0FEF7BC
:10461000ADFE0246FB69D31A3A689A4203D83B685A
:10462000B3F1FF3F02D13B68002B09D1FB680122A7
:1046300083F85120FB68002283F8502003232DE0EB
:10464000FB68DB8E9BB2002BC6D1FA693968F8682B
:1046500000F0D2FB0346002B02D0FB6820225A65F3
:10466000FB689B68002B0AD100237B61FB681B68F9
:10467000DB687B61FB681B689B687B617B69FB680F
:10468000012283F85120FB68002283F85020FB6848
:104690005B6D002B01D0012300E00023184620377A
:1046A000BD4680BD80B588B002AFF860B9603B60A0
:1046B0001346FB80FB6893F85130DBB2012B01D02D
:1046C000022304E1FB685B68B3F5827F12D1FB68CB
:1046D0009B68002B0ED1FB68042283F85120FA88D6
:1046E0003B6800931346BA68B968F86800F0F3F8BD
:1046F0000346ECE0FEF73AFE7861BB68002B02D07F
:10470000FB88002B01D10123E1E0FB6893F85030D6
:10471000012B01D10223DAE0FB68012283F850204B
:10472000FB68042283F85120FB6800225A65FB686D
:10473000BA689A63FB68FA889A87FB68FA88DA870E
:10474000FB6800221A63FB6800229A86FB6800223D
:10475000DA86FB6800221A64FB6800225A64FB6850
:104760009B68B3F5004F0FD1FB681B681A68FB68A4
:104770001B6822F040021A60FB681B681A68FB681D
:104780001B6822F480421A60FB681B681B6803F0F8
:104790004003402B07D0FB681B681A68FB681B6846
:1047A00042F040021A60FB68DB68002B70D135E0F4
:1047B000FB681B689B6803F00103012B15D1FB68A4
:1047C0001B6803F10C02FB689B6B1278D2B21A7063
:1047D000FB689B6B5A1CFB689A63FB68DB8F9BB280
:1047E000013B9AB2FB68DA8718E0FEF7BFFD02468C
:1047F0007B69D31A3A689A4203D83B68B3F1FF3F0A
:1048000002D13B68002B09D1FB68012283F85120BB
:10481000FB68002283F85020032358E0FB68DB8FFD
:104820009BB2002BC4D138E0FB681B689B6803F087
:104830000103012B13D1FB681B68DA68FB689B6BD3
:1048400092B21A80FB689B6B9A1CFB689A63FB68A8
:10485000DB8F9BB2013B9AB2FB68DA8718E0FEF768
:1048600085FD02467B69D31A3A689A4203D83B68B1
:10487000B3F1FF3F02D13B68002B09D1FB68012255
:1048800083F85120FB68002283F8502003231EE0A8
:10489000FB68DB8F9BB2002BC6D17A693968F86858
:1048A00000F058FA0346002B02D0FB6820225A651C
:1048B000FB68012283F85120FB68002283F8502016
:1048C000FB685B6D002B01D0012300E0002318463C
:1048D0001837BD4680BD80B58AB000AFF860B960BA
:1048E0007A607B8001237B62FEF740FD3862FB68C3
:1048F00093F85130FB77FB685B68BB617B88FB8278
:10490000FB7F012B0CD0BB69B3F5827F06D1FB681E
:104910009B68002B02D1FB7F042B01D002237FE197
:10492000BB68002B05D07B68002B02D07B88002B56
:1049300001D1012374E1FB6893F85030012B01D1C0
:1049400002236DE1FB68012283F85020FB6893F895
:104950005130DBB2042B03D0FB68052283F85120D1
:10496000FB6800225A65FB687A689A63FB687A885C
:10497000DA87FB687A889A87FB68BA681A63FB68EB
:104980007A88DA86FB687A889A86FB6800221A643D
:10499000FB6800225A64FB681B681B6803F0400335
:1049A000402B07D0FB681B681A68FB681B6842F045
:1049B00040021A60FB68DB68B3F5006F7ED1FB68CC
:1049C0005B68002B02D0FB8A012B6CD1FB681B6B50
:1049D0001A88FB681B68DA60FB681B6B9A1CFB6813
:1049E0001A63FB68DB8E9BB2013B9AB2FB68DA86E6
:1049F00059E0FB681B689B6803F00203022B1BD184
:104A0000FB68DB8E9BB2002B16D07B6A012B13D187
:104A1000FB681B6B1A88FB681B68DA60FB681B6B02
:104A20009A1CFB681A63FB68DB8E9BB2013B9AB24F
:104A3000FB68DA8600237B62FB681B689B6803F0D7
:104A40000103012B19D1FB68DB8F9BB2002B14D023
:104A5000FB681B68DA68FB689B6B92B21A80FB6884
:104A60009B6B9A1CFB689A63FB68DB8F9BB2013BD4
:104A70009AB2FB68DA8701237B62FEF777FC024675
:104A80003B6AD31A3A6B9A420DD83B6BB3F1FF3FA6
:104A900009D0FB68012283F85120FB68002283F8CB
:104AA00050200323BCE0FB68DB8E9BB2002BA0D11F
:104AB000FB68DB8F9BB2002B9BD182E0FB685B68BD
:104AC000002B02D0FB8A012B71D1FB681A6BFB68AB
:104AD0001B680C3312781A70FB681B6B5A1CFB683E
:104AE0001A63FB68DB8E9BB2013B9AB2FB68DA86E5
:104AF0005DE0FB681B689B6803F00203022B1CD17E
:104B0000FB68DB8E9BB2002B17D07B6A012B14D184
:104B1000FB681A6BFB681B680C3312781A70FB6811
:104B20001B6B5A1CFB681A63FB68DB8E9BB2013B54
:104B30009AB2FB68DA8600237B62FB681B689B687D
:104B400003F00103012B19D1FB68DB8F9BB2002B13
:104B500014D0FB681B68DA68FB689B6BD2B21A70D2
:104B6000FB689B6B5A1CFB689A63FB68DB8F9BB2EC
:104B7000013B9AB2FB68DA8701237B62FEF7F6FB02
:104B800002463B6AD31A3A6B9A4203D83B6BB3F1A5
:104B9000FF3F02D13B6B002B09D1FB68012283F858
:104BA0005120FB68002283F85020032338E0FB6883
:104BB000DB8E9BB2002B9CD1FB68DB8F9BB2002B62
:104BC00097D13A6A396BF86800F016F90346002B62
:104BD00008D0FB6820225A65FB68002283F8502029
:104BE00001231DE0FB689B68002B0AD100233B6179
:104BF000FB681B68DB683B61FB681B689B683B616B
:104C00003B69FB68012283F85120FB68002283F88E
:104C10005020FB685B6D002B01D0012300E00023D6
:104C200018462837BD4680BD80B483B000AF786099
:104C30007B6893F85130DBB218460C37BD4680BC18
:104C40007047000080B588B000AFF860B9603B6085
:104C50001346FB71FEF78AFB0246BB6A9B1A3A6851
:104C60001344FB61FEF782FBB861394B1B685B01A3
:104C70001B0DFA6902FB03F37B6154E03B68B3F15F
:104C8000FF3F50D0FEF772FB0246BB69D31AFA69A8
:104C90009A4202D9FB69002B3DD1FB681B685A6818
:104CA000FB681B6822F0E0025A60FB685B68B3F5A2
:104CB000827F11D1FB689B68B3F5004F04D0FB687D
:104CC0009B68B3F5806F07D1FB681B681A68FB68A7
:104CD0001B6822F040021A60FB689B6AB3F5005F14
:104CE0000FD1FB681B681A68FB681B6822F400522E
:104CF0001A60FB681B681A68FB681B6842F4005264
:104D00001A60FB68012283F85120FB68002283F8B7
:104D10005020032317E07B69002B01D10023FB61A6
:104D20007B69013B7B61FB681B689A68BB68134029
:104D3000BA689A420CBF01230023DBB21A46FB7902
:104D40009A429BD1002318462037BD4680BD00BF44
:104D50000800002080B586B002AFF860B9607A60C4
:104D6000FB685B68B3F5827F11D1FB689B68B3F584
:104D7000004F04D0FB689B68B3F5806F07D1FB68D8
:104D80001B681A68FB681B6822F040021A60FB6807
:104D90005B68B3F5827F17D1FB689B68B3F5806FC2
:104DA00012D17B680093BB6800220121F868FFF7ED
:104DB00049FF0346002B1AD0FB685B6D43F02002CD
:104DC000FB685A65032313E07B680093BB680022ED
:104DD0008021F868FFF736FF0346002B07D0FB68F9
:104DE0005B6D43F02002FB685A65032300E000235B
:104DF00018461037BD4680BD80B586B002AFF8605A
:104E0000B9607A607B680093BB6801220221F86870
:104E1000FFF718FF0346002B07D0FB685B6D43F0DC
:104E20002002FB685A65032313E07B680093BB688C
:104E300000228021F868FFF705FF0346002B07D00A
:104E4000FB685B6D43F02002FB685A65032300E0BA
:104E5000002318461037BD4680BD80B582B000AF34
:104E600078607B68002B01D1012341E07B6893F8D7
:104E70003D30DBB2002B06D17B68002283F83C205A
:104E80007868FDF7FBFD7B68022283F83D207B6894
:104E90001A687B6804331946104600F03FF97B68B6
:104EA000012283F846207B68012283F83E207B683C
:104EB000012283F83F207B68012283F840207B6831
:104EC000012283F841207B68012283F842207B681D
:104ED000012283F843207B68012283F844207B6809
:104EE000012283F845207B68012283F83D200023BE
:104EF00018460837BD4680BD80B485B000AF7860E5
:104F00007B6893F83D30DBB2012B01D0012332E006
:104F10007B68022283F83D207B681B68184A934215
:104F20000ED07B681B68B3F1804F09D07B681B688B
:104F3000144A934204D07B681B68134A934211D1F0
:104F40007B681B689B6803F00703FB60FB68062B0C
:104F500010D07B681B681A687B681B6842F00102EE
:104F60001A6007E07B681B681A687B681B6842F060
:104F700001021A60002318461437BD4680BC7047F2
:104F8000002C0140000400400008004080B584B0BF
:104F900000AF786039600023FB737B6893F83C3086
:104FA000012B01D10223B4E07B68012283F83C206D
:104FB0007B68022283F83D207B681B689B68BB608E
:104FC000BB6823F07703BB60BB6823F47F43BB60FF
:104FD0007B681B68BA689A603B681B68B3F5005F22
:104FE0003ED0B3F5005F00F28780B3F5805F00F03C
:104FF0008680B3F5805F7FD8702B1AD0702B7BD85A
:10500000602B50D0602B77D8502B3CD0502B73D8CE
:10501000402B58D0402B6FD8302B64D0302B6BD81E
:10502000202B60D0202B67D8002B5CD0102B5AD0BF
:1050300062E07B6818683B6899683B685A683B681F
:10504000DB6800F050F97B681B689B68BB60BB683D
:1050500043F07703BB607B681B68BA689A604FE0D7
:105060007B6818683B6899683B685A683B68DB68EE
:1050700000F039F97B681B689A687B681B6842F40A
:1050800080429A603CE07B6818683B6859683B68DE
:10509000DB681A4600F0B0F87B681B6850211846A0
:1050A00000F007F92CE07B6818683B6859683B689A
:1050B000DB681A4600F0CEF87B681B686021184652
:1050C00000F0F7F81CE07B6818683B6859683B689B
:1050D000DB681A4600F090F87B681B684021184690
:1050E00000F0E7F80CE07B681A683B681B6819461B
:1050F000104600F0DEF803E00123FB7300E000BF80
:105100007B68012283F83D207B68002283F83C20E5
:10511000FB7B18461037BD4680BD000080B485B0CB
:1051200000AF786039607B681B68FB607B682F4A42
:1051300093420BD07B68B3F1804F07D07B682C4A39
:10514000934203D07B682B4A934208D1FB6823F03B
:105150007003FB603B685B68FA681343FB607B6825
:10516000224A93420BD07B68B3F1804F07D07B6813
:105170001F4A934203D07B681E4A934208D1FB68C2
:1051800023F44073FB603B68DB68FA681343FB6001
:10519000FB6823F080023B685B691343FB607B681C
:1051A000FA681A603B689A687B68DA623B681A683A
:1051B0007B689A627B680D4A934203D13B681A6907
:1051C0007B681A637B6801225A617B681B6903F064
:1051D0000103002B05D07B681B6923F001027B686B
:1051E0001A6100BF1437BD4680BC7047002C0140D7
:1051F000000400400008004080B487B000AFF860B1
:10520000B9607A60FB681B6A7B61FB681B6A23F0EC
:105210000102FB681A62FB689B693B613B6923F0F2
:10522000F0033B617B681B013A6913433B617B6977
:1052300023F00A037B617A69BB6813437B61FB68D7
:105240003A699A61FB687A691A6200BF1C37BD46E9
:1052500080BC704780B487B000AFF860B9607A60F6
:10526000FB681B6A7B61FB681B6A23F01002FB680A
:105270001A62FB689B693B613B6923F470433B61A5
:105280007B681B033A6913433B617B6923F0A003EE
:105290007B61BB681B017A6913437B61FB683A69D8
:1052A0009A61FB687A691A6200BF1C37BD4680BCF0
:1052B000704780B485B000AF786039607B689B68C8
:1052C000FB60FB6823F07003FB603A68FB681343E4
:1052D00043F00703FB607B68FA689A6000BF1437ED
:1052E000BD4680BC704780B487B000AFF860B9603D
:1052F0007A603B60FB689B687B617B6923F47F433A
:105300007B613B681A027B681A43BB6813437A6966
:1053100013437B61FB687A699A6000BF1C37BD4606
:1053200080BC704780B485B000AF786039607B681E
:1053300093F83C30012B01D1022346E07B68012227
:1053400083F83C207B68022283F83D207B681B6841
:105350005B68FB607B681B689B68BB60FB6823F035
:105360007003FB603B681B68FA681343FB607B6853
:105370001B68FA685A607B681B68164A93420ED015
:105380007B681B68B3F1804F09D07B681B68124AA9
:10539000934204D07B681B68104A93420CD1BB68CF
:1053A00023F08003BB603B685B68BA681343BB6053
:1053B0007B681B68BA689A607B68012283F83D208D
:1053C0007B68002283F83C20002318461437BD4632
:1053D00080BC7047002C01400004004000080040E1
:1053E00080B582B000AF78607B68002B01D10123CB
:1053F00042E07B6893F84130DBB2002B06D17B683A
:10540000002283F840207868FDF756FB7B68242251
:1054100083F841207B681B68DA687B681B6822F48C
:105420000052DA60786800F063FD7B681B681A69D7
:105430007B681B6822F490421A617B681B685A697A
:105440007B681B6822F02A025A617B681B68DA6855
:105450007B681B6842F40052DA607B6800225A6461
:105460007B68202283F841207B68202283F8422039
:105470007B6800225A63002318460837BD4680BD6A
:1054800080B58AB002AFF860B9603B601346FB801C
:1054900000237B61FB6893F84130DBB2202B75D190
:1054A000BB68002B02D0FB88002B01D101236EE0EA
:1054B000FB6800225A64FB68212283F84120FDF733
:1054C00055FF7861FB68FA889A84FB68FA88DA8469
:1054D000FB689B68B3F5805F08D1FB681B69002BF4
:1054E00004D10023FB61BB68BB6103E0BB68FB61C7
:1054F0000023BB612EE03B6800937B690022802182
:10550000F86800F001FB0346002B05D0FB68202261
:1055100083F8412003233AE0FB69002B0BD1BB69E0
:105520001B881A46FB681B68C2F308025A60BB69F5
:105530000233BB6107E0FB691A78FB681B685A609D
:10554000FB690133FB61FB68DB8C9BB2013B9AB2C8
:10555000FB68DA84FB68DB8C9BB2002BCBD13B6809
:1055600000937B6900224021F86800F0CDFA0346E1
:10557000002B05D0FB68202283F84120032306E09E
:10558000FB68202283F84120002300E00223184614
:105590002037BD4680BD000080B5BAB000AF78604E
:1055A0007B681B681B68C7F8E4307B681B68DB6896
:1055B000C7F8E0307B681B685B69C7F8DC30002304
:1055C000C7F8D8300023C7F8D430D7F8E43003F058
:1055D0000F03C7F8D830D7F8D830002B0FD1D7F841
:1055E000E43003F02003002B09D0D7F8E03003F0BB
:1055F0002003002B03D0786800F0BCFB5BE2D7F8F7
:10560000D830002B00F0DE80D7F8DC3003F0010347
:10561000002B06D1D7F8E03003F49073002B00F094
:10562000D180D7F8E43003F00103002B0BD0D7F87A
:10563000E03003F48073002B05D07B685B6C43F093
:1056400001027B685A64D7F8E43003F00403002BAE
:105650000BD0D7F8DC3003F00103002B05D07B68BA
:105660005B6C43F002027B685A64D7F8E43003F0C5
:105670000203002B0BD0D7F8DC3003F00103002B22
:1056800005D07B685B6C43F004027B685A64D7F8F2
:10569000E43003F00803002B11D0D7F8E03003F01A
:1056A0002003002B05D1D7F8DC3003F00103002BD9
:1056B00005D07B685B6C43F008027B685A647B68AA
:1056C0005B6C002B00F0F281D7F8E43003F020038C
:1056D000002B08D0D7F8E03003F02003002B02D0D5
:1056E000786800F047FB7B681B685B6903F0400348
:1056F000002B14BF01230023DBB2C7F8D4307B6832
:105700005B6C03F00803002B03D1D7F8D430002BD7
:105710004FD0786800F051FA7B681B685B6903F032
:105720004003002B41D07B681B681433C7F89C30C2
:10573000D7F89C3053E8003FC7F89830D7F8983036
:1057400023F04003C7F8D0307B681B681433D7F8C8
:10575000D020C7F8A820C7F8A430D7F8A410D7F8ED
:10576000A82041E80023C7F8A030D7F8A030002BCC
:10577000D9D17B68DB6B002B13D07B68DB6B7E4A57
:105780005A637B68DB6B1846FDF766FF0346002B08
:1057900016D07B68DB6B5B6B7A68D26B10469847E0
:1057A0000EE0786800F09CF90AE0786800F098F95B
:1057B00006E0786800F094F97B6800225A6475E18D
:1057C00000BF73E17B681B6B012B40F04F81D7F862
:1057D000E43003F01003002B00F04881D7F8E030EC
:1057E00003F01003002B00F041810023BB607B68B5
:1057F0001B681B68BB607B681B685B68BB60BB6821
:105800007B681B685B6903F04003002B00F0B680E7
:105810007B68DB6B1B685B68A7F8BE30B7F8BE30EF
:10582000002B00F045817B689B8DB7F8BE209A4223
:1058300080F03E817B68B7F8BE20DA857B68DB6B41
:105840009B69202B00F088807B681B680C33C7F8AD
:105850008830D7F8883053E8003FC7F88430D7F84D
:10586000843023F48073C7F8B8307B681B680C332E
:10587000D7F8B820C7F89420C7F89030D7F8901020
:10588000D7F8942041E80023C7F88C30D7F88C3043
:10589000002BD9D17B681B6814337B677B6F53E87F
:1058A000003F3B673B6F23F00103C7F8B4307B68D0
:1058B0001B681433D7F8B420C7F88020FB67F96F52
:1058C000D7F8802041E80023BB67BB6F002BE1D1F4
:1058D0007B681B6814333B663B6E53E8003FFB65F7
:1058E000FB6D23F04003C7F8B0307B681B681433AE
:1058F000D7F8B020FA66BB66B96EFA6E41E80023AD
:105900007B667B6E002BE3D17B68202283F84220EC
:105910007B6800221A637B681B680C33FB64FB6C9A
:1059200053E8003FBB64BB6C23F01003C7F8AC30F6
:105930007B681B680C33D7F8AC20BA657B65796D42
:10594000BA6D41E800233B653B6D002BE3D17B68DA
:10595000DB6B1846FDF745FE7B6802225A637B68C5
:105960009A8D7B68DB8D9BB2D31A9BB219467868FF
:1059700000F0BFF89CE000BF7F5C00087B689A8D58
:105980007B68DB8D9BB2D31AA7F8CE307B68DB8DAA
:105990009BB2002B00F08E80B7F8CE30002B00F0C9
:1059A00089807B681B680C33BB63BB6B53E8003F8B
:1059B0007B637B6B23F49073C7F8C8307B681B68EC
:1059C0000C33D7F8C8207A643B64396C7A6C41E8B0
:1059D0000023FB63FB6B002BE3D17B681B68143354
:1059E0007B627B6A53E8003F3B623B6A23F0010322
:1059F000C7F8C4307B681B681433D7F8C4203A63F7
:105A0000FB62F96A3A6B41E80023BB62BB6A002B78
:105A1000E3D17B68202283F842207B6800221A634E
:105A20007B681B680C333B613B6953E8003FFB60BC
:105A3000FB6823F01003C7F8C0307B681B680C3389
:105A4000D7F8C020FA61BB61B969FA6941E800235F
:105A50007B617B69002BE3D17B6802225A63B7F834
:105A6000CE301946786800F044F823E0D7F8E430E7
:105A700003F08003002B09D0D7F8E03003F0800357
:105A8000002B03D0786800F00EF914E0D7F8E4306A
:105A900003F04003002B0ED0D7F8E03003F04003B2
:105AA000002B08D0786800F04DF904E000BF02E058
:105AB00000BF00E000BFE837BD4680BD80B483B0C2
:105AC00000AF786000BF0C37BD4680BC704780B423
:105AD00083B000AF786000BF0C37BD4680BC704714
