:020000040800F2
:1000000070040020410F0008090F00080B0F0008C2
:100010000D0F00080F0F0008110F0008000000006E
:10002000000000000000000000000000130F0008A6
:10003000150F000800000000170F0008190F000836
:10004000610F0008650F0008690F00086D0F0008B8
:10005000710F0008750F0008790F00087D0F000868
:10006000810F0008850F0008890F00088D0F000818
:10007000910F0008950F0008990F00089D0F0008C8
:10008000A10F0008A50F0008A90F0008AD0F000878
:10009000B10F0008B50F0008B90F0008BD0F000828
:1000A000C10F0008C50F0008C90F0008CD0F0008D8
:1000B000D10F0008D50F0008D90F0008DD0F000888
:1000C000E10F0008E50F0008E90F0008ED0F000838
:1000D000F10F0008F50F0008F90F0008FD0F0008E8
:1000E0000110000805100008091000082DE9F84368
:1000F000040016D02078DFF84474C10713D578685F
:1001000000F00C00042807D0786800F00C000828E4
:1001100040D17968C8033DD53A68910303D560683A
:10012000002800F05B812078DFF82064810719D572
:10013000786810F00C0F07D0786800F00C000828E1
:100140005FD17868C1035CD43868810703D5206922
:10015000012840F043813968606921F0F80141EAE3
:10016000C00139602178080778D5A069DFF8E0136D
:10017000002800F09E8001220A6000F013FA054674
:10018000796A88075BD400F00DFA401B0228F7D982
:10019000032026E16068B0F5803F03D1386840F461
:1001A000803013E058B1B0F5A02F08D1386840F482
:1001B000802038603A6842F480323A6007E039685B
:1001C00021F480313960386820F48020386060681C
:1001D00058B100F0E7F9054639688803A3D400F068
:1001E000E1F9401B6528F7D3D2E700F0DBF90546BB
:1001F0003968880397D500F0D5F9401B6528F7D3F7
:10020000C6E7206968B10121316000F0CBF90546ED
:10021000386881079FD400F0C5F9401B0228F7D940
:10022000B6E70022326000F0BDF90546396888075C
:1002300098D500F0B7F9401B0228F7D9A8E7DFF8F6
:1002400000231168C9084FF47A70B1FBF0F00090F8
:1002500000BF0098411E00280091F9D12078410785
:100260006ED5F9690025C80009D4F96941F08051BB
:10027000F9610125F86900F0805000900098DFF8DE
:10028000D482D8F80000C10520D4D8F8000040F48A
:100290008070C8F8000000F085F98146D8F8001099
:1002A000C80513D400F07EF9A0EB09006528F5D34A
:1002B0006EE7086000F076F90546796A8807CDD5C3
:1002C00000F070F9401B0228F7D961E7E0680128C7
:1002D00008D008B9386A09E00528386A06D140F024
:1002E00004003862386A40F0010005E04008400030
:1002F0003862386A20F00400386241F28938E068D8
:1003000060B100F04FF98146396A880713D400F0D4
:1003100049F9A0EB09004045F6D339E700F042F96E
:100320008146396A880706D500F03CF9A0EB090040
:100330004045F6D32CE71DB1F86920F08050F861F4
:10034000E06900284CD0796801F00C01082938D008
:1003500002282AD100F047F805463968880105D5FA
:1003600000F020F9401B0228F7D911E7206AB0F508
:10037000803F05D17968A06821F40031014379609C
:100380007A68206A616A22F4741202430A437A602E
:10039000012000F029F804463868810120D400F0DB
:1003A00001F9001B0228F7D9F2E600F01CF8044618
:1003B0003868810114D500F0F5F8001B0228F7D940
:1003C000E6E601280AD07868226A00F4803191427A
:1003D00002BF00F47010616A884201D0012000E081
:1003E0000020BDE8F2830020306600F0DBB82DE984
:1003F000F041040088465FD0574E306800F0070097
:10040000404509D23168C90848EAC1013160306805
:1004100000F0070040454FD12168484D880712D5AC
:10042000490703D5686840F4E060686020780107F8
:1004300003D5686840F4605068606968A06821F07E
:10044000F001014369602178C80726D5606801285A
:1004500002D129688A0303E0022803D129688A01AE
:1004600003D429E02B68990726D56A68920840EAE8
:100470008200686000F096F807466868616800F0DE
:100480000C00B0EB810F08D000F08CF8C01B41F2DB
:1004900089318842F1D3032032E0316801F007014D
:1004A00088450BD23068C00848EAC0003060316827
:1004B00001F00701414501D0012021E021784807E2
:1004C00005D56968E06821F4E0610143696021783D
:1004D0000A0706D56868216920F4605040EAC10027
:1004E000686000F00FF86A681C49C2F303128B5C65
:1004F0001349D84008601448006800F059F80020FB
:10050000BDE8F08116490F480A6802F00C03082B79
:1005100000D0704710B500BF13A4C2F38343D203C9
:10052000E35C08D50968584313A3C1F34041595C03
:10053000B0FBF1F010BD0B48584310BD0010024055
:100540000C00002000127A00080000200000424247
:10055000800442420070004000200240300F00083A
:100560000410024000093D000203040506070809C3
:100570000A0B0C0D0E0F101001020EE0026843680A
:10058000024408305FEAC37C44BF4B445B1E52F810
:1005900004CB43F804CB091FF9D150F8041B002900
:1005A000ECD1704701484068704700BF0000002050
:1005B00038B50D4D0D4A297804464FF47A7310680A
:1005C000B3FBF1F1B0FBF1F000F048F850B9102C9A
:1005D00008D2002221464FF0FF3000F020F8AC6036
:1005E000002032BD012032BD000000200C000020A0
:1005F0000A01010002D4224B5A547047214801F0ED
:100600000F01014401F8042C70471F490A6860F388
:100610000A2240F2FA5060F31F420A60704770B538
:10062000194C2368C3F302230124C3F10705052DE8
:100630002FBF0F26C3F1070604FA06F6761E1D1D0E
:10064000072D34BF0023DB1E3140994004FA03F329
:10065000BDE870405B1E1A401143C9E7401EB0F16F
:10066000807F01D30120704708494860F022084884
:10067000027000238B6007220A6000207047000090
:1006800000E400E018ED00E00CED00E010E000E018
:1006900023ED00E038B5040001D1012032BD606ACD
:1006A00028B900F01FF905D00021E16102E0002027
:1006B000206160610020A06204F15005687820B9D3
:1006C00000212970204600F0A9F9022068702068F6
:1006D000016821F0400101606068A268E16800F4EF
:1006E000827002F404421043227C01F4006108434A
:1006F000217D02F002021043A26901F001010843CA
:10070000217F02F40072104394F8202001F0380198
:100710000843A16A02F080021043226801F40051EC
:1007200008431060A1692068090C01F004014160D0
:100730002168C86920F40060C86100216960012057
:100740006870002032BD2DE9FC4106460C46154676
:100750009846FFF727FF06F150077978012907D15E
:10076000002C14BF002D012003D03978012901D1BC
:1007700002207DE001233B704FF0030C87F801C09D
:10078000002179603463B586F586B163B187F1875E
:1007900071643164B368B3F5004F09D131680B68F7
:1007A00023F040030B603368196841F480411960FD
:1007B00031680B685C0600F066F84446F168B1F5F4
:1007C000006F716821D1002918BF012D00F07DF85C
:1007D00006E0326B1188C160306B821C00F04AF871
:1007E000F08E002830D0306882689107F1D4FFF78E
:1007F000D9FE00F044F805D314F1010FF0D000F059
:1008000048F835E0002CEBD1F9E7002918BF012D9D
:1008100000F04EF806E0326B11780173306B421C29
:1008200000F028F8F08E78B1306881688A07F2D439
:10083000FFF7B8FE00F023F803D314F1010FF1D055
:10084000DDE7002CEED1DAE742462146304600F0E3
:10085000AAF808B120207860B06838B9002100916A
:100860003068C168009182680092009900F017F822
:10087000BDE8F6813263F18E481EF0867047A0EB2A
:100880000800A042704703D40B6843F040030B609C
:1008900070470120787000213970032070470120D3
:1008A000787000213970786800B10120C0B27047BB
:1008B00009D1336B31681A780A73326B511C31637A
:1008C000F28E511EF1868046704709D1336B316834
:1008D0001A88CA60326B911C3163F28E511EF18608
:1008E000804670476068B0F5827F70472DE9F84315
:1008F000089C07460E4691469846FFF753FEA8EB24
:1009000000002418FFF74EFE354A11684901090D11
:1009100061430091054605E0009800B90024009865
:10092000401E0090396888683040B0420CBF0121F9
:100930000021494534D018F1010FF3D0FFF732FE02
:10094000401BA04201D2002CE6D13968486820F053
:10095000E00048607868B0F5827F0BD1B868B0F5E8
:10096000004F18BFB0F5806F04D13968086820F0D7
:1009700040000860B86AB0F5005F09D138680168C6
:1009800021F4005101603968086840F400500860A3
:1009900007F150000122427000210170032000E0A5
:1009A0000020BDE8F2837CB50E461546044600954E
:1009B000334601220221FFF799FF38B900953346EB
:1009C000002280212046FFF791FF10B100F002F8CD
:1009D000032076BD606D40F0200060657047000028
:1009E0000C000020294881B0026842F00102026038
:1009F000016801F001010091009A4168244A41F028
:100A0000805141600421406800F0805000900098BF
:100A1000106861F31A60106001B0704718B585B0B6
:100A2000044610210022684600F038F8236819496E
:100A30008B4228D11548184C416841F480414160EF
:100A4000416801F480410491049A016841F0080171
:100A500001600222006800F0080004904FF420407A
:100A6000049900900321039101926946204600F009
:100A70001FF84FF4804000900022019202926946D4
:100A8000204600F015F806B010BD00001810024016
:100A90000400014000380040000C01404018491C8F
:100AA0001CBFB1F1010100F8012DF9D17047000020
:100AB0002DE9F84F00270024684BDFF8A481DFF808
:100AC000A491DFF8A4B14FF00F0A024610E0D3F86A
:100AD00000E000EA0E00186009E0C3F804C04D68A9
:100AE000ED03F4D518684EEA000EC3F800E07F1C51
:100AF0000D6835FA07F000F0AB80012000FA07FC22
:100B00000CEA050EE645F2D14D683DB3012D1AD031
:100B1000022D1DD0032D2ED0112D16D0122D1AD03E
:100B2000524885421CBF5248854217D051488542E1
:100B30001CBF5148854211D0504885421CBF5048C7
:100B400085420BD018E0CC6816E0CC68241D13E079
:100B5000CC68083410E0CC680C340DE0886808B923
:100B6000042409E0012819BF0824C2F814C008248D
:100B7000C2F810C000E00024BEF5807F03D210460A
:100B80004FEA870C04E0A7F10805101D4FEA850C19
:100B900006680AFA0CF5AE4304FA0CF545EA060CB1
:100BA000C0F800C04868C000A1D5D9F800C04CF01A
:100BB000010CC9F800C0BD00D9F8000000F0010028
:100BC000009005F00C0C0098B80858F820600AFA5C
:100BD0000CF5AE435A4508BF00250ED0294DAA4258
:100BE00008BF012509D0284DAA4208BF022504D01C
:100BF000264DAA420CBF0325042505FA0CF545EA4B
:100C0000060C48F820C06FEA0E004D68ED0204D5CE
:100C10009D684EEA05059D6005E0D3F808C000EA2E
:100C20000C0CC3F808C04D68D3F80CC0AD024CBF23
:100C30004EEA0C0C00EA0C0CC3F80CC04D68D3F85B
:100C400004C0AD034CBF4EEA0C0C00EA0C0C44E7A8
:100C5000BDE8F18F02B90904016170470004014049
:100C60000800014018100240000801400000111067
:100C700000001210000021100000221000003110AE
:100C800000003210000C014000100140001401402F
:100C900030B585B000F09CF800F06FF8102100220C
:100CA00001A8FFF7FBFE2E482E4C02682E4D42F0A5
:100CB00020020260016801F020010091009B02689F
:100CC00042F004020260016801F004010091009A00
:100CD000016841F0080101600022006800F008008E
:100CE0000090012100982046FFF7B4FF0120022167
:100CF0000190029000220491039201A92046FFF77F
:100D0000D7FE1A4868604FF4827128202862A960D3
:100D10000A2000224FF400712863EA602A616A61A8
:100D2000AA61E9616A62AA62EA62281DFFF7B2FC61
:100D300008B100F04BF800F01BF80A230122294605
:100D4000281DFFF700FD012200F013F800F010F855
:100D50004FF4FA7000F04EF82878401C2870ECE749
:100D60001810024000080140100000200038004028
:100D7000002201212046FFF76DBF00B58FB028216A
:100D8000002205A8FFF78AFE142100226846FFF71B
:100D900085FE012005904FF48032002106920C91CF
:100DA00005A8FFF7A3F908B100F010F80F20009094
:100DB0000122002101920291039104916846FFF7FC
:100DC00016FB08B100F002F80FB000BD72B6FEE7E6
:100DD00080B50748016841F0100101600320FFF76A
:100DE00014FC0F20FFF7E4FBFFF7FCFD002002BD21
:100DF0000020024038B50546FFF7D4FB15F1010F7E
:100E0000044602D0044908784519FFF7CBFB001BC4
:100E1000A842FAD331BD00BF0000002030B4002446
:100E200012E050F8043BDA0744BF4B445B1E091F35
:100E3000042943F8044BFAD21A468D0744BF1C809C
:100E4000921CCB0748BF147050F8041B0029E8D14E
:100E500030BC704710B5034A7A440832024C7C44D7
:100E6000A41D03E01C0000003C00000004E0116829
:100E7000101D114488470246A242F8D110BD00005F
:100E80009DFFFFFF5C00000010000020000000003C
:100E9000EBF6FFFF10000000B8000000000000208B
:100EA0000000000000F00DF8002801D0FFF7D2FF8D
:100EB000AFF300800020AFF30080FFF7E9FE00F001
:100EC00002F80120704700F001B8000007463846DC
:100ED00000F002F8FBE7000080B5AFF30080024AA3
:100EE00011001820ABBEFBE72600020005480146B2
:100EF00003B4684680F30988AFF30080AFF3008045
:100F0000FFF7D0FFA5EDF5FEFEE7FEE7FEE7FEE703
:100F1000FEE770477047704700F000B8024A51681A
:100F200010784118516070470000002070470000A1
:100F30000000000000000000010203040607080989
:100F400001488047014800472D0F0008ED0E0008BA
:100F500001000000000000001000000000127A00F4
:100F6000FFF7FEBFFFF7FEBFFFF7FEBFFFF7FEBFB5
:100F7000FFF7FEBFFFF7FEBFFFF7FEBFFFF7FEBFA5
:100F8000FFF7FEBFFFF7FEBFFFF7FEBFFFF7FEBF95
:100F9000FFF7FEBFFFF7FEBFFFF7FEBFFFF7FEBF85
:100FA000FFF7FEBFFFF7FEBFFFF7FEBFFFF7FEBF75
:100FB000FFF7FEBFFFF7FEBFFFF7FEBFFFF7FEBF65
:100FC000FFF7FEBFFFF7FEBFFFF7FEBFFFF7FEBF55
:100FD000FFF7FEBFFFF7FEBFFFF7FEBFFFF7FEBF45
:100FE000FFF7FEBFFFF7FEBFFFF7FEBFFFF7FEBF35
:100FF000FFF7FEBFFFF7FEBFFFF7FEBFFFF7FEBF25
:0C100000FFF7FEBFFFF7FEBFFFF7FEBFCB
:0400000508000EEDF4
:00000001FF
