:020000040800F2
:10000000B004002051330008193300081B330008E6
:100010001D3300081F3300082133000800000000D2
:100020000000000000000000000000002333000872
:10003000253300080000000027330008293300089A
:10004000693300086D330008713300087533000808
:10005000793300087D3300088133000885330008B8
:10006000893300088D330008913300089533000868
:10007000993300089D330008A1330008A533000818
:10008000A9330008AD330008B1330008B5330008C8
:10009000B9330008BD330008C1330008C533000878
:1000A000C9330008CD330008D1330008D533000828
:1000B000D9330008DD330008E1330008E5330008D8
:1000C000E9330008ED330008F1330008F533000888
:1000D000F9330008FD330008013400080534000836
:1000E000093400080D3400081134000840F02000E5
:1000F00070472DE9F14FB0B0924604910DF14201E5
:100100003A9A2B9199464A7000200AE01AF8011B8E
:100110000498309A90470028049000F043860D9888
:10012000401C0D909AF8000050B12528EED1002215
:1001300000210792089109920A910B920C9104E018
:100140000D9800F031BE41F001011AF8010F20288E
:10015000F9D023280CD02B2804D02D2805D0302806
:1001600009D00BE041F00201EFE741F00401ECE7B8
:1001700041F00801E9E741F01001E6E72A280FD134
:10018000D9F8002052F8040BC9F8002000280F907D
:1001900003D540420F9041F004010AF1010A14E036
:1001A0000F92DFF80C0C0AE00F9C844205DA04EB96
:1001B000840302EB4302303A0F920AF1010A9AF8E3
:1001C0000020A2F130030A2BEED39AF800202E2A49
:1001D00003D04FF0FF300E9029E01AF8010F2A28C3
:1001E00009D1D9F8002052F8040BC9F800200E906C
:1001F0000AF1010A1BE02D280CBF0AF1010A0020B8
:1002000000220E92DFF8A85B0BE040B90E9BAB42D8
:1002100005DA03EB830402EB4402303A0E920AF152
:10022000010A9AF80020A2F130030A2BEDD3ADF8B1
:1002300040100FF680309AF8001000F0D1FE08B19F
:100240001AF8010B8DF842009DF84200682805D18C
:100250009AF8001068290CD1622006E06C2804BFCF
:100260009AF800106C2904D171208DF842000AF12F
:10027000010A12AA06921AF801BBBBF125002CD084
:100280001C3800F09781001F022840F29381133838
:1002900000F0BA84093800F08D81801E00F04F858F
:1002A000401E00F0FC84401E022840F28381001FA3
:1002B00000F0F584401F00F0F280401E00F0A4849E
:1002C000401E00F0DA80C01E0ED0801E00F09C841C
:1002D000C01E00F0998400F03DBD01222521079247
:1002E0008DF8481000F042BDD9F8000050F8044BDA
:1002F000C9F80000002C059440F0AB802B99487899
:10030000002800F0A1804FF0FF340FF6B02000F07D
:1003100077FE241A40F0468500F028BD01236A4686
:1003200002A9304600F00CFE002840F03B85641E18
:10033000F4D13096079C12AE74B1309F16F8011BB1
:100340000498B8470028049000F02C850D98401CB4
:10035000641E0D90F2D130970A9C3021002C8DF84C
:1003600000100CDD309E01236A4602A9304600F0E1
:10037000E7FD002840F01685641EF4D13096059EF6
:10038000089C74B1309F16F8011B0498B8470028E8
:10039000049000F007850D98401C641E0D90F2D16A
:1003A00030970B9C3021002C8DF800100CDD309E16
:1003B00001236A4602A9304600F0C2FD002840F041
:1003C000F184641EF4D1309605980899099C46186A
:1003D00074B1309F16F8011B0498B84700280490A8
:1003E00000F0E0840D98401C641E0D90F2D130970F
:1003F0000C9C3021002C8DF800100CDD309E012368
:100400006A4602A9304600F09BFD002840F0CA84ED
:10041000641EF4D130969DF8400041077FF582AE0E
:100420002020002D8DF800007FF77CAE309C01234A
:100430006A4602A9204600F083FD002840F0B284FD
:100440006D1EF4D130946DE60FF65430059000F037
:100450008DBC0E9D002D04D5204600F0F1FD044614
:1004600008E02A460021204600F006FE002814BFBE
:10047000041B2C46089400F079BCD9F8001051F800
:10048000040BC9F8001020F00002002121F0FF3316
:10049000CDE9022312AC0594782100F04CBC2B99D5
:1004A000487820B14FF0FF340FF6C4202FE79DF8B5
:1004B0004200622860D0682817D06A283FD06C2894
:1004C00006D0712847D074282CD07A281DD062E03D
:1004D000D9F8001051F8040BC9F80010002866D1B3
:1004E0004FF0FF340FF6A02011E7D9F8001051F8B3
:1004F000040BC9F8001020B94FF0FF340FF6882024
:1005000005E70D99018000F031BCD9F8001051F8D1
:10051000040BC9F80010002849D14FF0FF340FF642
:100520006820F4E6D9F8001051F8040BC9F800105F
:1005300000283CD14FF0FF340FF64C20E7E6D9F805
:10054000001051F8040BC9F8001080B94FF0FF34C7
:100550000FF63420DBE6D9F8001051F8040BC9F887
:10056000001020B94FF0FF340FF61C20CFE60D9A93
:10057000D317C0E90023F9E3D9F8001051F8040BB0
:10058000C9F8001020B94FF0FF340FF6FC10BEE69A
:100590000D990170EAE3D9F8001051F8040BC9F87D
:1005A000001020B94FF0FF340FF6DC10AFE60D99C4
:1005B0000160DBE39DF842004C2807BFD9F800102A
:1005C000CA1DD9F80000C21D22F00702C9F8002098
:1005D000D2E900010832C9F80020CDE90201C80FB4
:1005E00002D007982D210AE0BDF84010880702D5F7
:1005F00007982B2103E0C80705D50798202112AAE8
:100600001154401C079012A807994BF0200300EBEF
:10061000010CDDE90201CDE92C01612BCDF814C0FC
:1006200021AC0BD00E98002848BF062105D404BF8A
:100630004BF02000672801D101210E91DDE902670E
:100640007B0043EAD6735A15DB174FF0FF30834225
:1006500008BF824210D13F0347EA16573603002FE6
:1006600008BF002E08D0ABF1610503211A2D0891B7
:1006700018D30FF6341110E0DDE902014A005215DB
:1006800012F1010F11D108030FD1ABF16105032164
:100690001A2D08911FD30FF618110322604600F09F
:1006A00017FD63E30FF6FC01F7E7DDE902016A4697
:1006B00000F062FDCDE902014BF02000612811D16C
:1006C000059830220270811C0591BBF1610F0CBFAF
:1006D0007821582102E00FF6D401DEE74170079837
:1006E000801C0790DDE9020120F0000231F0004398
:1006F00008BF002A02D10026002542E14BF0200865
:10070000B8F1610F40F093800E98002847BF212177
:100710000191401C0190019EDDE92C01761C002214
:100720000023DDE9024500F05FFD38BF85F000459C
:1007300000988DF88420001F002E00900DF1850791
:1007400032DD204629460022002300F067FD2BD22F
:100750001C2200F07DFD04460D4600F017FEF61F3A
:10076000002E804609DD00F02DFE02460B46204695
:10077000294600F0EFFE04460D46F81D0721B8F1AA
:10078000000F0CDD491E5EBF08F00F0200F8012DBE
:100790004FEA2818F3D502E0002200F8012D491E87
:1007A000FAD5C71D002ECCDC0DF185003F1A01984B
:1007B0000DF185043E468742C8BF0646002E2FD461
:1007C000BE4206DA0DF18500815D0829A8BF0F2021
:1007D00000DA0020324621A98D1800E0761E15F8B7
:1007E0000139521E8342F9D00F2804D10DF1850141
:1007F000885C401C8854002A04D50098001D21AC58
:10080000761C0090701E0BD421180B783033DAB2AE
:100810003A2AA4BF5B443A3B401E01F80139F4D5A3
:100820000E99002940F1AC80701E0E90A8E000994E
:10083000DFF8FC2647F29750414391FBF2F2009219
:10084000DDE92C45C2F10702002A25F0004504DD50
:100850002046294600F049FB0BE052420020DFF819
:10086000D41600F042FB02460B462046294600F013
:10087000E3FE04460D46B8F1660F06BF009E0A3639
:1008800006260E983618142EC8BF142630208DF870
:1008900084000DF18507002E34DD2046294600F046
:1008A000EFFF01460A4607F1080C04200A27B2FBB5
:1008B000F7FE0EEB8E03A2EB430230320CF8012C54
:1008C0000A22BEFBF2F202EB8203AEEB43033033AB
:1008D000401E0CF8023DE9D1083E002E0CF108073D
:1008E000D9DD084600F0DEFF02460B4620462946C9
:1008F00000F030FE0022DFF8403600F0E1FF044651
:100900000D46CAE70DF185003F1A0DF1850404E09C
:100910000098401E7F1E0090641C20783028F7D07D
:10092000B8F1660F02D1009E761C04E0B8F1650FA5
:100930000CBF012600260E983618B742B8BF7E1E9F
:10094000002E1DD4BE4204DAA05D3428C8BF392071
:1009500000DC30203246611E8D1800E0761E15F84E
:100960000179521E8742F9D0392802D1A05C401C7F
:10097000A054002A04D50098401C0C46761C009018
:10098000009D01F073F8406A0778DDF8388030B2D6
:10099000002802DC01260FF21C644BF020006628C0
:1009A00008BF6D1C16D0672845D128B210F1040F7E
:1009B00047DB404545DA9DF840106D1C080703D41D
:1009C00030B24045D8BF804628B2B8EB000848BFD7
:1009D0004FF000080FFA85FBBBF1000F00F3B38066
:1009E0000898411C0891302205990A54B8F1000F6B
:1009F00003DC9DF84010080704D50898411C0891B5
:100A000005990F5418EB0B0FB8BFC8F100052DB2B4
:100A10006842454432B20B909542B8BF2E46059BC2
:100A2000089836B2099632462146184400F050FB29
:100A3000AD1B0C95D1E0BBF1610F17D14FF0700BDE
:100A400019E030B2404504DA9DF840100A0758BF5B
:100A50008046B8F1010848BF4FF00008BBF1670FAE
:100A600014BF4FF0450B4FF0650B04E0BBF1410F95
:100A700008BF4FF0500B0898411C0891B8F1000FC7
:100A8000059914F8012B0A5403DC9DF8401008075F
:100A90001AD50898411C0891B8F1000F05990F5418
:100AA00012DD761E30B28045B8BF46460598089BD9
:100AB00032B22146184400F00BFB089836B23018C9
:100AC0000890A8EB06000B9005980899014428B2FD
:100AD000002881F800B003D42B204870891C04E062
:100AE0002D224A700546891C6D4200202CAA0AE07E
:100AF0002B460A2593FBF5F505EB8504A3EB440390
:100B000002F8013B401C2DB2002DF1DC012806DC6F
:100B10004BF02002652A04BF302201F8012B002887
:100B20002CAB08D1302001F8010B06E0401E1A5C06
:100B3000303201F8012B0028F8DC059A089810449F
:100B4000091A099149E031B228B281421CDA059BA9
:100B5000089832B22146184400F0BAFA089936B221
:100B600071180891ABEB0600B8F1000F0B9003DC95
:100B70009DF84000020704D5059847540999491C7F
:100B80000991CDF8308028E0059B08982AB22146CB
:100B9000184400F09DFA0898761B5844B8F1000FED
:100BA000089003DC9DF840100A0703D5411C08910A
:100BB00005990F5430B28045B8BF46460598089B4A
:100BC00032B204EB0B01184400F082FA089836B2F6
:100BD00030180890A8EB06000B909DF8400000F03C
:100BE0001400102840F0C280079A08980B998218C8
:100BF00009988A1882180C980F998018884280F2F8
:100C0000B580081A0A90B1E09DF84200622808D029
:100C100068280ED06A2814D06C281FD0712810D0F4
:100C20001CE0D9F8001051F8040BC9F80010C0B24C
:100C30001AE0D9F8001051F8040BC9F8001080B27E
:100C400012E0D9F80000C21D22F00702C9F8002006
:100C5000D2E900010832C9F8002006E0D9F80010F6
:100C600051F8040BC9F800100021CDE902019DF8EC
:100C7000400002075AD5DDE90201002908BF00281B
:100C800054D04BF02002782A50D1079912A8302373
:100C90004354491C4A1C079200F801B046E09DF8F5
:100CA0004200622808D068280ED06A2814D06C2828
:100CB0001FD0712810D01CE0D9F8001051F8040B97
:100CC000C9F8001040B21AE0D9F8001051F8040B2E
:100CD000C9F8001000B212E0D9F80000C21D22F0DD
:100CE0000702C9F80020D2E900010832C9F8002043
:100CF00006E0D9F8001051F8040BC9F80010C1172C
:100D0000CDE90201002902D507982D220AE0BDF89D
:100D10004000810702D507982B2203E0C00705D5C4
:100D20000798202212A90A54401C079012A807997C
:100D300001440591594602A800F04EF816E0012042
:100D40000790D9F8001051F8040BC9F800108DF87D
:100D500048000BE001222521BBF1000F07928DF81E
:100D6000481003D0022007908DF849B00F9D0798D6
:100D70000A992D1A08986D1A0B992D1A09986D1A4F
:100D80000C992D1A9DF840006D1A41073FF5D2AA23
:100D90002020002D8DF800007FF7CCAA309E2C4635
:100DA000FFF7BCBA4FF0FF3031B0BDE8F08F000064
:100DB000CBCCCC0C686A6C747A4C00007072696E93
:100DC00074665F733A2062616420257320617267E4
:100DD000756D656E740000002DE9FE4C06468B466D
:100DE000376958466F2808BF082205D0FFF77EF9FB
:100DF000782814BF0A221022D6E900013C250446B7
:100E00008A46BBF1640F18BFBBF1690F04D10029FA
:100E100002D564426AEB4A0ABAF1000F08BF002CFF
:100E20000CD1306B50B9082A3BD196F8381008071E
:100E300037D530213B2587F83B1032E08DF800B0E4
:100E40009346204651465A46002300F013FE3032A6
:100E5000D0B26D1E3A2801950DDA7A5520465146DA
:100E60005A46002300F006FE04465FEA010A08BF66
:100E7000002C05D108E09DF800001218513AECE76B
:100E8000F16878198142DCD3BBF1080F09D196F8DB
:100E90003800010705D5785D302802D06D1E30205E
:100EA0007855C5F13C02306BB26179198242F1602C
:100EB00007DA318F821A4FF6EF70014032623187C4
:100EC00010E000280ED596F8380000F01400102825
:100ED00008D1736B7069316A1B1A5B1A9B1A002B5D
:100EE000C8BF336203B0BDE8F08C2DE9D04306469D
:100EF0000F4614464FF00008DFF8409012E0E0077C
:100F000007D542464B463046394600F0D9FC0646E6
:100F10000F464046494642464B4600F0D1FC64101D
:100F200080468946002CEAD130463946BDE8D08358
:100F3000A08601000000F03F84D7974100002440C4
:100F4000F8B505460E4617461C4600205CB117F85A
:100F5000011BB068A847B06030B1F06A401CF06275
:100F60000020641EF3D1F2BD4FF0FF30F2BD00004F
:100F70007072696E74665F733A20256E20646973BF
:100F8000616C6C6F776564007072696E74663A208C
:100F900062616420256E20617267756D656E7400F4
:100FA000000000006E616E004E414E00696E6600EA
:100FB000494E460030000EE00268436802440830A3
:100FC0005FEAC37C44BF4B445B1E52F804CB43F83A
:100FD00004CB091FF9D150F8041B0029ECD170474C
:100FE000C9B202788A421AB11CBF10F8012FF9E782
:100FF00018BF0020704703685A1C026019707047C0
:1010000080B500B906A005490B681BB1222200215A
:10101000984701E000F046FE222002BDA800002013
:10102000636F6E73747261696E742068616E646C54
:1010300065723A20626164206D6573736167650053
:1010400000F10103810704D010F8011B820781B170
:10105000FAD10268A2F10131914311F0803104BF4D
:1010600050F8042FF6E709BAB1FA81F100EBD1008C
:10107000401CC01A70472E00C9B2830706D0521E0A
:1010800022D310F8013B9942F7D11FE0083A13D35D
:1010900002F1040241EA012141EA014150F8043B16
:1010A000121F21BF4B40A3F1013C2CEA030C1CF0A2
:1010B000803FF3D0C9B2001F0832521E24BF10F87F
:1010C000013B91EA030FF8D818BF0120401E70477A
:1010D00062B38B0708D0521E11F8013B00F8013BA8
:1010E00000F024808B07F6D1830740F0208000BFFA
:1010F000103A07D330B4B1E83810103AA0E83810ED
:10110000F9D230BC530724BFB1E80810A0E808109A
:1011100044BF51F8043B40F8043BD20724BF31F8E8
:10112000022B20F8022B44BF0B7803707047121F6C
:1011300017D35B0009D151F8043B20F8023B1B0C8C
:10114000121F20F8023BF6D20BE051F8043B00F8E6
:10115000013B1B0A20F8023B1B0C121F00F8013B4D
:10116000F3D238BF121D521E24BF11F8013B00F804
:10117000013BF8D87047000010B5144600F002F8A3
:10118000226010BDC1F30A5343B14A0012F5001F9B
:1011900028D2A3F2FE32A1EB0251704750EA410C73
:1011A00020D001F0004C31EA0C01B1FA81F204BF09
:1011B000B0FA80F3D2180B3AB2F120032CBF00FA38
:1011C00003F1914041EA0C013EBFC2F1200C20FA2C
:1011D0000CF319439040524240F2FD33D21A01EB16
:1011E000035170470022704741EA030C50EA4C0C4F
:1011F00052EA0C0C4FF4001C09D307D01CEB410F32
:101200009CBF1CEB430F8B4208BF824270471CEB14
:10121000430FFBD8994208BF9042704741EA030C44
:1012200050EA4C0C52EA0C0C4FF4001C09D307D0C6
:101230001CEB410F9CBF1CEB430F994208BF90422F
:1012400070471CEB410FFBD88B4208BF82427047AE
:10125000124254D440F2FF7C1CEA11530FD0634574
:1012600031D09B1863453CBF01EB0251704701F040
:10127000004141EA0C510020AFF30080704750EA72
:10128000410320D001F0004C91EA0C011CD0B1FACE
:1012900081F30B3B9A420DD9D21A994051EA0C01C5
:1012A000C3F1200C20FA0CFC61449840531C40F21E
:1012B000FF7CD7E7914041EA0C01C2F1200C20FAF3
:1012C0000CF3194390407047B0FA80F31533202B8C
:1012D000E0D3202AEED3203A203B9A4209D9D21AF1
:1012E00000FA03F141EA0C010020531C40F2FF7C9C
:1012F000B8E700FA02F141EA0C01002070475242BF
:1013000040F2FF7C1CEA11530DD06345DBD0B2EBF9
:10131000030C3CBFA1EB025170470CF1010221EA22
:10132000035141F4801150EA410CCCD001F0004C43
:10133000352A27DC30B481EA0C01B2F1200309DA46
:10134000C2F12003044601FA03F5D0402843D140FE
:101350009C400CE0C3F12002450020FA03F418BFC2
:1013600044F0010421FA03F091400C43002174F190
:10137000004550F1000051EB0C01244230BC7FF4D9
:101380007BAF70476146002076E70000C1F30A5347
:1013900040F21E42D31A0CDDCA0283F3070342EA6D
:1013A000505242F00042DA4002EBE17282EAE17010
:1013B00070476FEAE17203F2E13008B182F0004059
:1013C0007047000010F0004160B148BF4042B0FAE1
:1013D00080F29040D21CC2F5846241EA025202EBD4
:1013E000D021400570470000841A71EB030604D237
:1013F0006E40001BB141121973414FF4001C1CEBED
:10140000410F34BF7CEB430683E00C0DA4EB135675
:10141000362E00F37C80012E45EAC32341DC43EAEB
:10142000525312BFD20292025B08240545EAC12141
:1014300041EA5051D2EBC020994125D407D1B0FAEE
:1014400080F610FA06F162D00020203608E0B1FAEA
:1014500081F6B140C6F1200220FA02F21143B040F9
:101460004FEAF474B4EB465434F001064FEA7404C6
:101470000AD8D6F50016760D04F00044F04061FA63
:1014800006F25040F1404840C00A40EA415021F085
:10149000004128BF5FEA500550F1000044EBD12124
:1014A00035E0DB0A45EAC121C90AB6F120050EDDA7
:1014B00042EA0242120CC5F1200603FA06F6EB409E
:1014C00042EA06056D42984161F100010DE062FAC1
:1014D00006F5F240554063FA06FC82EA0C02F3403E
:1014E0005A406D42904161EB030111F4801F05D118
:1014F000641E620502D06D004041494121F4801113
:10150000430875F1004350F1000041EB045170BCF9
:1015100070471CEB410F15D223F0004352EA4306FB
:101520000BD04FEA4C0CBCEB410F04D80C0D661EDF
:10153000342EB7DDEBE7801A994150EA410608BF27
:101540000021E4E708BF1CEB430F28BF6FF0000148
:10155000DDE7000070B491EA030F4FF000457FF51E
:1015600043AF6B40841A71EB030603D2001BB141F9
:10157000121973414FF4001C1CEB410F34BF7CEB7C
:10158000430442E00C0DA4EB1356352E4FDC45EA24
:10159000C323DB0A45EAC121C912B6F120050DDDDE
:1015A00063FA05F6EB4086EA0305124218BF45F0E0
:1015B0000105C01851F100010CD213E062FA06F5E2
:1015C000F2405540F3415A40B340F3405A4080182E
:1015D000594107D349085FEA30005FEA350528BF63
:1015E00045F0010501F58011420875F1004250F106
:1015F000000041EB04514E0016F5001F70BC38BFCF
:1016000070470020090D090570471CEB410F10D2EF
:1016100052EA43060BD0BCEB410F05D80C0DAB438F
:10162000661E342EB6DD02E0AB438018594170BC13
:10163000704770BC70470000F0B540F2FF7581EA5A
:10164000030C0CF0004C15EA11541DBF15EA13579A
:10165000AC42AF42E5E0BC41C1F31301C3F3130355
:10166000801A994143F4801304D2641E0018494142
:1016700080185941C90241EA5051B1FBF3F603FB0E
:101680001611A2FB0675D7EBC020A94102D2761E27
:1016900080185941C90241EA5051B1FBF3FE03FBE6
:1016A0001E11A2FB0E75D7EBC020A94103D2AEF1EB
:1016B000010E80185941890241EA9051760546EAA7
:1016C0008E2EB1FBF3F603FB1611A2FB0675D7EBCA
:1016D0008020A94102D2761E80185941C90241EAF0
:1016E00050514EEA060EB1FBF3F603FB1611A2FBB6
:1016F0000675D7EBC020A94102D2761E8018594149
:10170000C90241EA5051B1FBF3F703FB1711A2FBE9
:101710000735D3EBC020A94167F100070CBF004299
:1017200047F0010766F3D5274FEA1E31B80814F5D4
:10173000806412DDBD0775F1004250EB0E5051EB95
:10174000045111F5801F5CBF41EA0C01F0BD4CF063
:101750007F6141F0E0410020F0BDBD076D0840EA27
:101760000E5041F48011D4F10104B4F120060ADADC
:10177000C4F120060200E04001FA06F3E1401843FC
:10178000B24015430EE0342C13DCC6F1200445EAC8
:1017900040056D0820FA06F2154321FA06F0A14033
:1017A0000D43002175F1004250F1000051EB0C0196
:1017B000F0BD00205FEA0C01F0BDCFB992185B418B
:1017C000B3FA83F704BFB2FA82F6BF190B3FB7F141
:1017D00020062FBF02FA06F3BB40C7F1200622FA0B
:1017E00006F638BF3343BA401CB1E419641E33E730
:1017F0007F4231F00041B1FA81F404BFB0FA80F6C3
:10180000A4190B3CB4F120062FBF00FA06F1A14049
:10181000C4F1200620FA06F638BF3143A0403C1B35
:101820001AE7AC421ABF05EA1357AF4212E050EA7A
:1018300041061CBF52EA4306BFE750EA4107304663
:1018400061461CBF41EA0551F0BD52EA430C08BF96
:10185000C143F0BD00204FF4001616EB410F98BFB6
:1018600016EB430F08BF16EB410F24BFC14305E041
:1018700016EB430F0CBF61464CEA0551F0BD00006A
:10188000400D40F21E4C40EAC120BCEB115C40F020
:10189000004003D48CF30701C84070476FEAE17041
:1018A0007047000050B1B0FA80F18840C91CC1F502
:1018B0008461090501EBD02140057047014670475E
:1018C00030B540F2FF7C1CEA11541DBF1CEA1355D1
:1018D000644565453FE0641981EA030C6FF35F538B
:1018E0000CF0004C43F48013C90241F0004141EA7E
:1018F000505EC5021100A5FB020200284FF0000057
:10190000EEFB01204FF00001E3FB052118BF42F080
:101910000102401800214941E3FB0E01A4F5806457
:101920000D0302D292184041494154F1010470DD87
:10193000450872F1004250F1000051EB0451A1F54D
:10194000801102D441EA0C0130BD40F2FF7E4CEA26
:101950000E51002030BD0CEA1355644518BF654593
:1019600081EA030C0CF0004C41D050EA410E1CBF40
:1019700052EA430E02E06146002030BD24422C446E
:101980001BD15FEA050EF6D0090302BF0146002015
:10199000AEF1140EB1FA81F5AEEB050401FA05FEC5
:1019A0000C35C5F1200100FA05F5C8404EEA000EDD
:1019B0006FF35F5343F480139CE733F00043B3FAB3
:1019C00083F504BFB2FA82FE75440B3D641BB5F18A
:1019D000200E2FBF02FA0EF3AB40C5F1200E22FA03
:1019E0000EFE38BF43EA0E03AA40641C7CE750EAAF
:1019F000410E14BF52EA430E6FF000014FF4001580
:101A000015EB430F8EBF194615EB410F9DE7B4D878
:101A100030BDD4F10104B4F120050FDAC4F1200582
:101A2000520828BF42F0010210FA05FE01FA05F53E
:101A30007244E2BFE0402843E1400FE0352C9ADCDD
:101A4000C5F1200452EA400220FA05F218BF42F024
:101A5000010231FA05F0A1400A43002172F100426F
:101A600050F1000051EB0C0130BD00000048704700
:101A700010000020BBBBE1B1B2F5803F80F07E805A
:101A8000022A1ED98C46B1FBF2F102FB11C31B04E2
:101A900043EA1043B3FBF2FC02FB1C3380B240EA82
:101AA0000343B3FBF2F002FB103240EA0C40002388
:101AB0007047022A05D98446B0FBF2F002FB10C23F
:101AC00070474AB105D100F0010249085FEA3000D1
:101AD000704700220023704700F0E8B80B000200B6
:101AE000002100207047904271EB030CF6D3B3F550
:101AF000803F2FD2F0B5B3FA83F7B1FA81F4A7F1A2
:101B00000F0E3D1B5340CEF1200602FA0EF2F341B8
:101B10005340B5F10F0746D80F3C2C444140C4F167
:101B20002006A040F1414140B1FBF3F603FB161142
:101B3000A2FB0645001BA94102D2761E801859411E
:101B400080EA010221FA0EF362FA0EF200215A40F5
:101B50003046F0BD30B4B1FBF3FC03FB1C11A2FB1B
:101B60000C45001BA94103D2ACF1010C801859416E
:101B700030BC02460B46604600217047B2F1807FC0
:101B800065D3F0B5B2FA82F7B1FA81F4C7F10F0666
:101B90003D1B22FA06F307F1110EF24120355A409F
:101BA000B5F10F07B8D94140C4F12006A040F1417A
:101BB0004140B1FBF3FC03FB1C11A2FB0C45001BD5
:101BC000A94103D2BCF1010C801859410F2F12D347
:101BD0000F3FC90341EA5041B1FBF3F603FB161175
:101BE000A2FB0645D4EBC030A94102D2761E801874
:101BF000594146EACC3C07B34140C7F12006B84002
:101C0000F1414140B1FBF3F603FB1611A2FB06457F
:101C1000001BA94102D2761E8018594180EA0102B8
:101C200021FA0EF3C7F1200462FA0EF20CFA07F063
:101C30005A402CFA04F13043F0BD80EA010221FA47
:101C40000EF3002162FA0EF260465A40F0BD8C4657
:101C5000B1FBF2F102FB11C31B0243EA1063B3FBB9
:101C6000F2FC02FB1C331B024CEA002043EA106327
:101C7000B3FBF2FC02FB1C331B024CEA002043EADC
:101C80001063B3FBF2FC02FB1C331B024CEA002086
:101C900043EA1063B3FBF2FC02FB1C324CEA002067
:101CA00000237047012000F003B8000070470000D7
:101CB00080B5AFF30080024A11001820ABBEFBE7ED
:101CC00026000200F8B5044600270026002C71D03B
:101CD00004F12405686828B90021A960287020460D
:101CE00000F0B8FA204600F071FA6968CA065DD4BF
:101CF00001005BD1696821F4885141F002016960FB
:101D00006368E269217B1A43A36842EA4102B3F5A2
:101D1000807F14BF012B4FF48077237D012B0FD1DF
:101D200031B9A169491E47EA413747F4006707E026
:101D3000696841F020016960A96841F00101A9606A
:101D40002368596821F469410F435F60DFF8441448
:101D50002768BB680B401343BB60A168B1F5807F67
:101D600018BF012902D12669761E36052368D96A73
:101D700021F470010E43DE622468DFF81C14A368AE
:101D80000B40934207D10022AA600122696862F3E6
:101D900001016960F2BD686820F0020040F01000A7
:101DA0006860A86840F00100A86003E0686840F03F
:101DB000100068600120F2BDF8B500F012F901D101
:101DC0000220F2BD00F0FBF8010019D16A68DFF8CB
:101DD000CC1300F0E8F80DD1176817F4702F09D074
:101DE00000F0F1F800F0D6F846BFA96821F006012E
:101DF000002102E000F0C8F8F4E700F0EAF8F6E0AD
:101E0000BFE010B500F124042178012901D102209E
:101E100010BD0121217000F0D9F9010005D16168E0
:101E200021F4885141F0010161600021217010BD51
:101E30002DE9FC410546002000900C4600F03AFADE
:101E4000804628688268D10505F1240707D57A689D
:101E500042F020027A600020387001208FE0426852
:101E6000D1051CD4C06A10F4700F18D12A6811680B
:101E7000880769D414F1010FF8D02CB100F01AFAD8
:101E8000A0EB08008442F1D22A6811688807EDD4DB
:101E9000796841F0040179600020387052E0022036
:101EA00000F07CFA2968DFF8F862D1F810C0DFF89A
:101EB000F422DFF8F4321CEA060F02BFD1F80CC09E
:101EC000DFF8E8621CEA060F09D1D1F810C01CEA5D
:101ED000030F05BFC96811422926142612E0D1F864
:101EE00010C01CEA030F04BFCB68134207D00B6974
:101EF000DFF8BC22134204BFC968114201D1542645
:101F000000E0FC26DFF8AC120A68B2FBF0F25643A0
:101F100002E00098401C00900098B04214D214F1E6
:101F2000010FF6D02CB100F0C5F9A0EB08008442F7
:101F3000EFD20098B042ECD2796841F004017960A8
:101F400000223A7003201AE029686FF0120008603E
:101F50007A6842F400727A60286800F05EF804BF84
:101F6000287B00280AD1786820F48070786079682E
:101F7000C80403D4796841F0010179600020BDE80C
:101F8000F68100212970F2BD6F6827F480176F6019
:101F90004F687047790503D5696866F30D3169604C
:101FA0006968CE047047DFF810320A4042F480724C
:101FB0006A6001262168DFF80422994270470120F7
:101FC00028702046AFE0696841F4801169601768A5
:101FD0007047A96000262E706FF0020521680D6021
:101FE0007047044604F124052878012870472168C9
:101FF0008C6804F46024B4F5602F09D1994203D1B0
:10200000126812F4702F03D18A6842F4A00202E031
:102010008A6842F480128A60F2BD816801F460210E
:10202000B1F5602F70470068C06C7047F8B50023A9
:1020300000930A4600F1240300211C78012C01D1F1
:102040000220F2BD01241C701F2657681468056821
:10205000072F08D27F1E07EB8707D5F834C000F0A2
:102060005CF86C6316E00D2F08D2FF1F07EB8707A3
:10207000D5F830C000F051F82C630BE00D3F07EBB2
:10208000870CEF6A06FA0CF627EA060604FA0CF447
:102090003443EC6207261768946805680A2F08D352
:1020A0000A3F07EB4707D5F80CC000F036F8EC60A4
:1020B00006E007EB4707D5F810C000F02EF82C61BA
:1020C0001468102C18BF112C23D100683C4DA84275
:1020D0001AD13C48046825021BD4046844F4000467
:1020E00004601068102814D1324D374A2C68B4FBB4
:1020F000F2F20A2042430092009800281EBF009886
:10210000401E0090F8D104E00121586840F0200002
:102110005860002018700846F2BDBE402CEA060642
:10212000BC403443704738B5044600200090206816
:102130008168CA072BD481681E4A41F00101816081
:1021400021481168B1FBF0F001E00098401E0090BA
:1021500000980028F9D100F0ADF8054600F05AF8D3
:1021600015D400F0A7F8401B0328F7D300F052F86D
:10217000F4D404F12400416841F0100141600021D1
:10218000826842F0010282600170012032BD0020AD
:1021900032BD0000FDF7E1FFFE0E1FFFFEFDFFFF59
:1021A00024499224922449009224491224499200FD
:1021B000499224000C000020002801400424014022
:1021C000002401400824014040420F0038B5044675
:1021D00020688168CA071BD5816849084900816069
:1021E00000F068F8054600F015F811D500F062F827
:1021F000401B0328F7D300F00DF8F4D5A16A41F095
:102200001001A162E06A40F00100E062012032BDED
:10221000002032BD20688168C8077047214881B01E
:10222000026842F001020260016801F001010091C0
:10223000009A41681C4A41F0805141600221406887
:1022400000F0805000900098106861F31A601060F0
:1022500001B0704718B585B004461021002201A8CE
:1022600000F006F9236811498B4219D10D48026824
:1022700042F400720260016801F400710091009A5A
:10228000016841F0080101600322006800F00800C5
:10229000009001A9009B01920292054800F0F2F81B
:1022A00006B010BD18100240040001400024014097
:1022B000000C014001484068704700BF000000204A
:1022C0002DE9FC4106465F4D3178C80750D5A96914
:1022D0000024C80009D4A96941F08051A9610124F2
:1022E000A86900F0805000900098574F3868C105E9
:1022F00011D4386840F480703860FFF7DBFF804607
:102300003868C10507D4FFF7D5FFA0EB08006528A2
:10231000F6D303203FE0E86910F440701EBF7168F7
:1023200001F44071884218D04849E86901220A60E6
:10233000002320F440700B60E861C0070DD5FFF763
:10234000B9FF0746E969880707D4FFF7B3FFC01B49
:1023500041F289318842F5D3DBE7EA69706822F4FB
:1023600040720243EA611CB1A86920F08050A86164
:102370003178880705D52968B06821F440410143C8
:1023800029603178C80605D52968F06821F48001F4
:10239000014329600020BDE8F681000010B500214E
:1023A00001282B4C23D0022841D0102848D1606846
:1023B0002268D30144D500BF28A2C0F38341C003E3
:1023C000515C09D5636800BF28A22248C3F340438B
:1023D000D25CB0FBF2F001E008461F49414360685F
:1023E00042022DD449000320B1FBF0F128E0206A1D
:1023F00040F202320240B2F5817F08BF4FF4004143
:102400001ED000F44072B2F5007F05D1636A9A07CE
:1024100048BF49F6404113D400F44070B0F5407F06
:102420000ED1226890030BD54FF2244108E000F052
:1024300041FB6168C1F38131491C4900B0FBF1F1F6
:10244000084610BD041002400070004040044242A3
:102450000010024000127A0000093D00020304054A
:10246000060708090A0B0C0D0E0F101001020000E0
:102470004018491C1CBFB1F1010100F8012DF9D130
:10248000704700002DE9F84F00270024684BDFF863
:10249000A481DFF8A491DFF8A4B14FF00F0A02463F
:1024A00010E0D3F800E000EA0E00186009E0C3F87D
:1024B00004C04D68ED03F4D518684EEA000EC3F869
:1024C00000E07F1C0D6835FA07F000F0AB800120BA
:1024D00000FA07FC0CEA050EE645F2D14D683DB363
:1024E000012D1AD0022D1DD0032D2ED0112D16D066
:1024F000122D1AD0524885421CBF5248854217D02F
:10250000514885421CBF5148854211D050488542F0
:102510001CBF504885420BD018E0CC6816E0CC6850
:10252000241D13E0CC68083410E0CC680C340DE0B6
:10253000886808B9042409E0012819BF0824C2F8F2
:1025400014C00824C2F810C000E00024BEF5807F4B
:1025500003D210464FEA870C04E0A7F10805101DCE
:102560004FEA850C06680AFA0CF5AE4304FA0CF53E
:1025700045EA060CC0F800C04868C000A1D5D9F8EB
:1025800000C04CF0010CC9F800C0BD00D9F8000033
:1025900000F00100009005F00C0C0098B80858F805
:1025A00020600AFA0CF5AE435A4508BF00250ED04C
:1025B000294DAA4208BF012509D0284DAA4208BFCB
:1025C000022504D0264DAA420CBF0325042505FA96
:1025D0000CF545EA060C48F820C06FEA0E004D687D
:1025E000ED0204D59D684EEA05059D6005E0D3F82F
:1025F00008C000EA0C0CC3F808C04D68D3F80CC042
:10260000AD024CBF4EEA0C0C00EA0C0CC3F80CC037
:102610004D68D3F804C0AD034CBF4EEA0C0C00EA81
:102620000C0C44E7BDE8F18F02B909040161704761
:102630000004014008000140181002400008014059
:1026400000001110000012100000211000002210E4
:102650000000311000003210000C01400010014059
:10266000001401402DE9F843040016D02078DFF86B
:102670005874C10713D5786800F00C00042807D0FF
:10268000786800F00C00082840D17968C8033DD56F
:102690003A68910303D56068002800F05B812078D8
:1026A000DFF83464810719D5786810F00C0F07D073
:1026B000786800F00C0008285FD17868C1035CD40A
:1026C0003868810703D52069012840F043813968C3
:1026D000606921F0F80141EAC001396021780807FA
:1026E00078D5A069DFF8F413002800F09E8001225D
:1026F0000A60FFF7DFFD0546796A88075BD4FFF7BC
:10270000D9FD401B0228F7D9032026E16068B0F507
:10271000803F03D1386840F4803013E058B1B0F501
:10272000A02F08D1386840F4802038603A6842F41D
:1027300080323A6007E0396821F4803139603868C6
:1027400020F480203860606858B1FFF7B3FD05467B
:1027500039688803A3D4FFF7ADFD401B6528F7D384
:10276000D2E7FFF7A7FD05463968880397D5FFF73D
:10277000A1FD401B6528F7D3C6E7206968B1012198
:102780003160FFF797FD0546386881079FD4FFF752
:1027900091FD401B0228F7D9B6E700223260FFF70F
:1027A00089FD05463968880798D5FFF783FD401BEA
:1027B0000228F7D9A8E7DFF814231168C9084FF4F5
:1027C0007A70B1FBF0F0009000BF0098411E002825
:1027D0000091F9D1207841076ED5F9690025C8002C
:1027E00009D4F96941F08051F9610125F86900F0D7
:1027F000805000900098DFF8E882D8F80000C1050A
:1028000020D4D8F8000040F48070C8F80000FFF72A
:1028100051FD8146D8F80010C80513D4FFF74AFDD2
:10282000A0EB09006528F5D36EE70860FFF742FDCD
:102830000546796A8807CDD5FFF73CFD401B022885
:10284000F7D961E7E068012808D008B9386A09E0DB
:102850000528386A06D140F004003862386A40F032
:10286000010005E0400840003862386A20F00400AA
:10287000386241F28938E06860B1FFF71BFD81469C
:10288000396A880713D4FFF715FDA0EB090040450E
:10289000F6D339E7FFF70EFD8146396A880706D57A
:1028A000FFF708FDA0EB09004045F6D32CE71DB16A
:1028B000F86920F08050F861E06900284CD0796810
:1028C00001F00C01082938D002282AD100F047F87D
:1028D00005463968880105D5FFF7ECFC401B022846
:1028E000F7D911E7206AB0F5803F05D17968A06873
:1028F00021F40031014379607A68206A616A22F428
:10290000741202430A437A60012000F029F8044659
:102910003868810120D4FFF7CDFC001B0228F7D9CD
:10292000F2E600F01CF804463868810114D5FFF780
:10293000C1FC001B0228F7D9E6E601280AD0786816
:10294000226A00F48031914202BF00F47010616A83
:10295000884201D0012000E00020BDE8F283002081
:102960003066FFF7A7BC2DE9F041040088465FD030
:102970005C4E306800F00700404509D23168C90854
:1029800048EAC1013160306800F0070040454FD18E
:1029900021684D4D880712D5490703D5686840F472
:1029A000E06068602078010703D5686840F46050F3
:1029B00068606968A06821F0F001014369602178CE
:1029C000C80726D56068012802D129688A0303E078
:1029D000022803D129688A0103D429E02B689907CA
:1029E00026D56A68920840EA82006860FFF762FCB8
:1029F00007466868616800F00C00B0EB810F08D0F2
:102A0000FFF758FCC01B41F289318842F1D3032003
:102A100032E0316801F0070188450BD23068C00808
:102A200048EAC0003060316801F00701414501D03B
:102A3000012021E02178480705D56968E06821F484
:102A4000E0610143696021780A0706D56868216959
:102A500020F4605040EAC100686000F00FF86A6836
:102A60002149C2F303128B5C1849D8400860194809
:102A7000006800F04BF80020BDE8F0811B491448C5
:102A80000A6802F00C03082B00D0704710B500BF95
:102A900019A4C2F38343D203E35C08D50968584301
:102AA00019A3C1F34041595CB0FBF1F010BD1048CF
:102AB000584310BD05480D4B00681A680D49C2F314
:102AC000C222895CC8407047001002400C00002000
:102AD00000127A00080000200000424280044242B6
:102AE0000070004000200240403300080410024003
:102AF00000093D00603300080203040506070809C9
:102B00000A0B0C0D0E0F10100102000038B50D4D10
:102B10000D4A297804464FF47A731068B3FBF1F13B
:102B2000B0FBF1F000F048F850B9102C08D20022A8
:102B300021464FF0FF3000F020F8AC60002032BD9D
:102B4000012032BD000000200C0000200A0101001D
:102B500002D4224B5A547047214801F00F0101441E
:102B600001F8042C70471F490A6860F30A2240F2FA
:102B7000FA5060F31F420A60704770B5194C236821
:102B8000C3F302230124C3F10705052D2FBF0F2630
:102B9000C3F1070604FA06F6761E1D1D072D34BF85
:102BA0000023DB1E3140994004FA03F3BDE8704076
:102BB0005B1E1A401143C9E7401EB0F1807F01D36C
:102BC0000120704708494860F0220848027000233D
:102BD0008B6007220A6000207047000000E400E0DC
:102BE00018ED00E00CED00E010E000E023ED00E067
:102BF0002DE9F84185B000F051F900F0FFF81021FF
:102C000000226846FFF734FC6E486F4D02686F4C37
:102C10006F4F42F020020260016801F02001049130
:102C2000049B026842F004020260016801F00401A2
:102C30000491049A016841F00801016000220068D3
:102C400000F008000490FF2104982846FFF7ECFCF0
:102C50000022E0212046FFF7E7FC01210191FF203F
:102C60000221009000220391029269462846FFF754
:102C700009FC01220192E020002100900291022231
:102C8000039269462046FFF7FDFB00210091019168
:102C900002914FF480704F493960B8604FF4602161
:102CA000F961002202213A733A757A60396100F0C5
:102CB0009CF808B100F0DAF8082006210090012203
:102CC00000F096F808B100F0D1F809200721009033
:102CD000022200F08DF808B100F0C8F800F020F9E9
:102CE00000F055F900F07CF80FF284100FF29C18F8
:102CF00062A6394D00F022F94FF4FA6000F056F95F
:102D000000F045F94FF06634012000F06DF83846C8
:102D1000FFF752F80A213846FFF78AF8F8B9384623
:102D2000FFF781F900F056F92C4900F061F900F045
:102D3000EBF922462B46FEF7C3FD00F009FA386393
:102D400000F0E2F902460B46314607F1380000F088
:102D500033FA00F045F807F1380000F0EFF8384694
:102D6000FFF74FF8022000F03FF83846FFF724F84D
:102D70000A213846FFF75CF800BB3846FFF753F9E5
:102D800000F028F9154900F033F900F0BDF92246AA
:102D90002B46FEF795FD00F0DBF9786300F0B4F9FF
:102DA00002460B46414607F14C0000F005FA0121AE
:102DB00000F017F807F14C0000F0C0F83846FFF7B4
:102DC00020F8A1E71810024000080140000C014063
:102DD000480000200024014066660A4000F07F455C
:102DE0000021002000F0B8B838613846FEF76ABF0D
:102DF0000291019269463846FFF718B900B593B0C1
:102E00002821002209A8FFF733FB1421002268467D
:102E1000FFF72EFB1021002205A8FFF729FB012058
:102E200009904FF4803200210A92109109A8FFF70F
:102E300019FC08B100F01AF80F20009001220021BF
:102E400001920291039104916846FFF78CFD08B14D
:102E500000F00CF8022200210592079105A8FFF767
:102E60002FFA08B100F002F813B000BD72B6FEE709
:102E70004869204144432E2E2E0000004144433136
:102E8000203D25302E3266200000000041444332B0
:102E9000203D25302E3266200000000080B5074816
:102EA000016841F0100101600320FFF75CFE0F2074
:102EB000FFF72CFEFFF7B2F9002002BD0020024010
:102EC00070B500F06EF8144C002204E070B500F00C
:102ED00068F8114C012220212046FFF7A5FB0022B3
:102EE00040212046FFF7A0FB0C4D0022FF21284681
:102EF000FFF79AFB012231462846FFF795FB012296
:102F000080212046FFF790FB2046BDE8704000225C
:102F10008021FFF789BB0000000C01400008014040
:102F200080B50A2000F042F83820FFF7C9FF0620DC
:102F3000FFF7C6FFBDE802400C20C1E710B504460C
:102F400000F030F803E014F8010BFFF7BFFF207822
:102F50000028F8D110BD000038B505460C4600F039
:102F600021F8032C12D8DFE804F00205080BA5F1C4
:102F7000800007E0A5F1400004E0A5F16C0001E04D
:102F8000A5F12C00BDE83240C0B299E731BD80B553
:102F900000F008F80120FFF793FFBDE8024002208F
:102FA0008EE70646012000F001B8000038B505465E
:102FB000FFF780F915F1010F044602D004490878A3
:102FC0004519FFF777F9001BA842FAD331BD00BFBE
:102FD0000000002050B1B0FA80F18840C1F19D019D
:102FE000C905020672F1004241EB10207047000053
:102FF0004FF0FF0C1CEAD0531DBF1CEAD1526345B1
:10300000624543E09B1A5FEACC7280EA010C42EA17
:1030100001211CEA020C42EA0020421A38BF01EBEF
:10302000420253F17E034FEA1121B2FBF1F001FBA2
:10303000102260F3D63C4FEA0222B2FBF1F001FB12
:10304000102260F3CE1C4FEA0222B2FBF1F006DD43
:10305000FF2B29DA5CEA500040EBC3507047C3F104
:10306000020301FB1022192B40EA4C010CF0004C2A
:1030700041F0807121DC21FA03F0C3F12003994073
:10308000114371F1004250EB0C00704763451ABFC9
:103090000CEAD152624512E080EA010C00180CF0F3
:1030A000004C06D049181AD10CF0004C4CF0FF40EF
:1030B0007047C94208BF6FEA020C6046704763451B
:1030C00006D1B2EB0C02F5D001F000414840704748
:1030D0004A0212BF0846484000F0004070474AB913
:1030E0000902B1FA81F2914043B19B18C00140F04E
:1030F000004092E7C90141F0004152420002B0FA9B
:1031000080F39840D31A88E7C0F3C75181B1FF29F3
:1031100006D0C110400721F0E04101F16051704735
:1031200041020CBF40F4E0016FF000410020704705
:1031300000F0004100020AD0B0FA80FC00FA0CF066
:1031400001F16051A1EB0C5101EBD021400570471A
:1031500001F000428B1AA3F16051B1F5801F0ADB28
:10316000B1F17F6F1FD242EAC102C10071F100418B
:1031700042EB507070470B15C3F10903212B10D29D
:10318000890241EA905180020128494141F0004101
:1031900021FA03F0C3F12003994071F1004150413D
:1031A0007047100070476FF0000013EB103F5CBFDA
:1031B000000E42EAC05070470CB430B583B00A46E6
:1031C00006A90291044600250194009502AB01A9CD
:1031D000084878441E30FCF78CFF01990D700028D8
:1031E0004EBF04460198041B204603B030BC5DF876
:1031F0000CFB00BF03DEFFFF010000000000000029
:103200001000000000127A00761100087611000804
:103210007611000876110008761100087611000872
:1032200076110008FFFFFFFFFFFFFFFF7610000889
:103230007611000876110008FFFFFFFFFFFF000076
:1032400030B4002412E050F8043BDA0744BF4B448A
:103250005B1E091F042943F8044BFAD21A468D0756
:1032600044BF1C80921CCB0748BF147050F8041B4D
:103270000029E8D130BC704710B5034A7A440832BF
:10328000024C7C44A41D03E01C0000003C00000034
:1032900004E01168101D114488470246A242F8D18B
:1032A00010BD00009DFFFFFF6400000048000020EB
:1032B0000000000003DDFFFF480000003CFFFFFFAF
:1032C000000000200000000000F00DF8002801D0F0
:1032D000FFF7D2FFAFF300800020AFF30080FFF7CD
:1032E00087FC00F002F80120704700F001B80000F0
:1032F00007463846FEF7DCFCFBE7000005480146C0
:1033000003B4684680F30988AFF30080AFF3008010
:10331000FFF7DAFFA5EDF5FEFEE7FEE7FEE7FEE7C5
:10332000FEE770477047704700F000B8024A5168E6
:10333000107841185160704700000020704700006D
:103340000000000000000000010203040607080955
:1033500001488047014800473D330008FD3200081E
:103360000000000001020304FFF7FEBFFFF7FEBFED
:10337000FFF7FEBFFFF7FEBFFFF7FEBFFFF7FEBF81
:10338000FFF7FEBFFFF7FEBFFFF7FEBFFFF7FEBF71
:10339000FFF7FEBFFFF7FEBFFFF7FEBFFFF7FEBF61
:1033A000FFF7FEBFFFF7FEBFFFF7FEBFFFF7FEBF51
:1033B000FFF7FEBFFFF7FEBFFFF7FEBFFFF7FEBF41
:1033C000FFF7FEBFFFF7FEBFFFF7FEBFFFF7FEBF31
:1033D000FFF7FEBFFFF7FEBFFFF7FEBFFFF7FEBF21
:1033E000FFF7FEBFFFF7FEBFFFF7FEBFFFF7FEBF11
:1033F000FFF7FEBFFFF7FEBFFFF7FEBFFFF7FEBF01
:10340000FFF7FEBFFFF7FEBFFFF7FEBFFFF7FEBFF0
:04341000FFF7FEBF05
:04000005080032FDC0
:00000001FF
