:020000040800F2
:1000000010040020D90A0008A10A0008A30A000869
:10001000A50A0008A70A0008A90A000800000000B5
:10002000000000000000000000000000AB0A000813
:10003000AD0A000800000000AF0A0008B10A00087D
:10004000F90A0008FD0A0008010B0008050B00086A
:10005000090B00080D0B0008110B0008150B000818
:10006000190B00081D0B0008210B0008250B0008C8
:10007000290B00082D0B0008310B0008350B000878
:10008000390B00083D0B0008410B0008450B000828
:10009000490B00084D0B0008510B0008550B0008D8
:1000A000590B00085D0B0008610B0008650B000888
:1000B000690B00086D0B0008710B0008750B000838
:1000C000790B00087D0B0008810B0008850B0008E8
:1000D000890B00088D0B0008910B0008950B000898
:1000E000990B00089D0B0008A10B00082DE9F843AF
:1000F000040016D02078DFF84474C10713D578685F
:1001000000F00C00042807D0786800F00C000828E4
:1001100040D17968C8033DD53A68910303D560683A
:10012000002800F05B812078DFF82064810719D572
:10013000786810F00C0F07D0786800F00C000828E1
:100140005FD17868C1035CD43868810703D5206922
:10015000012840F043813968606921F0F80141EAE3
:10016000C00139602178080778D5A069DFF8E0136D
:10017000002800F09E8001220A6000F013FA054674
:10018000796A88075BD400F00DFA401B0228F7D982
:10019000032026E16068B0F5803F03D1386840F461
:1001A000803013E058B1B0F5A02F08D1386840F482
:1001B000802038603A6842F480323A6007E039685B
:1001C00021F480313960386820F48020386060681C
:1001D00058B100F0E7F9054639688803A3D400F068
:1001E000E1F9401B6528F7D3D2E700F0DBF90546BB
:1001F0003968880397D500F0D5F9401B6528F7D3F7
:10020000C6E7206968B10121316000F0CBF90546ED
:10021000386881079FD400F0C5F9401B0228F7D940
:10022000B6E70022326000F0BDF90546396888075C
:1002300098D500F0B7F9401B0228F7D9A8E7DFF8F6
:1002400000231168C9084FF47A70B1FBF0F00090F8
:1002500000BF0098411E00280091F9D12078410785
:100260006ED5F9690025C80009D4F96941F08051BB
:10027000F9610125F86900F0805000900098DFF8DE
:10028000D482D8F80000C10520D4D8F8000040F48A
:100290008070C8F8000000F085F98146D8F8001099
:1002A000C80513D400F07EF9A0EB09006528F5D34A
:1002B0006EE7086000F076F90546796A8807CDD5C3
:1002C00000F070F9401B0228F7D961E7E0680128C7
:1002D00008D008B9386A09E00528386A06D140F024
:1002E00004003862386A40F0010005E04008400030
:1002F0003862386A20F00400386241F28938E068D8
:1003000060B100F04FF98146396A880713D400F0D4
:1003100049F9A0EB09004045F6D339E700F042F96E
:100320008146396A880706D500F03CF9A0EB090040
:100330004045F6D32CE71DB1F86920F08050F861F4
:10034000E06900284CD0796801F00C01082938D008
:1003500002282AD100F047F805463968880105D5FA
:1003600000F020F9401B0228F7D911E7206AB0F508
:10037000803F05D17968A06821F40031014379609C
:100380007A68206A616A22F4741202430A437A602E
:10039000012000F029F804463868810120D400F0DB
:1003A00001F9001B0228F7D9F2E600F01CF8044618
:1003B0003868810114D500F0F5F8001B0228F7D940
:1003C000E6E601280AD07868226A00F4803191427A
:1003D00002BF00F47010616A884201D0012000E081
:1003E0000020BDE8F2830020306600F0DBB82DE984
:1003F000F041040088465FD0574E306800F0070097
:10040000404509D23168C90848EAC1013160306805
:1004100000F0070040454FD12168484D880712D5AC
:10042000490703D5686840F4E060686020780107F8
:1004300003D5686840F4605068606968A06821F07E
:10044000F001014369602178C80726D5606801285A
:1004500002D129688A0303E0022803D129688A01AE
:1004600003D429E02B68990726D56A68920840EAE8
:100470008200686000F096F807466868616800F0DE
:100480000C00B0EB810F08D000F08CF8C01B41F2DB
:1004900089318842F1D3032032E0316801F007014D
:1004A00088450BD23068C00848EAC0003060316827
:1004B00001F00701414501D0012021E021784807E2
:1004C00005D56968E06821F4E0610143696021783D
:1004D0000A0706D56868216920F4605040EAC10027
:1004E000686000F00FF86A681C49C2F303128B5C65
:1004F0001349D84008601448006800F059F80020FB
:10050000BDE8F08116490F480A6802F00C03082B79
:1005100000D0704710B500BF13A4C2F38343D203C9
:10052000E35C08D50968584313A3C1F34041595C03
:10053000B0FBF1F010BD0B48584310BD0010024055
:100540000C00002000127A00080000200000424247
:10055000800442420070004000200240C80A0008A7
:100560000410024000093D000203040506070809C3
:100570000A0B0C0D0E0F101001020EE0026843680A
:10058000024408305FEAC37C44BF4B445B1E52F810
:1005900004CB43F804CB091FF9D150F8041B002900
:1005A000ECD1704701484068704700BF0000002050
:1005B00038B50D4D0D4A297804464FF47A7310680A
:1005C000B3FBF1F1B0FBF1F000F048F850B9102C9A
:1005D00008D2002221464FF0FF3000F020F8AC6036
:1005E000002032BD012032BD000000200C000020A0
:1005F0000A01010002D4224B5A547047214801F0ED
:100600000F01014401F8042C70471F490A6860F388
:100610000A2240F2FA5060F31F420A60704770B538
:10062000194C2368C3F302230124C3F10705052DE8
:100630002FBF0F26C3F1070604FA06F6761E1D1D0E
:10064000072D34BF0023DB1E3140994004FA03F329
:10065000BDE870405B1E1A401143C9E7401EB0F16F
:10066000807F01D30120704708494860F022084884
:10067000027000238B6007220A6000207047000090
:1006800000E400E018ED00E00CED00E010E000E018
:1006900023ED00E02DE9F84F00270024684BDFF838
:1006A000A481DFF8A491DFF8A4B14FF00F0A02464D
:1006B00010E0D3F800E000EA0E00186009E0C3F88B
:1006C00004C04D68ED03F4D518684EEA000EC3F877
:1006D00000E07F1C0D6835FA07F000F0AB800120C8
:1006E00000FA07FC0CEA050EE645F2D14D683DB371
:1006F000012D1AD0022D1DD0032D2ED0112D16D074
:10070000122D1AD0524885421CBF5248854217D03C
:10071000514885421CBF5148854211D050488542FE
:100720001CBF504885420BD018E0CC6816E0CC685E
:10073000241D13E0CC68083410E0CC680C340DE0C4
:10074000886808B9042409E0012819BF0824C2F800
:1007500014C00824C2F810C000E00024BEF5807F59
:1007600003D210464FEA870C04E0A7F10805101DDC
:100770004FEA850C06680AFA0CF5AE4304FA0CF54C
:1007800045EA060CC0F800C04868C000A1D5D9F8F9
:1007900000C04CF0010CC9F800C0BD00D9F8000041
:1007A00000F00100009005F00C0C0098B80858F813
:1007B00020600AFA0CF5AE435A4508BF00250ED05A
:1007C000294DAA4208BF012509D0284DAA4208BFD9
:1007D000022504D0264DAA420CBF0325042505FAA4
:1007E0000CF545EA060C48F820C06FEA0E004D688B
:1007F000ED0204D59D684EEA05059D6005E0D3F83D
:1008000008C000EA0C0CC3F808C04D68D3F80CC04F
:10081000AD024CBF4EEA0C0C00EA0C0CC3F80CC045
:100820004D68D3F804C0AD034CBF4EEA0C0C00EA8F
:100830000C0C44E7BDE8F18F02B90904016170476F
:100840000004014008000140181002400008014067
:1008500000001110000012100000211000002210F2
:100860000000311000003210000C01400010014067
:100870000014014018B585B000F070F800F042F89F
:100880001021002201A800F07BF81948194C0268D9
:1008900042F020020260016801F020010091009AFC
:1008A000016841F0040101600022006800F00400CA
:1008B00000900221009800F022F80220012101900E
:1008C000029100220490039201A92046FFF7E2FE64
:1008D000094C012200F012F84FF47A7000F05AF837
:1008E000002200F00BF84FF47A7000F053F8F0E7B4
:1008F0001810024000080140000C01404021204631
:10090000FFF79ABF00B58FB02821002205A800F09C
:1009100037F814210022684600F032F80222012143
:1009200005920991102200210A920C9105A8FFF767
:10093000DDFB08B100F010F80F200090002200212C
:1009400001920291039204916846FFF750FD08B1AD
:1009500000F002F80FB000BD72B6FEE780B50748A0
:10096000016841F0100101600320FFF74EFE0F20E7
:10097000FFF71EFE00F022F8002002BD002002401A
:100980004018491C1CBFB1F1010100F8012DF9D13B
:100990007047000038B50546FFF704FE15F1010F5A
:1009A000044602D0044908784519FFF7FBFD001BF7
:1009B000A842FAD331BD00BF000000200D4881B02D
:1009C000026842F001020260016801F00101009139
:1009D000009A4168084A41F0805141600221406814
:1009E00000F0805000900098106861F31A60106069
:1009F00001B07047181002400400014010B5034ACE
:100A00007A440832024C7C44A41D03E01C00000020
:100A10002C00000004E01168101D114488470246B4
:100A2000A242F8D110BD000053FBFFFF10000000F0
:100A3000B8000000000000200000000000F00DF8E9
:100A4000002801D0FFF7DAFFAFF300800020AFF3FA
:100A50000080FFF70FFF00F002F80120704700F060
:100A600001B800000746384600F002F8FBE7000036
:100A700080B5AFF30080024A11001820ABBEFBE73F
:100A8000260002000548014603B4684680F3098841
:100A9000AFF30080AFF30080FFF7D0FFA5EDF5FEC8
:100AA000FEE7FEE7FEE7FEE7FEE7704770477047A8
:100AB00000F000B8024A5168107841185160704740
:100AC000000000207047000000000000000000004F
:100AD000010203040607080901488047014800474E
:100AE000C50A0008850A0008010000000000000097
:100AF000100000000024F400FFF7FEBFFFF7FEBF68
:100B0000FFF7FEBFFFF7FEBFFFF7FEBFFFF7FEBF19
:100B1000FFF7FEBFFFF7FEBFFFF7FEBFFFF7FEBF09
:100B2000FFF7FEBFFFF7FEBFFFF7FEBFFFF7FEBFF9
:100B3000FFF7FEBFFFF7FEBFFFF7FEBFFFF7FEBFE9
:100B4000FFF7FEBFFFF7FEBFFFF7FEBFFFF7FEBFD9
:100B5000FFF7FEBFFFF7FEBFFFF7FEBFFFF7FEBFC9
:100B6000FFF7FEBFFFF7FEBFFFF7FEBFFFF7FEBFB9
:100B7000FFF7FEBFFFF7FEBFFFF7FEBFFFF7FEBFA9
:100B8000FFF7FEBFFFF7FEBFFFF7FEBFFFF7FEBF99
:100B9000FFF7FEBFFFF7FEBFFFF7FEBFFFF7FEBF89
:040BA000FFF7FEBF9E
:0400000508000A8560
:00000001FF
