:020000040800F2
:1000000058040020491300081113000813130008B6
:10001000151300081713000819130008000000004A
:100020000000000000000000000000001B1300089A
:100030001D130008000000001F1300082113000812
:10004000691300086D130008711300087513000888
:10005000791300087D130008811300088513000838
:10006000891300088D1300089113000895130008E8
:10007000991300089D130008A1130008A513000898
:10008000A9130008AD130008B1130008B513000848
:10009000B9130008BD130008C1130008C5130008F8
:1000A000C9130008CD130008D1130008D5130008A8
:1000B000D9130008DD130008E1130008E513000858
:1000C000E9130008ED130008F1130008F513000808
:1000D000F9130008FD1300080114000805140008B6
:1000E000091400080D1400081114000838B50400A4
:1000F00001D1012032BD00F02BF818B900F024F82E
:1001000000F09EFAFFE702206870211D206800F0D1
:1001100049F90121A9720120A870E970287169715B
:10012000A871E971287269726870002032BD38B513
:10013000040001D1012032BD00F00AF818B900F026
:1001400003F800F0B9FADEE7002129702046704775
:1001500004F13C056878704710B5044604F13E0090
:1001600009B9027807E0042908BF427803D00829BA
:100170000CBF8278C278012A01D0012010BD11B9CC
:10018000022202700AE0042902D10222427005E034
:10019000082907BF022282700223C370206801224F
:1001A00000F00FFA00F021F818BFB1F1804F06D02F
:1001B00000F017F81CBFDFF85800814202D100F0B0
:1001C0000BF801D000F002F8002010BD0A461068BC
:1001D00040F0010008607047886800F007000628BA
:1001E0007047DFF82820914270472268DFF8180036
:1001F000824205D1DFF81C20116841F400411160F2
:100200002168814270470000002C0140000400403A
:1002100000080040442C0140002084F83C0028469F
:10022000704770B500F058F801D1022070BD012070
:1002300084F83C0032B1042A15D0082A25D00C2AB3
:1002400034D045E0206800F0E3F82168886940F088
:1002500008008861886920F0040088618A69306933
:1002600002438A6135E0206800F0F4F82068816973
:1002700041F400618161816921F48061816181695A
:10028000326941EA0221816123E0206800F00BF924
:100290002168C86940F00800C861C86920F00400FE
:1002A000C861CA6930690243CA6112E0206800F07F
:1002B00022F92068C16941F40061C161C16921F47A
:1002C0008061C161C169326941EA0221C16100E016
:1002D0000125FFF7A1FF70BD0446002594F83C00FE
:1002E00001280E46704770B5044604F13C0600250F
:1002F0003078012801D1022070BD01223270022025
:1003000070702368DFF83C029A6802409A600868BF
:10031000020018BF102830D0202818BF30282CD059
:10032000402826D0502819D060281BD0702806D02D
:10033000B0F5805F27D0B0F5005F07D022E000F075
:100340002CF82168886840F0770005E000F025F877
:100350002168886840F48040886014E000F019F853
:1003600050210BE0CA684968206800F006F9602156
:1003700004E000F00EF8402100E00146206800F0A3
:100380000EF900E00125012171700020307028462F
:1003900070BDCA6849682068DEE0CB684A68896831
:1003A000206804E170B50368674C684E684AA04253
:1003B00018BFB0F1804F03D0904218BFB04209D1AE
:1003C00023F070054B682B43A0421CBFB0F1804F57
:1003D000904201D0B04203D123F44072CB68134362
:1003E0004A6923F0800313430360A0428B68C36211
:1003F0000A68826202D10A6956490A600123436190
:100400000169CA0703D5016949084900016170BD46
:1004100030B500F090F822F00202436885690C685C
:1004200025F073052C438D681543474A90420BD144
:1004300023F44073CA6825F0080515434A691A4336
:100440008B6925F004051343436084614968416367
:10045000056230BD70B5046A026A22F010020262C1
:1004600024F02004456883690A688E6823F4E64313
:1004700043EA0223344A904244EA06140DD1CA6882
:100480004E6924F0800444EA02148A6925F4406528
:10049000164324F0400445EA8605456083614968B7
:1004A0008163046270BD70B5046A026A22F48072CE
:1004B000026224F400744568C2690B688E6822F0F9
:1004C00073021343204A904244EA06240DD1CA68BD
:1004D0004E6924F4006444EA02248A6925F44055F4
:1004E000164324F4806445EA06154560C3614968F3
:1004F000C163046270BD70B5036A026A22F480525F
:10050000026223F400534468C2690D688E6822F4C5
:10051000E64242EA05220C4DA84243EA063304D1E2
:100520004D6924F4804444EA85144460C2614968FA
:100530000164036270BD026A036A5B085B000362C8
:10054000704700008800FFFF002C014000080040B9
:1005500000040040302C014010B5036A046A6408AE
:100560006400046223F00A03846924F0F00444EA7E
:10057000021484611943016210BD10B5036A046A54
:1005800024F01004046223F0A003846924F470446E
:1005900044EA0234846143EA0113036210BD8268B5
:1005A00022F07002114341F007018160704710B5DD
:1005B000846824F47F442143114341EA032181608C
:1005C00010BD10B501F01F01046A01238B409C434C
:1005D000046202FA01F1046A2143016210BD0EE0D7
:1005E00002684368024408305FEAC37C44BF4B445E
:1005F0005B1E52F804CB43F804CB091FF9D150F825
:10060000041B0029ECD17047274881B0026842F0F2
:1006100001020260016801F001010091009A416845
:10062000224A41F0805141600221406800F0805030
:1006300000900098106861F31A60106001B0704774
:1006400081B001681A48814209D11748016841F414
:1006500000610160006800F400600090009801B043
:10066000704718B585B004461021002201A800F09B
:1006700025F823680E498B4213D10B48026842F0DB
:10068000040202600222006800F0040000904FF4AF
:100690008070009901900292049201A9054800F02F
:1006A00017F806B010BD0000181002400400014009
:1006B000002C014000080140704700004018491C10
:1006C0001CBFB1F1010100F8012DF9D17047000004
:1006D0002DE9F84F00270024684BDFF8A481DFF8EC
:1006E000A491DFF8A4B14FF00F0A024610E0D3F84E
:1006F00000E000EA0E00186009E0C3F804C04D688D
:10070000ED03F4D518684EEA000EC3F800E07F1C34
:100710000D6835FA07F000F0AB80012000FA07FC05
:100720000CEA050EE645F2D14D683DB3012D1AD015
:10073000022D1DD0032D2ED0112D16D0122D1AD022
:10074000524885421CBF5248854217D051488542C5
:100750001CBF5148854211D0504885421CBF5048AB
:1007600085420BD018E0CC6816E0CC68241D13E05D
:10077000CC68083410E0CC680C340DE0886808B907
:10078000042409E0012819BF0824C2F814C0082471
:10079000C2F810C000E00024BEF5807F03D21046EE
:1007A0004FEA870C04E0A7F10805101D4FEA850CFD
:1007B00006680AFA0CF5AE4304FA0CF545EA060C95
:1007C000C0F800C04868C000A1D5D9F800C04CF0FE
:1007D000010CC9F800C0BD00D9F8000000F001000C
:1007E000009005F00C0C0098B80858F820600AFA40
:1007F0000CF5AE435A4508BF00250ED0294DAA423C
:1008000008BF012509D0284DAA4208BF022504D0FF
:10081000264DAA420CBF0325042505FA0CF545EA2E
:10082000060C48F820C06FEA0E004D68ED0204D5B2
:100830009D684EEA05059D6005E0D3F808C000EA12
:100840000C0CC3F808C04D68D3F80CC0AD024CBF07
:100850004EEA0C0C00EA0C0CC3F80CC04D68D3F83F
:1008600004C0AD034CBF4EEA0C0C00EA0C0C44E78C
:10087000BDE8F18F02B9090401617047000401402D
:10088000080001401810024000080140000011104B
:100890000000121000002110000022100000311092
:1008A00000003210000C0140001001400014014013
:1008B0002DE9F843040016D02078DFF84474C1070E
:1008C00013D5786800F00C00042807D0786800F091
:1008D0000C00082840D17968C8033DD53A689103D7
:1008E00003D56068002800F05B812078DFF8206481
:1008F000810719D5786810F00C0F07D0786800F0E0
:100900000C0008285FD17868C1035CD4386881077F
:1009100003D52069012840F043813968606921F0DE
:10092000F80141EAC00139602178080778D5A0694B
:10093000DFF8E013002800F09E8001220A6000F03A
:10094000FFF90546796A88075BD400F0F9F9401B86
:100950000228F7D9032026E16068B0F5803F03D173
:10096000386840F4803013E058B1B0F5A02F08D1BA
:10097000386840F4802038603A6842F480323A6047
:1009800007E0396821F480313960386820F480202C
:100990003860606858B100F0D3F9054639688803BB
:1009A000A3D400F0CDF9401B6528F7D3D2E700F0BF
:1009B000C7F905463968880397D500F0C1F9401B8F
:1009C0006528F7D3C6E7206968B10121316000F0DE
:1009D000B7F90546386881079FD400F0B1F9401B8C
:1009E0000228F7D9B6E70022326000F0A9F90546DF
:1009F0003968880798D500F0A3F9401B0228F7D979
:100A0000A8E7DFF800231168C9084FF47A70B1FB3A
:100A1000F0F0009000BF0098411E00280091F9D12D
:100A2000207841076ED5F9690025C80009D4F96915
:100A300041F08051F9610125F86900F08050009083
:100A40000098DFF8D482D8F80000C10520D4D8F887
:100A5000000040F48070C8F8000000F071F9814691
:100A6000D8F80010C80513D400F06AF9A0EB09000B
:100A70006528F5D36EE7086000F062F90546796AEB
:100A80008807CDD500F05CF9401B0228F7D961E753
:100A9000E068012808D008B9386A09E00528386AF2
:100AA00006D140F004003862386A40F0010005E0E9
:100AB000400840003862386A20F00400386241F291
:100AC0008938E06860B100F03BF98146396A8807EF
:100AD00013D400F035F9A0EB09004045F6D339E70F
:100AE00000F02EF98146396A880706D500F028F90A
:100AF000A0EB09004045F6D32CE71DB1F86920F0C2
:100B00008050F861E06900284CD0796801F00C0150
:100B1000082938D002282AD100F047F8054639685C
:100B2000880105D500F00CF9401B0228F7D911E720
:100B3000206AB0F5803F05D17968A06821F40031C2
:100B4000014379607A68206A616A22F47412024370
:100B50000A437A60012000F029F8044638688101D0
:100B600020D400F0EDF8001B0228F7D9F2E600F0DF
:100B70001CF804463868810114D500F0E1F8001B28
:100B80000228F7D9E6E601280AD07868226A00F43C
:100B90008031914202BF00F47010616A884201D036
:100BA000012000E00020BDE8F2830020306600F064
:100BB000C7B82DE9F041040088465FD0574E306831
:100BC00000F00700404509D23168C90848EAC10170
:100BD0003160306800F0070040454FD12168484D32
:100BE000880712D5490703D5686840F4E06068605B
:100BF0002078010703D5686840F460506860696830
:100C0000A06821F0F001014369602178C80726D56A
:100C10006068012802D129688A0303E0022803D111
:100C200029688A0103D429E02B68990726D56A68C8
:100C3000920840EA8200686000F082F8074668681F
:100C4000616800F00C00B0EB810F08D000F078F87C
:100C5000C01B41F289318842F1D3032032E0316870
:100C600001F0070188450BD23068C00848EAC0008F
:100C70003060316801F00701414501D0012021E0D9
:100C80002178480705D56968E06821F4E0610143EF
:100C9000696021780A0706D56868216920F46050E8
:100CA00040EAC100686000F00FF86A681C49C2F3AE
:100CB00003128B5C1349D84008601448006800F0A8
:100CC00045F80020BDE8F08116490F480A6802F097
:100CD0000C03082B00D0704710B500BF13A4C2F35B
:100CE0008343D203E35C08D50968584313A3C1F3D7
:100CF0004041595CB0FBF1F010BD0B48584310BDAA
:100D0000001002400C00002000127A0008000020B1
:100D10000000424280044242007000400020024035
:100D2000381300080410024000093D0002030405C6
:100D3000060708090A0B0C0D0E0F10100102000027
:100D400001484068704700BF0000002038B50D4DD5
:100D50000D4A297804464FF47A731068B3FBF1F119
:100D6000B0FBF1F000F048F850B9102C08D2002286
:100D700021464FF0FF3000F020F8AC60002032BD7B
:100D8000012032BD000000200C0000200A010100FB
:100D900002D4224B5A547047214801F00F010144FC
:100DA00001F8042C70471F490A6860F30A2240F2D8
:100DB000FA5060F31F420A60704770B5194C2368FF
:100DC000C3F302230124C3F10705052D2FBF0F260E
:100DD000C3F1070604FA06F6761E1D1D072D34BF63
:100DE0000023DB1E3140994004FA03F3BDE8704054
:100DF0005B1E1A401143C9E7401EB0F1807F01D34A
:100E00000120704708494860F0220848027000231A
:100E10008B6007220A6000207047000000E400E0B9
:100E200018ED00E00CED00E010E000E023ED00E044
:100E300078B595B000F0FEF800F0CAF81021002255
:100E40006846FFF73BFC5D485D4E02685D4D42F031
:100E500020020260FF24016801F020010491049B3C
:100E6000026842F004020260016801F0040104918A
:100E7000049A016841F0080101600022006800F056
:100E800008000490FF2104983046FFF7F3FC00228D
:100E9000E0212846FFF7EEFC012201920021029199
:100EA00002220392009469463046FFF711FC0122AA
:100EB0000192E020002100900291022203926946F3
:100EC0002846FFF705FC1021002211A8FFF7F6FBCA
:100ED00000210091019100221C210AA8FFF7EEFBDE
:100EE0002021002202A8FFF7E9FB374D374A2A608C
:100EF00000216960A96029616961A961EC602846E7
:100F0000FFF7F4F808B100F08CF84FF4805011901E
:100F100011A92846FFF7E7F908B100F082F8284642
:100F2000FFF705F908B100F07CF800220092019269
:100F30006946284600F090F808B100F072F8602089
:100F40000A9000220B920C920D920E920F92109228
:100F50000AA92846FFF765F908B100F062F80020F9
:100F6000029003900490059006904FF4005209906F
:100F7000079202A9284600F0A1F808B100F051F844
:100F80002846FFF76EFB00F0F3F800F028F9002187
:100F9000002000F009F900BF23A000F0F7F84FF49B
:100FA000FA6000F02BF900F01AF900212846FFF74B
:100FB000D3F87F2029684863FCE70000181002403E
:100FC00000080140000C014010000020002C0140EE
:100FD00000B58FB02821002205A8FFF76FFB142170
:100FE00000226846FFF76AFB012005904FF480322B
:100FF000002106920C9105A8FFF75AFC08B100F0F9
:1010000010F80F200090012200210192029103911B
:1010100004916846FFF7CDFD08B100F002F80FB06B
:1010200000BD72B6FEE7000048692050574D2E2ED5
:101030002E00000080B50748016841F010010160F2
:101040000320FFF7B0FE0F20FFF780FEFFF7DCFA6A
:10105000002002BD0020024070B500F13C031A7868
:10106000012A01D1022070BD01241C7002225A7095
:1010700006687568B4680A6825F0700515437560E0
:1010800002680C48824218BFB2F1804F05D0084D6B
:10109000AA421CBF0848824204D1486824F0800458
:1010A00004439460012159700020187070BD000045
:1010B00000040040002C01400008004010B590F8EA
:1010C0003C20012A01D1022010BD012280F83C20E1
:1010D000CC688A684B6824F44074144324F4806418
:1010E0001C430A680B6924F40064144324F48054FC
:1010F0001C434A69C96924F400541443026824F467
:1011000080440C435464002380F83C30002010BD20
:1011100070B500F06EF8144C002204E070B500F0D9
:1011200068F8114C012220212046FFF7A3FB002282
:1011300040212046FFF79EFB0C4D0022FF21284650
:10114000FFF798FB012231462846FFF793FB012267
:1011500080212046FFF78EFB2046BDE8704000222C
:101160008021FFF787BB0000000C01400008014010
:1011700080B50A2000F042F83820FFF7C9FF0620AA
:10118000FFF7C6FFBDE802400C20C1E710B50446DA
:1011900000F030F803E014F8010BFFF7BFFF2078F0
:1011A0000028F8D110BD000038B505460C4600F007
:1011B00021F8032C12D8DFE804F00205080BA5F192
:1011C000800007E0A5F1400004E0A5F16C0001E01B
:1011D000A5F12C00BDE83240C0B299E731BD80B521
:1011E00000F008F80120FFF793FFBDE8024002205D
:1011F0008EE70646012000F001B8000038B505462C
:10120000FFF79EFD15F1010F044602D0044908784E
:101210004519FFF795FD001BA842FAD331BD00BF69
:101220000000002030B4002412E050F8043BDA073C
:1012300044BF4B445B1E091F042943F8044BFAD2F8
:101240001A468D0744BF1C80921CCB0748BF147000
:1012500050F8041B0029E8D130BC704710B5034A90
:101260007A440832024C7C44A41D03E01C000000B8
:101270003C00000004E01168101D1144884702463C
:10128000A242F8D110BD00009DFFFFFF4800000002
:10129000100000200000000047F3FFFF10000000D6
:1012A000B8000000000000200000000000F00DF871
:1012B000002801D0FFF7D2FFAFF300800020AFF38A
:1012C0000080FFF7B5FD00F002F80120704700F044
:1012D00001B800000746384600F002F8FBE70000BE
:1012E00080B5AFF30080024A11001820ABBEFBE7C7
:1012F000260002000548014603B4684680F30988C9
:10130000AFF30080AFF30080FFF7D0FFA5EDF5FE4F
:10131000FEE7FEE7FEE7FEE7FEE77047704770472F
:1013200000F000B8024A51681078411851607047C7
:1013300000000020704700000000000000000000D6
:1013400001020304060708090148804701480047D5
:1013500035130008F512000801000000000000002D
:101360001000000000127A00FFF7FEBFFFF7FEBF7B
:10137000FFF7FEBFFFF7FEBFFFF7FEBFFFF7FEBFA1
:10138000FFF7FEBFFFF7FEBFFFF7FEBFFFF7FEBF91
:10139000FFF7FEBFFFF7FEBFFFF7FEBFFFF7FEBF81
:1013A000FFF7FEBFFFF7FEBFFFF7FEBFFFF7FEBF71
:1013B000FFF7FEBFFFF7FEBFFFF7FEBFFFF7FEBF61
:1013C000FFF7FEBFFFF7FEBFFFF7FEBFFFF7FEBF51
:1013D000FFF7FEBFFFF7FEBFFFF7FEBFFFF7FEBF41
:1013E000FFF7FEBFFFF7FEBFFFF7FEBFFFF7FEBF31
:1013F000FFF7FEBFFFF7FEBFFFF7FEBFFFF7FEBF21
:10140000FFF7FEBFFFF7FEBFFFF7FEBFFFF7FEBF10
:04141000FFF7FEBF25
:04000005080012F5E8
:00000001FF
