:020000040800F2
:1000000060040020650E00082D0E00082F0E000869
:10001000310E0008330E0008350E00080000000005
:10002000000000000000000000000000370E000883
:10003000390E0008000000003B0E00083D0E0008CD
:100040008D0E0008910E0008950E0008990E00080C
:100050009D0E0008A10E0008A50E0008A90E0008BC
:10006000AD0E0008B10E0008B50E0008B90E00086C
:10007000BD0E0008C10E0008C50E0008C90E00081C
:10008000CD0E0008D10E0008D50E0008D90E0008CC
:10009000DD0E0008E10E0008E50E0008E90E00087C
:1000A000ED0E0008F10E0008F50E0008F90E00082C
:1000B000FD0E0008010F0008050F0008090F0008D9
:1000C0000D0F0008110F0008150F0008190F000888
:1000D0001D0F0008210F0008250F0008290F000838
:1000E0002D0F0008310F0008350F00082DE9F843E7
:1000F000040016D02078DFF86874C10713D578683B
:1001000000F00C00042807D0786800F00C000828E4
:1001100040D17968C8033DD53A68910303D560683A
:10012000002800F05B812078DFF84464810719D54E
:10013000786810F00C0F07D0786800F00C000828E1
:100140005FD17868C1035CD43868810703D5206922
:10015000012840F043813968606921F0F80141EAE3
:10016000C00139602178080778D5A069DFF8041448
:10017000002800F09E8001220A6000F027FA054660
:10018000796A88075BD400F021FA401B0228F7D96E
:10019000032026E16068B0F5803F03D1386840F461
:1001A000803013E058B1B0F5A02F08D1386840F482
:1001B000802038603A6842F480323A6007E039685B
:1001C00021F480313960386820F48020386060681C
:1001D00058B100F0FBF9054639688803A3D400F054
:1001E000F5F9401B6528F7D3D2E700F0EFF9054693
:1001F0003968880397D500F0E9F9401B6528F7D3E3
:10020000C6E7206968B10121316000F0DFF90546D9
:10021000386881079FD400F0D9F9401B0228F7D92C
:10022000B6E70022326000F0D1F905463968880748
:1002300098D500F0CBF9401B0228F7D9A8E7DFF8E2
:1002400024231168C9084FF47A70B1FBF0F00090D4
:1002500000BF0098411E00280091F9D12078410785
:100260006ED5F9690025C80009D4F96941F08051BB
:10027000F9610125F86900F0805000900098DFF8DE
:10028000F882D8F80000C10520D4D8F8000040F466
:100290008070C8F8000000F099F98146D8F8001085
:1002A000C80513D400F092F9A0EB09006528F5D336
:1002B0006EE7086000F08AF90546796A8807CDD5AF
:1002C00000F084F9401B0228F7D961E7E0680128B3
:1002D00008D008B9386A09E00528386A06D140F024
:1002E00004003862386A40F0010005E04008400030
:1002F0003862386A20F00400386241F28938E068D8
:1003000060B100F063F98146396A880713D400F0C0
:100310005DF9A0EB09004045F6D339E700F056F946
:100320008146396A880706D500F050F9A0EB09002C
:100330004045F6D32CE71DB1F86920F08050F861F4
:10034000E06900284CD0796801F00C01082938D008
:1003500002282AD100F047F805463968880105D5FA
:1003600000F034F9401B0228F7D911E7206AB0F5F4
:10037000803F05D17968A06821F40031014379609C
:100380007A68206A616A22F4741202430A437A602E
:10039000012000F029F804463868810120D400F0DB
:1003A00015F9001B0228F7D9F2E600F01CF8044604
:1003B0003868810114D500F009F9001B0228F7D92B
:1003C000E6E601280AD07868226A00F4803191427A
:1003D00002BF00F47010616A884201D0012000E081
:1003E0000020BDE8F2830020306600F0EFB82DE970
:1003F000F041040088465FD0604E306800F007008E
:10040000404509D23168C90848EAC1013160306805
:1004100000F0070040454FD12168514D880712D5A3
:10042000490703D5686840F4E060686020780107F8
:1004300003D5686840F4605068606968A06821F07E
:10044000F001014369602178C80726D5606801285A
:1004500002D129688A0303E0022803D129688A01AE
:1004600003D429E02B68990726D56A68920840EAE8
:100470008200686000F0AAF807466868616800F0CA
:100480000C00B0EB810F08D000F0A0F8C01B41F2C7
:1004900089318842F1D3032032E0316801F007014D
:1004A00088450BD23068C00848EAC0003060316827
:1004B00001F00701414501D0012021E021784807E2
:1004C00005D56968E06821F4E0610143696021783D
:1004D0000A0706D56868216920F4605040EAC10027
:1004E000686000F00FF86A682549C2F303128B5C5C
:1004F0001C49D84008601D48006800F06DF80020D5
:10050000BDE8F0811F4918480A6802F00C03082B67
:1005100000D0704710B500BF1DA4C2F38343D203BF
:10052000E35C08D5096858431DA3C1F34041595CF9
:10053000B0FBF1F010BD1448584310BD0948114BF1
:1005400000681A681149C2F3022206E005480D4B03
:1005500000681A680D49C2F3C222895CC84070471E
:10056000001002400C00002000127A000800002059
:1005700000004242800442420070004000200240DD
:10058000540E00080410024000093D00840E0008CB
:1005900002030405060708090A0B0C0D0E0F1010C4
:1005A00001020EE002684368024408305FEAC37C3F
:1005B00044BF4B445B1E52F804CB43F804CB091FE5
:1005C000F9D150F8041B0029ECD17047014840686C
:1005D000704700BF0000002038B50D4D0D4A297846
:1005E00004464FF47A731068B3FBF1F1B0FBF1F0FD
:1005F00000F048F850B9102C08D2002221464FF0E4
:10060000FF3000F020F8AC60002032BD012032BD88
:10061000000000200C0000200A01010002D4224B3F
:100620005A547047214801F00F01014401F8042C8D
:1006300070471F490A6860F30A2240F2FA5060F3DB
:100640001F420A60704770B5194C2368C3F3022338
:100650000124C3F10705052D2FBF0F26C3F107069F
:1006600004FA06F6761E1D1D072D34BF0023DB1E7F
:100670003140994004FA03F3BDE870405B1E1A4014
:100680001143C9E7401EB0F1807F01D301207047BC
:1006900008494860F0220848027000238B60072256
:1006A0000A6000207047000000E400E018ED00E060
:1006B0000CED00E010E000E023ED00E038B50400B0
:1006C00001D1012032BD04F14005687808B900F07D
:1006D00009F800F00CF800F022F8FFE7486100F09C
:1006E00010F832BD00212970204600F03BB92420CB
:1006F00068702168C86820F40050C860204600F087
:10070000D2B82168C86840F40050C8606A602021EF
:1007100069702020A8700021616300207047216863
:10072000086920F49040086100222168486920F09F
:100730002A0070472DE9FC4106460D4696F8410017
:10074000202814461F4641D10DB1200001D10120BF
:100750003DE000217164212086F84100FFF736FF5B
:10076000B4848046F484B068B0F5805F04BF30691B
:1007700000281ABF2C460025002412E00022802108
:10078000304600F026F8E0B93068002C12BF14F8AB
:10079000011B35F8021BC1F308014160F18C481EB2
:1007A000F0844346F08C00970028E7D100224021D6
:1007B000304600F00EF820B9202086F841000020D5
:1007C00005E0202086F84100032000E00220BDE87B
:1007D000F6812DE9FC41089C05460E4690461F46D1
:1007E000296808683040B0420CBF01210021414512
:1007F0002AD114F1010FF3D0FFF7E8FEC01B8442A9
:1008000000D314B90320BDE8F6812968CA685007EF
:10081000E6D5802E18BF402EE2D00B461A6810078E
:10082000DED5002300932C6822680092496800916D
:100830000098284600F00AF805F1400008224260BE
:10084000002101700120DEE70020DCE7036803F1EE
:100850000C0252E8002F0C3322F4907243E800217E
:100860000029F3D1036803F1140252E8002F520863
:100870001433520043E800210029F3D1016B012910
:100880000BD1036803F10C0252E8002F0C3322F065
:10089000100243E800210029F3D1202280F84220F1
:1008A00000210163704710B5044622681169E068B1
:1008B00021F4405101431161D3681A48A1680340F3
:1008C00020690B43616903430B43D36016495369A5
:1008D000A06923F4407303438A42536102D1FFF7B6
:1008E00035FE01E0FFF72AFE6268192148439200B5
:1008F000B0FBF2F26421B2FBF1F16FF0630000FB98
:100900000122120132326423B2FBF3F000F0F00254
:1009100002EB0112216800F00F008018886010BD02
:1009200000000000F3E9FFFF00380140294881B0D2
:10093000026842F001020260016801F001010091C9
:10094000009A4168244A41F0805141600221406888
:1009500000F0805000900098106861F31A601060F9
:1009600001B0704718B585B00446102100226846D2
:1009700000F038F8236819498B4228D11548184CE3
:10098000026842F480420260016801F480410491EF
:10099000049A016841F0040101600222006800F03D
:1009A000040004904FF40070049900900321039117
:1009B00001926946204600F01FF84FF480600090D5
:1009C0000022019202926946204600F015F806B016
:1009D00010BD000018100240040001400038014022
:1009E000000801404018491C1CBFB1F1010100F88A
:1009F000012DF9D1704700002DE9F84F00270024A0
:100A0000694BDFF8A881DFF8A891DFF8A8B14FF0B3
:100A10000F0A024610E0D3F800E000EA0E0018606A
:100A200009E0C3F804C04D68ED03F4D518684EEA38
:100A3000000EC3F800E07F1C0D6835FA07F000F0E7
:100A4000AB80012000FA07FC0CEA050EE645F2D166
:100A50004D683DB3012D1AD0022D1DD0032D2ED08F
:100A6000112D16D0122D1AD0534885421CBF534861
:100A7000854217D0524885421CBF5248854211D04A
:100A8000514885421CBF514885420BD018E0CC68C4
:100A900016E0CC68241D13E0CC68083410E0CC6864
:100AA0000C340DE0886808B9042409E0012819BF56
:100AB0000824C2F814C00824C2F810C000E00024C2
:100AC000BEF5807F03D210464FEA870C04E0A7F101
:100AD0000805101D4FEA850C06680AFA0CF5AE43AE
:100AE00004FA0CF545EA060CC0F800C04868C000DE
:100AF000A1D5D9F800C04CF0010CC9F800C0BD0068
:100B0000D9F8000000F00100009005F00C0C0098EE
:100B1000B80858F820600AFA0CF5AE435A4508BFE9
:100B200000250ED02A4DAA4208BF012509D0294D23
:100B3000AA4208BF022504D0274DAA420CBF0325B4
:100B4000042505FA0CF545EA060C48F820C06FEAC2
:100B50000E004D68ED0204D59D684EEA05059D60C6
:100B600005E0D3F808C000EA0C0CC3F808C04D68D3
:100B7000D3F80CC0AD024CBF4EEA0C0C00EA0C0CD2
:100B8000C3F80CC04D68D3F804C0AD034CBF4EEAA7
:100B90000C0C00EA0C0C44E7BDE8F18F80680840BB
:100BA00018BF0120C0B27047000401400800014096
:100BB000181002400008014000001110000012103F
:100BC000000021100000221000003110000032103F
:100BD000000C0140001001400014014030B585B008
:100BE00000F088F800F05AF81021002201A8FFF761
:100BF000F9FE2648264C0268264D42F0200202608B
:100C0000016801F020010091009B026842F0080297
:100C10000260016801F008010091009A016841F04A
:100C2000040101600022006800F00400009002202E
:100C3000009901900292039201A92046FFF7DCFE81
:100C40004FF416501449A86069600C200021A86177
:100C5000E96029616961E9612962281DFFF72EFDBC
:100C600008B100F044F802212046FFF797FF002862
:100C700014BF312030202870642301222946281D0A
:100C8000FFF758FDC82000F047F8ECE718100240C5
:100C9000000C0140100000200038014000B58FB06A
:100CA0002821002205A8FFF79DFE14210022684696
:100CB000FFF798FE012005904FF4A0220021069234
:100CC0000C9105A8FFF712FA08B100F010F80F20F8
:100CD0000090012200210192029103910491684643
:100CE000FFF785FB08B100F002F80FB000BD72B647
:100CF000FEE7000080B50748016841F0100101607F
:100D00000320FFF796FC0F20FFF766FCFFF70EFEAF
:100D1000002002BD0020024038B50546FFF756FC12
:100D200015F1010F044602D0044908784519FFF770
:100D30004DFC001BA842FAD331BD00BF00000020CB
:100D400030B4002412E050F8043BDA0744BF4B44AF
:100D50005B1E091F042943F8044BFAD21A468D077B
:100D600044BF1C80921CCB0748BF147050F8041B72
:100D70000029E8D130BC704710B5034A7A440832E4
:100D8000024C7C44A41D03E01C0000003C00000059
:100D900004E01168101D114488470246A242F8D1B0
:100DA00010BD00009DFFFFFF4C0000001000002060
:100DB00000000000EFF7FFFF10000000B800000087
:100DC000000000200000000000F00DF8002801D015
:100DD000FFF7D2FFAFF300800020AFF30080FFF7F2
:100DE000FDFE00F002F80120704700F001B800009D
:100DF0000746384600F002F8FBE7000080B5AFF385
:100E00000080024A11001820ABBEFBE7260002005A
:100E10000548014603B4684680F30988AFF30080B3
:100E2000AFF30080FFF7D0FFA5EDF5FEFEE7FEE78C
:100E3000FEE7FEE7FEE770477047704700F000B836
:100E4000024A516810784118516070470000002034
:100E500070470000000000000000000001020304D1
:100E6000060708090148804701480047510E00085D
:100E7000110E00080100000000000000100000003A
:100E800000127A000000000001020304FFF7FEBF19
:100E9000FFF7FEBFFFF7FEBFFFF7FEBFFFF7FEBF86
:100EA000FFF7FEBFFFF7FEBFFFF7FEBFFFF7FEBF76
:100EB000FFF7FEBFFFF7FEBFFFF7FEBFFFF7FEBF66
:100EC000FFF7FEBFFFF7FEBFFFF7FEBFFFF7FEBF56
:100ED000FFF7FEBFFFF7FEBFFFF7FEBFFFF7FEBF46
:100EE000FFF7FEBFFFF7FEBFFFF7FEBFFFF7FEBF36
:100EF000FFF7FEBFFFF7FEBFFFF7FEBFFFF7FEBF26
:100F0000FFF7FEBFFFF7FEBFFFF7FEBFFFF7FEBF15
:100F1000FFF7FEBFFFF7FEBFFFF7FEBFFFF7FEBF05
:100F2000FFF7FEBFFFF7FEBFFFF7FEBFFFF7FEBFF5
:080F3000FFF7FEBFFFF7FEBF53
:0400000508000E11D0
:00000001FF
