:020000040800F2
:1000000070060020B50100081D0300081503000854
:100010001903000871020008310300080000000005
:1000200000000000000000000000000025030008A0
:1000300075020008000000002103000829030008E1
:10004000CF010008CF010008CF010008CF01000850
:10005000CF010008CF010008CF010008CF01000840
:10006000CF01000899020008B9020008CF0100087A
:10007000CF010008CF010008CF010008CF01000820
:10008000CF010008CF010008CF010008CF01000810
:10009000CF010008CF010008CF010008D9020008F5
:1000A000CF010008CF010008CF010008CF010008F0
:1000B000CF010008CF010008CF010008CF010008E0
:1000C000CF010008CF010008CF010008CF010008D0
:1000D000CF010008CF010008CF010008CF010008C0
:1000E00079020008CF010008CF01000800F002F8F3
:1000F00000F050F814A696E8000CB244B344DA4578
:1001000001D100F047F8BAE80F000FA696E83000DA
:10011000A5EB040504EB0607AAEB0704A7F101070A
:100120004FEA15154FEA3414A4F10104AC4201D38F
:1001300000F030F813F0010F18BFFB1A43F0010371
:1001400000F001F8DBE71847CC030000EC030000E7
:10015000103A24BF78C878C1FAD8520724BF30C8F3
:1001600030C144BF04680C60704700007047000055
:100170000023002400250026103A28BF78C1FBD8B0
:10018000520728BF30C148BF0B6070471FB51FBD65
:1001900010B510BD00F031F81146FFF7F7FF00F081
:1001A000C9F800F04FF803B4FFF7F2FF03BC00F00A
:1001B00057F800000948804709480047FEE7FEE776
:1001C000FEE7FEE7FEE7FEE7FEE7FEE7FEE7FEE707
:1001D00004480549054A064B704700002D030008F6
:1001E000ED00000870000020700600207002002062
:1001F00070020020704770477047754600F02CF879
:10020000AE4605006946534620F00700854618B003
:1002100020B5FFF7DDFFBDE820404FF000064FF0AE
:1002200000074FF000084FF0000BAC46ACE8C009E7
:10023000ACE8C009ACE8C009ACE8C00921F007018E
:100240008D46704710B50446AFF300802046BDE8E8
:100250001040FFF7A8BF00000048704708000020CA
:1002600001491820ABBEFEE72600020070470000DF
:10027000FEE700007047000040F21440C4F20100A5
:10028000D0F8F81321F4D061C0F8F813016841F4F4
:10029000804101607047000040F21440C4F2010048
:1002A000D0F8F81341F08001C0F8F813016841F06C
:1002B000080101607047000040F21440C4F20100E0
:1002C000D0F8F81341F40071C0F8F813016841F058
:1002D000100101607047000040F21440C4F20100B8
:1002E000D0F8F81341F48061C0F8F813016841F0C8
:1002F000200101607047000040F2000040F26801F8
:10030000C2F20000C2F2000100780A6810440860DE
:1003100070470000FEE70000FEE70000FEE7000077
:100320007047000070470000FFF7E6BF704700000D
:10033000FEE7000041F21802C4F20202106840F227
:10034000080E40F0040010601068C4F2010E40F086
:1003500008001060116840F6004041F01001116083
:10036000136840F6000143F00103C4F20100C4F237
:100370000101136000224A6002600A6842F04052A4
:100380000A600A6822F040420A604A6842F030027D
:100390004A604A6822F0C0024A604A6842F44072E9
:1003A0004A604A6822F440624A60026822F003020E
:1003B0000260026822F004020260026842F0080251
:1003C00002600A6822F440520A600A6822F48042FD
:1003D0000A600A6842F400420A600A6822F4403265
:1003E0000A600A6822F480220A600A6842F4002245
:1003F0000A600A6822F440120A600A6822F4800245
:100400000A600A6842F400020A60C26842F001020F
:10041000C260CA6842F03802CA60DEF8F8C344F22B
:10042000380242EA0C02CEF8F8234FF61042CFF61B
:10043000FF728B584FF60C4C43F480438B50CFF631
:10044000FF7C51F80C3043F0380341F80C30DEF8F3
:1004500000304EF60C5CCEF80030DEF80430CEF200
:10046000000CCEF80430DCF800E04FF6FF0303EA9E
:100470000E0343F0806343F0FD73CCF800304EF27E
:10048000094CCEF2000C30234EF2001E8CF80030E6
:10049000CEF2000E4FF40073CEF8003040238CF8FB
:1004A00001304FF48063CEF8003050238CF80E30CA
:1004B0004FF40003CEF8003060238CF81F304FF467
:1004C0008073CEF8043000BF8368DB0703D18B58FC
:1004D00043F480438B508368DB0707D08368DB07D6
:1004E0000BD08368DB07EFD10EE000BF8B5843F4DD
:1004F00080438B508368DB07F3D18B5843F48043F0
:100500008B508368DB07DFD18B5843F480438B50DB
:10051000DAE70000380500080000002008000000AD
:10052000500100084005000808000020680600008F
:100530007001000800000000010000001000000031
:04000005080000ED02
:00000001FF
