:020000040800F2
:100000000050002011130008411200084912000896
:100010005112000859120008611200080000000087
:10002000000000000000000000000000691200084D
:100030007512000800000000811200088D120008EF
:1000400059130008591300085913000859130008E0
:1000500059130008591300085913000859130008D0
:1000600059130008591300085913000859130008C0
:1000700059130008591300085913000859130008B0
:1000800059130008591300085913000859130008A0
:100090005913000859130008591300085913000890
:1000A0005913000859130008591300085913000880
:1000B0005913000859130008591300085913000870
:1000C0005913000859130008591300085913000860
:1000D0005913000859130008591300085913000850
:1000E00059130008591300085913000800000000B4
:1000F0000000000000000000000000000000000000
:0C01000000000000000000005FF808F1A3
:10010C0010B5054C237833B9044B13B10448AFF345
:10011C0000800123237010BD6C0000200000000043
:10012C00E840000808B5034B1BB103490348AFF383
:10013C00008008BD0000000070000020E8400008AE
:10014C0080B586B004AF03460A46FB711346BB71FB
:10015C000B4B1868FB799AB2642302930123019329
:10016C00BB1D00930123AE2101F03AFE0346002B88
:10017C0001D1012300E0002318460837BD4680BD9D
:10018C008800002080B586B004AF03463960FB714F
:10019C000B4B1868FB799AB26423029301230193E9
:1001AC003B6800930123AE2101F014FF0346002BA2
:1001BC0001D1012300E0002318460837BD4680BD5D
:1001CC008800002080B584B000AF0346FB710B465D
:1001DC00BB7113467B7107F10F02FB791146184670
:1001EC00FFF7D0FF0346012B01D0002321E0BB79A0
:1001FC00012202FA03F3DBB2DB43DAB2FB7B1340DE
:10020C00DBB2FB737B7903F00102BB7902FA03F3D7
:10021C00DAB2FB7B1343DBB2FB73FA7BFB7911463F
:10022C001846FFF78DFF0346012B01D0002300E099
:10023C00012318461037BD4680BD000080B58AB03A
:10024C0004AF786039607B6800221A603B6800223A
:10025C001A60304B1868642302930623019307F14C
:10026C000C03009301230722AE2101F0B3FE0346D9
:10027C00002B01D0002348E03B7B7B617B691B0496
:10028C007B617B681A687B691A447B681A607B7B8C
:10029C007B617B691B027B617B681A687B691A44F2
:1002AC007B681A60BB7B7B617B681A687B691A442C
:1002BC007B681A60FB7B7B617B691B047B613B6801
:1002CC001A687B691A443B681A603B7C7B617B69CA
:1002DC001B027B613B681A687B691A443B681A6095
:1002EC007B7C7B613B681A687B691A443B681A60AB
:1002FC007B681B68C3F311027B681A603B681B6840
:10030C00C3F311023B681A60012318461837BD4627
:10031C0080BD00BF8800002080B582B000AF0346CE
:10032C00FB71FB791A4607210220FFF74BFF0346AE
:10033C0018460837BD4680BD80B582B000AF034675
:10034C00FB71FB791A4606210220FFF73BFF03469F
:10035C0018460837BD4680BD80B582B000AF034655
:10036C00FB71FB7903F01F03DBB219460420FFF786
:10037C00E7FE0346012B01D0002300E001231846C1
:10038C000837BD4680BD80B582B000AF0346FB7117
:10039C00FB7903F01F03DBB219460520FFF7D0FEF3
:1003AC000346012B01D0002300E001231846083737
:1003BC00BD4680BD80B582B000AF0346FB71FB79B2
:1003CC0003F01F03DBB219460620FFF7B9FE034604
:1003DC00012B01D0002300E0012318460837BD464D
:1003EC0080BD80B584B000AF0346FB7107F10F03ED
:1003FC0019460820FFF7C6FE0346012B01D0002347
:10040C0016E0FB7B03F01F03DBB2FB73FB795B0194
:10041C00DAB2FB7B1343DBB2FB73FB7B1946082080
:10042C00FFF78EFE0346012B01D0002300E00123D1
:10043C0018461037BD4680BD80B582B000AF03466C
:10044C00FB71FB7903F00103DBB21A46042108208F
:10045C00FFF7B8FE034618460837BD4680BD80B589
:10046C0084B000AF0346FB71FB79102B01D811232C
:10047C00FB71FB79202B01D92023FB71FB79C3F194
:10048C002003FB7107F10F0319460820FFF77AFED2
:10049C000346012B01D0002317E0FB7B23F00F0355
:1004AC00DBB2FB73FB7903F00F03DAB2FB7B134374
:1004BC00DBB2FB73FB7B19460820FFF741FE0346BA
:1004CC00012B01D0002300E0012318461037BD4654
:1004DC0080BD80B582B000AFFF23FB7140210920A5
:1004EC00FFF72EFE0346012B01D000230FE0FB1D6E
:1004FC0019460920FFF746FE0346012B01D00023C5
:10050C0005E0FB7903F04003002BF0D101231846E2
:10051C000837BD4680BD80B584B000AF0346FB7183
:10052C0007F10F0319460920FFF72CFE0346012B98
:10053C0001D0002317E0FB7B23F00703DBB2FB7336
:10054C00FB7903F00703DAB2FB7B1343DBB2FB73DB
:10055C00FB7B19460920FFF7F3FD0346012B01D065
:10056C00002300E0012318461037BD4680BD80B53E
:10057C0084B000AF0346FB7107F10F0319460A2044
:10058C00FFF700FE0346012B01D0002319E0FB7B93
:10059C0023F06003DBB2FB73FB795B01DBB203F08E
:1005AC006003DAB2FB7B1343DBB2FB73FB7B1946B4
:1005BC000A20FFF7C5FD0346012B01D0002300E004
:1005CC00012318461037BD4680BD80B584B000AFFE
:1005DC000346FB7107F10F0319460A20FFF7D2FD02
:1005EC000346012B01D0002319E0FB7B23F01C03F5
:1005FC00DBB2FB73FB799B00DBB203F01C03DAB2BA
:10060C00FB7B1343DBB2FB73FB7B19460A20FFF722
:10061C0097FD0346012B01D0002300E0012318466F
:10062C001037BD4680BD80B584B000AF0346FB716A
:10063C0007F10F0319460A20FFF7A4FD0346012B0F
:10064C0001D0002317E0FB7B23F00303DBB2FB7329
:10065C00FB7903F00303DAB2FB7B1343DBB2FB73CE
:10066C00FB7B19460A20FFF76BFD0346012B01D0DB
:10067C00002300E0012318461037BD4680BD80B52D
:10068C0082B000AF0346FB71FB7919460C20FFF7D3
:10069C0057FD0346012B01D0002300E0012318462F
:1006AC000837BD4680BD80B582B000AF0346FB71F4
:1006BC00FB7919460D20FFF743FD0346012B01D0B2
:1006CC00002300E0012318460837BD4680BD00001A
:1006DC0080B584B000AF7860524A7B681360524B8F
:1006EC0000221A60514B00221A60514B00221A60F2
:1006FC00504B00221A70504B00221A604F4B0022B4
:10070C001A704F4B00221A604E4B00221A70FFF7E2
:10071C00E0FE0346012B01D000237EE007F10F031E
:10072C0019460020FFF72EFD0346012B01D00023B4
:10073C0073E00020FFF710FE0346012B01D00023CD
:10074C006BE00020FFF71FFE0346012B01D00023B6
:10075C0063E00020FFF72EFE0346012B01D000239F
:10076C005BE00020FFF73DFE0346012B01D0002388
:10077C0053E00020FFF760FE0346012B01D000235D
:10078C004BE01120FFF76BFE0346012B01D0002339
:10079C0043E00320FFF7BFFE0346012B01D00023EB
:1007AC003BE00120FFF7E3FE0346012B01D00023C1
:1007BC0033E00120FFF709FF0346012B01D0002392
:1007CC002BE00320FFF72FFF0346012B01D0002362
:1007DC0023E02420FFF753FF0346012B01D0002315
:1007EC001BE02420FFF75FFF0346012B01D0002301
:1007FC0013E00120FFF790FD0346012B01D00023ED
:10080C000BE00120FFF798FD0346012B01D00023DC
:10081C0003E00D4B00221A70012318461037BD4619
:10082C0080BD00BF880000208C00002090000020BC
:10083C0094000020980000209C000020A0000020C4
:10084C00A4000020A8000020A900002080B588B0DA
:10085C0000AF07F1100300221A605A609A60DA6048
:10086C00314B9B69304A43F0100393612E4B9B69CB
:10087C0003F01003FB60FB682B4B9B692A4A43F087
:10088C0020039361284B9B6903F02003BB60BB687A
:10089C00254B9B69244A43F008039361224B9B69C7
:1008AC0003F008037B607B681F4B9B691E4A43F077
:1008BC00040393611C4B9B6903F004033B603B688E
:1008CC0000224FF40051194801F030F84FF4005356
:1008DC003B6101237B610023BB610223FB6107F1B8
:1008EC0010031946114800F09DFE4FF480533B61F4
:1008FC0000237B610023BB6107F1100319460C48F0
:10090C0000F090FE4FF480733B610A4B7B61012336
:10091C00BB6107F110031946074800F083FE00BFC6
:10092C002037BD4680BD00BF0010024000100140C2
:10093C00000C0140000021100008014080B500AF00
:10094C00124B134A1A60114B124A5A600F4B002279
:10095C009A600E4B0022DA600C4B4FF480421A6105
:10096C000A4B00225A61094B00229A61074B002264
:10097C00DA61064B00221A62044800F0EFFF0346CE
:10098C00002B01D000F05BF900BF80BDAC00002053
:10099C0000540040801A060080B500AF124B134A79
:1009AC001A60114B124A5A600F4B00229A600E4B80
:1009BC000022DA600C4B4FF480421A610A4B002281
:1009CC005A61094B00229A61074B0022DA61064BEF
:1009DC0000221A62044800F0C1FF0346002B01D02C
:1009EC0000F02DF900BF80BD000100200058004030
:1009FC00801A060080B58AB000AF786007F1180342
:100A0C0000221A605A609A60DA607B681B682B4A75
:100A1C00934224D12A4B9B69294A43F008039361E2
:100A2C00274B9B6903F008037B617B69C023BB6187
:100A3C001223FB6103237B6207F11803194621483B
:100A4C0000F0F0FD1E4BDB691D4A43F40013D3612B
:100A5C001B4BDB6903F400133B613B6929E07B68AA
:100A6C001B68194A934224D1154B9B69144A43F0D5
:100A7C0008039361124B9B6903F00803FB60FB684E
:100A8C004FF44063BB611223FB6103237B6207F1CC
:100A9C00180319460B4800F0C5FD094BDB69084AE1
:100AAC0043F48003D361064BDB6903F48003BB6022
:100ABC00BB6800BF2837BD4680BD00BF0054004056
:100ACC0000100240000C01400058004080B588B076
:100ADC0000AF00F03DFC00F06DF8FFF7B7FEFFF73C
:100AEC002DFFFFF759FF00F0B1F82A48FFF7F0FD92
:100AFC000021002000F012FA01222749274800F0BB
:100B0C00A1FA1E21002000F009FA012222492448F2
:100B1C0000F098FA00F05EF94FF47A7000F07AFC6D
:100B2C0007F11C0207F1180311461846FFF786FB64
:100B3C0000F0ADFA0021002000F0F0F90122194973
:100B4C00194800F07FFA1921002000F0E7F9FA6942
:100B5C003B461649184602F011FE3B4601220E494F
:100B6C00184600F06FFA2821002000F0D7F9BA6976
:100B7C003B460F49184602F001FE3B46012206494E
:100B8C00184600F05FFA00F025F9642000F042FCF2
:100B9C0000BFC5E700010020000000200041000854
:100BAC001041000808000020184100081C410008F2
:100BBC002441000880B590B000AF07F1180328223B
:100BCC000021184602F0FCFD3B1D00221A605A6001
:100BDC009A60DA601A610123BB614FF48033FB61C8
:100BEC0000233B620123BB6202237B634FF48033FF
:100BFC00BB634FF4E013FB6307F11803184602F0D4
:100C0C00C1F90346002B01D000F019F80F237B60CB
:100C1C000223BB600023FB604FF480633B61002325
:100C2C007B613B1D0221184602F02EFC0346002B73
:100C3C0001D000F004F800BF4037BD4680BD80B441
:100C4C0000AF72B600BF00BFFDE7000080B582B0F8
:100C5C0000AF00F025FA44F62063012278215B48AE
:100C6C0001F02CFC0346002B01D00023A9E040F638
:100C7C00C4137B6002E07B68013B7B607B68002BCC
:100C8C00F9D1AE220021782000F084FA2022002134
:100C9C00782000F07FFA10220021782000F07AFAF8
:100CAC00B0220021782000F075FAC82200217820AB
:100CBC0000F070FA00220021782000F06BFA10226C
:100CCC000021782000F066FA40220021782000F004
:100CDC0061FA81220021782000F05CFAFF220021C9
:100CEC00782000F057FAA1220021782000F052FA67
:100CFC00A6220021782000F04DFAA82200217820AD
:100D0C0000F048FA3F220021782000F043FAA42298
:100D1C000021782000F03EFAD3220021782000F048
:100D2C0039FA00220021782000F034FAD522002173
:100D3C00782000F02FFAF0220021782000F02AFA17
:100D4C00D9220021782000F025FA222200217820D7
:100D5C0000F020FADA220021782000F01BFA12228F
:100D6C000021782000F016FADB220021782000F018
:100D7C0011FA20220021782000F00CFA8D2200219B
:100D8C00782000F007FA14220021782000F002FAF3
:100D9C00AF220021782000F0FDF92E2200217820CE
:100DAC0000F0F8F9002000F043F800F013F8084BBD
:100DBC0000221A80064B00225A80054B01225A71E0
:100DCC00012318460837BD4680BD00BFAC0000208B
:100DDC005405002080B582B000AF0023FB711DE0EC
:100DEC00FB79503BDBB21A460021782000F0D2F997
:100DFC0000220021782000F0CDF91022002178206B
:100E0C0000F0C8F9FB79DB01084A1A448023402121
:100E1C00782000F059F9FB790133FB71FB79072B32
:100E2C00DED900BF00BF0837BD4680BD540100208D
:100E3C0080B582B000AF0346FB71FB79002B01D16A
:100E4C00002300E0FF234FF480621946034802F0B0
:100E5C00B7FC00BF0837BD4680BD00BF5401002061
:100E6C0080B483B000AF0346FB800B46BB801346B7
:100E7C00FB70FB887F2B48D8BB883F2B45D8254B74
:100E8C001B79002B06D0FB78002B0CBF0123002311
:100E9C00DBB2FB70FB78012B1AD1FA88BB88DB081C
:100EAC0098B20346DB0113441B4AD35C5AB2BB888D
:100EBC0003F00703012101FA03F35BB2134359B2A8
:100ECC00FA880346DB011344C9B2134AD1541DE01E
:100EDC00FA88BB88DB0898B20346DB0113440E4A40
:100EEC00D35C5AB2BB8803F00703012101FA03F368
:100EFC005BB2DB435BB2134059B2FA880346DB01A9
:100F0C001344C9B2044AD15400E000BF0C37BD46AB
:100F1C0080BC7047540500205401002080B483B07D
:100F2C0000AF03460A46FB801346BB80054AFB888C
:100F3C001380044ABB88538000BF0C37BD4680BC6D
:100F4C00704700BF5405002080B586B000AF034643
:100F5C003960FB711346BB71394B1B881A463B68D1
:100F6C001B7813447F2B07DC354B5B881A463B6898
:100F7C005B7813443F2B01DD00235DE000237B6194
:100F8C004BE03B685A68FB79203B3968497801FB98
:100F9C0003F319467B690B445B0013441B88FB600D
:100FAC0000233B6130E0FA683B6902FA03F303F477
:100FBC000043002B10D0224B1A883B699BB2134480
:100FCC0098B21F4B5A887B699BB213449BB2BA7977
:100FDC001946FFF745FF14E0194B1A883B699BB281
:100FEC00134498B2164B5A887B699BB2134499B23E
:100FFC00BB79002B0CBF01230023DBB21A46FFF791
:10100C002FFF3B6901333B613B681B781A463B69F8
:10101C009342C8D37B6901337B613B685B781A468A
:10102C007B699342ADD3064B1B883A681278134404
:10103C009AB2034B1A80FB7918461837BD4680BD0F
:10104C005405002080B584B000AFF860B960134639
:10105C00FB7112E0FB681B78FA79B9681846FFF748
:10106C0073FF03461A46FB681B789A4202D0FB6852
:10107C001B7808E0FB680133FB60FB681B78002BD6
:10108C00E8D1FB681B7818461037BD4680BD80B58B
:10109C0000AF0020FFF7CCFEFFF79CFE00BF80BD29
:1010AC0080B483B000AF074B7B6002E07B68013BF0
:1010BC007B607B68002BF9D100BF00BF0C37BD46AD
:1010CC0080BC704790D0030090B5C7B002AF044607
:1010DC00084607F58871A1F588710A60194607F56D
:1010EC008873A3F2091322461A7007F58873A3F5C7
:1010FC00857302461A7007F58873A3F586730A4642
:10110C001A8007F58873A3F5827307F58872A2F528
:10111C00857212781A70002387F80F3115E097F852
:10112C000F3107F58872A2F5887212681A4497F885
:10113C000F310133117807F58872A2F58272D15400
:10114C0097F80F31013387F80F3197F80F319BB2B5
:10115C0007F58872A2F5867212889A42DFD807F5D5
:10116C008873A3F209131B7899B207F58873A3F55A
:10117C0086731B8801339BB207F10C020A20009086
:10118C00034800F02FFD00BF07F58A77BD4690BDE0
:10119C00AC00002080B586B002AF0346FB710B4655
:1011AC00BB7113467B71BB793B737B797B73FB798A
:1011BC0099B207F10C020A2300930223034800F0B2
:1011CC0011FD00BF1037BD4680BD00BFAC00002034
:1011DC0080B485B000AF154B9B69144A43F00103F2
:1011EC009361124B9B6903F00103BB60BB680F4B0F
:1011FC00DB690E4A43F08053D3610C4BDB6903F07F
:10120C0080537B607B680A4B5B68FB60FB6823F058
:10121C00E063FB60FB6843F00073FB60044AFB680F
:10122C00536000BF1437BD4680BC704700100240AD
:10123C000000014080B400AF00BFFDE780B400AFF8
:10124C0000BFFDE780B400AF00BFFDE780B400AF86
:10125C0000BFFDE780B400AF00BFFDE780B400AF76
:10126C0000BFBD4680BC704780B400AF00BFBD4618
:10127C0080BC704780B400AF00BFBD4680BC7047D7
:10128C0080B500AF00F0AAF800BF80BD80B586B075
:10129C0000AF7860144A154BD31A7B617B693B61B4
:1012AC00134B1B68002B02D1114B124A1A60104BC6
:1012BC001A687B6813443A699A4207D202F088FA9A
:1012CC0003460C221A604FF0FF3309E0084B1B68F1
:1012DC00FB60074B1A687B681344054A1360FB6874
:1012EC0018461837BD4680BD005000200004000091
:1012FC005C050020B006002080B400AF00BFBD46E6
:10130C0080BC7047FFF7F8FF0B480C490C4A0023D0
:10131C0002E0D458C4500433C4188C42F9D3094A9F
:10132C00094C002301E013600432A242FBD302F00B
:10133C0055FAFFF7CBFB7047000000206C00002033
:10134C005C5600086C000020AC060020FEE7000094
:10135C0080B500AF084B1B68074A43F010031360BD
:10136C00032000F02BF90F2000F008F8FFF730FFF6
:10137C000023184680BD00BF0020024080B582B01B
:10138C0000AF7860124B1A68124B1B7819464FF459
:10139C007A73B3FBF1F3B2FBF3F3184600F035F9B3
:1013AC000346002B01D001230EE07B680F2B0AD8DB
:1013BC00002279684FF0FF3000F00BF9064A7B6889
:1013CC001360002300E0012318460837BD4680BD9A
:1013DC0010000020180000201400002080B400AF82
:1013EC00054B1B781A46054B1B681344034A1360C4
:1013FC0000BFBD4680BC704718000020600500206F
:10140C0080B400AF024B1B681846BD4680BC7047C9
:10141C006005002080B584B000AF7860FFF7F0FF66
:10142C00B8607B68FB60FB68B3F1FF3F05D00A4BEB
:10143C001B781A46FB681344FB6000BFFFF7E0FF04
:10144C000246BB68D31AFA689A42F7D800BF00BFAD
:10145C001037BD4680BD00BF1800002080B485B099
:10146C0000AF78607B6803F00703FB600C4BDB6814
:10147C00BB60BA684FF6FF031340BB60FB681A02EF
:10148C00BB68134343F0BF6343F40033BB60044AAF
:10149C00BB68D36000BF1437BD4680BC704700BF2B
:1014AC0000ED00E080B400AF044BDB681B0A03F0D6
:1014BC0007031846BD4680BC704700BF00ED00E036
:1014CC0080B483B000AF03463960FB7197F90730E5
:1014DC00002B0ADB3B68DAB20C4997F90730120192
:1014EC00D2B20B4483F800230AE03B68DAB2084915
:1014FC00FB7903F00F03043B1201D2B20B441A76B2
:10150C0000BF0C37BD4680BC704700BF00E100E057
:10151C0000ED00E080B489B000AFF860B9607A608B
:10152C00FB6803F00703FB61FB69C3F10703042BA2
:10153C0028BF0423BB61FB690433062B02D9FB696A
:10154C00033B00E000237B614FF0FF32BB6902FAE2
:10155C0003F3DA43BB681A407B699A404FF0FF31C2
:10156C007B6901FA03F3D9437B680B40134318469C
:10157C002437BD4680BC704780B582B000AF786020
:10158C007B68013BB3F1807F01D301230FE00A4A52
:10159C007B68013B53600F214FF0FF30FFF790FF4A
:1015AC00054B00229A60044B07221A600023184650
:1015BC000837BD4680BD00BF10E000E080B582B0AA
:1015CC0000AF78607868FFF749FF00BF0837BD4669
:1015DC0080BD80B586B000AF0346B9607A60FB73FE
:1015EC0000237B61FFF75EFF78617A68B9687869E0
:1015FC00FFF790FF024697F90F3011461846FFF798
:10160C005FFF00BF1837BD4680BD80B582B000AF0C
:10161C0078607868FFF7B0FF034618460837BD4678
:10162C0080BD000080B48BB000AF786039600023BF
:10163C007B6200233B6269E101227B6A02FA03F3BD
:10164C00FB613B681B68FA691340BB61BA69FB69B3
:10165C009A4240F058813B685B689A4A93425ED04C
:10166C00984A934275D8984A934258D0964A9342D6
:10167C006FD8964A934252D0944A934269D8944A6E
:10168C0093424CD0924A934263D8924A934246D0AA
:10169C00904A93425DD8122B2AD8122B59D801A20A
:1016AC0052F823F02B17000805170008171700082D
:1016BC00591700085F1700085F1700085F1700082C
:1016CC005F1700085F1700085F1700085F17000816
:1016DC005F1700085F1700085F1700085F17000806
:1016EC005F1700085F1700080D1700082117000886
:1016FC00794A934213D02CE03B68DB683B6229E0CB
:10170C003B68DB6804333B6224E03B68DB680833EE
:10171C003B621FE03B68DB680C333B621AE03B68C2
:10172C009B68002B02D104233B6213E03B689B684F
:10173C00012B05D108233B627B68FA691A6109E029
:10174C0008233B627B68FA695A6103E000233B6221
:10175C0000E000BFBB69FF2B01D87B6801E07B6810
:10176C0004337B61BB69FF2B02D87B6A9B0002E0D0
:10177C007B6A083B9B003B617B691A680F213B69C4
:10178C0001FA03F3DB431A40396A3B6901FA03F3AC
:10179C001A437B691A603B685B6803F08053002B2B
:1017AC0000F0B1804D4B9B694C4A43F001039361AF
:1017BC004A4B9B6903F00103BB60BB68484A7B6AD8
:1017CC009B08023352F82330FB607B6A03F003035F
:1017DC009B000F2202FA03F3DB43FA681340FB6011
:1017EC007B68404A934213D07B683F4A93420DD0AA
:1017FC007B683E4A934207D07B683D4A934201D1B5
:10180C00032306E0042304E0022302E0012300E0AA
:10181C0000237A6A02F0030292009340FA681343A1
:10182C00FB602F497B6A9B080233FA6841F823203E
:10183C003B685B6803F48013002B06D02D4B9A6831
:10184C002C49BB6913438B6006E02A4B9A68BB6931
:10185C00DB43284913408B603B685B6803F400133F
:10186C00002B06D0234BDA682249BB691343CB60AB
:10187C0006E0204BDA68BB69DB431E491340CB60A2
:10188C003B685B6803F40033002B06D0194B5A6895
:10189C001849BB6913434B6006E0164B5A68BB6989
:1018AC00DB43144913404B603B685B6803F48033A3
:1018BC00002B21D00F4B1A680E49BB6913430B60E8
:1018CC0021E000BF00003210000031100000221097
:1018DC000000211000001210000011100010024036
:1018EC000000014000080140000C014000100140C4
:1018FC0000140140000401400B4B1A68BB69DB4328
:10190C00094913400B607B6A01337B623B681A68A0
:10191C007B6A22FA03F3002B7FF48EAE00BF00BF6C
:10192C002C37BD4680BC70470004014080B483B0A6
:10193C0000AF78600B467B8013467B707B78002B66
:10194C0003D07A887B681A6103E07B881A047B6871
:10195C001A6100BF0C37BD4680BC704780B584B09F
:10196C0000AF78607B68002B01D101232BE17B68F1
:10197C0093F83D30DBB2002B06D17B68002283F854
:10198C003C207868FFF736F87B68242283F83D20EA
:10199C007B681B681A687B681B6822F001021A605E
:1019AC007B681B681A687B681B6842F400421A60EB
:1019BC007B681B681A687B681B6822F400421A60FB
:1019CC0001F0AAFEF8607B685B68814A934207D8F5
:1019DC00FB68804A934294BF01230023DBB206E0EC
:1019EC00FB687D4A934294BF01230023DBB2002B9A
:1019FC0001D00123E7E0FB68784AA2FB03239B0C90
:101A0C00BB607B681B685B6823F03F017B681B68CD
:101A1C00BA680A435A607B681B681B6A23F03F0153
:101A2C007B685B686A4A934202D8BB68013309E061
:101A3C00BB684FF4967202FB03F3694AA2FB0323C3
:101A4C009B0901337A6812680B4313627B681B682D
:101A5C00DB6923F44F4222F0FF027B685B685C4930
:101A6C008B4219D8FB68591E7B685B685B00B1FB25
:101A7C00F3F3591C40F6FC730B40002B0AD0FB68A7
:101A8C00591E7B685B685B00B1FBF3F30133C3F356
:101A9C000B0351E004234FE07B689B68002B11D1B2
:101AAC00FB68581E7B6859680B465B000B44B0FB07
:101ABC00F3F30133C3F30B03002B0CBF01230023FF
:101ACC00DBB212E0FB68581E7B6859680B469B0022
:101ADC000B4499000B44B0FBF3F30133C3F30B033A
:101AEC00002B0CBF01230023DBB2002B01D0012300
:101AFC0022E07B689B68002B0ED1FB68581E7B682C
:101B0C0059680B465B000B44B0FBF3F30133C3F392
:101B1C000B0343F400430FE0FB68581E7B685968C5
:101B2C000B469B000B4499000B44B0FBF3F30133C1
:101B3C00C3F30B0343F44043796809681343CB6147
:101B4C007B681B681B6823F0C0017B68DA697B68C3
:101B5C001B6A1A437B681B680A431A607B681B6804
:101B6C009B6823F4034323F0FF037A6811697A68B6
:101B7C00D26811437A6812680B4393607B681B68C8
:101B8C00DB6823F0FF017B685A697B689B691A4309
:101B9C007B681B680A43DA607B681B681A687B6881
:101BAC001B6842F001021A607B6800221A647B6891
:101BBC00202283F83D207B6800221A637B68002278
:101BCC0083F83E20002318461037BD4680BD00BF69
:101BDC00A08601007F841E00FF083D0083DE1B43AE
:101BEC00D34D621080B588B002AFF8607A601A46A7
:101BFC000B467B8113463B81FFF702FC7861FB6847
:101C0C0093F83D30DBB2202B40F0E0807B690093F1
:101C1C00192301227049F86800F07EFF0346002B5F
:101C2C0001D00223D3E0FB6893F83C30012B01D1A7
:101C3C000223CCE0FB68012283F83C20FB681B6884
:101C4C001B6803F00103012B07D0FB681B681A68A3
:101C5C00FB681B6842F001021A60FB681B681A687B
:101C6C00FB681B6822F400621A60FB68212283F86F
:101C7C003D20FB68102283F83E20FB6800221A648A
:101C8C00FB687A685A62FB683A895A85FB685B8DF7
:101C9C009AB2FB681A85FB68504ADA6279897B69CB
:101CAC003A6AF86800F038FD0346002B01D0012396
:101CBC008DE000233B61FB681B685B693B61FB6843
:101CCC001B689B693B613B6966E07A69396AF86815
:101CDC0001F03CF80346002B0DD0FB681B6C042B69
:101CEC0007D1FB681B681A68FB681B6842F400721A
:101CFC001A6001236BE0FB685B6A1A78FB681B684F
:101D0C001A61FB685B6A5A1CFB685A62FB685B8D44
:101D1C009BB2013B9AB2FB685A85FB681B8D013B59
:101D2C009AB2FB681A85FB681B685B6903F00403B5
:101D3C00042B1BD1FB681B8D002B17D0FB685B6A37
:101D4C001A78FB681B681A61FB685B6A5A1CFB6893
:101D5C005A62FB685B8D9BB2013B9AB2FB685A8559
:101D6C00FB681B8D013B9AB2FB681A857A69396A4C
:101D7C00F86801F033F80346002B0DD0FB681B6CA0
:101D8C00042B07D1FB681B681A68FB681B6842F4BC
:101D9C0000721A6001231AE0FB681B8D002B94D192
:101DAC00FB681B681A68FB681B6842F400721A60B7
:101DBC00FB68202283F83D20FB68002283F83E203C
:101DCC00FB68002283F83C20002300E00223184625
:101DDC001837BD4680BD00BF020010000000FFFF99
:101DEC0080B588B002AFF860084611461A46034623
:101DFC007B810B463B811346FB80FFF701FB78612F
:101E0C00FB6893F83D30DBB2202B40F0D9807B6926
:101E1C000093192301226D49F86800F07DFE0346FA
:101E2C00002B01D00223CCE0FB6893F83C30012B53
:101E3C0001D10223C5E0FB68012283F83C20FB683A
:101E4C001B681B6803F00103012B07D0FB681B68A0
:101E5C001A68FB681B6842F001021A60FB681B6879
:101E6C001A68FB681B6822F400621A60FB68212266
:101E7C0083F83D20FB68402283F83E20FB6800225B
:101E8C001A64FB683A6A5A62FB68BA8C5A85FB681A
:101E9C005B8D9AB2FB681A85FB684D4ADA62F8884A
:101EAC003A8979897B690193BB6A00930346F86888
:101EBC0000F0B4FC0346002B52D0012381E07A6978
:101ECC00B96AF86800F042FF0346002B0DD0FB689E
:101EDC001B6C042B07D1FB681B681A68FB681B681A
:101EEC0042F400721A6001236BE0FB685B6A1A789B
:101EFC00FB681B681A61FB685B6A5A1CFB685A62B8
:101F0C00FB681B8D013B9AB2FB681A85FB685B8DE5
:101F1C009BB2013B9AB2FB685A85FB681B685B69F4
:101F2C0003F00403042B1BD1FB681B8D002B17D073
:101F3C00FB685B6A1A78FB681B681A61FB685B6A52
:101F4C005A1CFB685A62FB681B8D013B9AB2FB68FA
:101F5C001A85FB685B8D9BB2013B9AB2FB685A8574
:101F6C00FB681B8D002BAAD17A69B96AF86800F05E
:101F7C0035FF0346002B0DD0FB681B6C042B07D1DF
:101F8C00FB681B681A68FB681B6842F400721A60D5
:101F9C00012316E0FB681B681A68FB681B6842F497
:101FAC0000721A60FB68202283F83D20FB68002237
:101FBC0083F83E20FB68002283F83C20002300E0DD
:101FCC00022318461837BD4680BD00BF0200100022
:101FDC000000FFFF80B58CB002AFF86008461146D8
:101FEC001A4603467B810B463B811346FB8000233C
:101FFC003B62FFF705FA7862FB6893F83D30DBB281
:10200C00202B40F050827B6A0093192301228249D5
:10201C00F86800F081FD0346002B01D0022343E257
:10202C00FB6893F83C30012B01D102233CE2FB68A6
:10203C00012283F83C20FB681B681B6803F001033A
:10204C00012B07D0FB681B681A68FB681B6842F001
:10205C0001021A60FB681B681A68FB681B6822F493
:10206C0000621A60FB68222283F83D20FB68402244
:10207C0083F83E20FB6800221A64FB683A6B5A62B4
:10208C00FB68BA8E5A85FB685B8D9AB2FB681A8521
:10209C00FB68624ADA62F8883A8979897B6A01932B
:1020AC00BB6B00930346F86800F04EFC0346002B14
:1020BC0001D00123F8E1FB681B8D002B13D1002309
:1020CC00FB61FB681B685B69FB61FB681B689B69B8
:1020DC00FB61FB69FB681B681A68FB681B6842F4B0
:1020EC0000721A60CCE1FB681B8D012B1ED1FB68C2
:1020FC001B681A68FB681B6822F480621A6072B64F
:10210C0000BF0023BB61FB681B685B69BB61FB689C
:10211C001B689B69BB61BB69FB681B681A68FB6821
:10212C001B6842F400721A6062B635E0FB681B8DC6
:10213C00022B1ED1FB681B681A68FB681B6842F4F3
:10214C0000621A6072B600BF00237B61FB681B68DB
:10215C005B697B61FB681B689B697B617B69FB68C6
:10216C001B681A68FB681B6822F480621A6062B6EE
:10217C0012E0FB681B681A68FB681B6842F48062FB
:10218C001A6000233B61FB681B685B693B61FB6861
:10219C001B689B693B613B6972E1FB681B8D032BE0
:1021AC0000F21F81FB681B8D012B23D17A6AB96B5E
:1021BC00F86800F05BFE0346002B01D0012373E1AD
:1021CC00FB681B681A69FB685B6AD2B21A70FB6801
:1021DC005B6A5A1CFB685A62FB681B8D013B9AB206
:1021EC00FB681A85FB685B8D9BB2013B9AB2FB685E
:1021FC005A8545E1FB681B8D022B52D17B6A0093FB
:10220C00BB6B00220649F86800F086FC0346002BE5
:10221C0008D0012348E100BF020010000000FFFFBE
:10222C000400010072B600BFFB681B681A68FB68EB
:10223C001B6842F400721A60FB681B681A69FB6821
:10224C005B6AD2B21A70FB685B6A5A1CFB685A62F2
:10225C00FB681B8D013B9AB2FB681A85FB685B8D92
:10226C009BB2013B9AB2FB685A8562B600BFFB6811
:10227C001B681A69FB685B6AD2B21A70FB685B6AEE
:10228C005A1CFB685A62FB681B8D013B9AB2FB68B7
:10229C001A85FB685B8D9BB2013B9AB2FB685A8531
:1022AC00EEE07B6A0093BB6B00228149F86800F07A
:1022BC0033FC0346002B01D00123F5E0FB681B68BF
:1022CC001A68FB681B6822F480621A6072B600BF41
:1022DC00FB681B681A69FB685B6AD2B21A70FB68F0
:1022EC005B6A5A1CFB685A62FB681B8D013B9AB2F5
:1022FC00FB681A85FB685B8D9BB2013B9AB2FB684D
:10230C005A856C4B1B68DB086B4AA2FB03231A0A29
:10231C0013469B001344DA00D31A3B623B6A013B21
:10232C003B623B6A002B18D1FB6800221A63FB68E6
:10233C00202283F83D20FB68002283F83E20FB68B6
:10234C001B6C43F02002FB681A6462B600BFFB688A
:10235C00002283F83C200123A6E0FB681B685B6924
:10236C0003F00403042BD9D1FB681B681A68FB68C3
:10237C001B6842F400721A60FB681B681A69FB68E0
:10238C005B6AD2B21A70FB685B6A5A1CFB685A62B1
:10239C00FB681B8D013B9AB2FB681A85FB685B8D51
:1023AC009BB2013B9AB2FB685A8562B600BFFB68D0
:1023BC001B681A69FB685B6AD2B21A70FB685B6AAD
:1023CC005A1CFB685A62FB681B8D013B9AB2FB6876
:1023DC001A85FB685B8D9BB2013B9AB2FB685A85F0
:1023EC004EE07A6AB96BF86800F040FD0346002BAA
:1023FC0001D0012358E0FB681B681A69FB685B6A13
:10240C00D2B21A70FB685B6A5A1CFB685A62FB6892
:10241C001B8D013B9AB2FB681A85FB685B8D9BB2E6
:10242C00013B9AB2FB685A85FB681B685B6903F039
:10243C000403042B24D1FB681B8D032B07D1FB68F1
:10244C001B681A68FB681B6822F480621A60FB68C0
:10245C001B681A69FB685B6AD2B21A70FB685B6A0C
:10246C005A1CFB685A62FB681B8D013B9AB2FB68D5
:10247C001A85FB685B8D9BB2013B9AB2FB685A854F
:10248C00FB681B8D002B7FF488AEFB68202283F841
:10249C003D20FB68002283F83E20FB68002283F875
:1024AC003C20002300E0022318462837BD4680BD9F
:1024BC00040001001000002089B5F81480B58AB022
:1024CC0002AFF8607A603B600B467B81FEF798FFA9
:1024DC00F8610023BB61FB6893F83D30DBB2202B25
:1024EC0040F01181FB690093192301228849F86897
:1024FC0000F012FB0346002B01D0022304E1FB6821
:10250C0093F83C30012B01D10223FDE0FB68012242
:10251C0083F83C20FB681B681B6803F00103012B4C
:10252C0007D0FB681B681A68FB681B6842F0010245
:10253C001A60FB681B681A68FB681B6822F400624F
:10254C001A60FB68242283F83D20FB6800221A6481
:10255C00FB68704ADA62FB681B681A68FB681B68C8
:10256C0042F480721A60FB6900933B6800224FF0C2
:10257C000111F86800F0D0FA0346002B0DD0FB686F
:10258C001B681B6803F48073B3F5807F03D1FB6871
:10259C004FF400721A640323B6E07B89DBB21A464F
:1025AC00FB681B6802F0FE021A61FEF729FFF86156
:1025BC00FB681B685B6903F00203022B0CBF012351
:1025CC000023DBB2FB75FB681B685B6903F480635B
:1025DC00B3F5806F0CBF01230023DBB2BB7525E084
:1025EC00FEF70EFF0246FB69D31A3A689A4202D3F1
:1025FC003B68002B03D1FB68A02283F83D20FB68CD
:10260C001B685B6903F00203022B0CBF0123002340
:10261C00DBB2FB75FB681B685B6903F48063B3F585
:10262C00806F0CBF01230023DBB2BB75FB6893F8F2
:10263C003D30DBB2A02B05D0FB7D002B02D1BB7D46
:10264C00002BCDD0FB68202283F83D20FB681B6853
:10265C005B6903F00203022B29D1FB681B681A6823
:10266C00FB681B6842F400721A6000233B61FB6834
:10267C001B685B693B61FB681B689B693B613B6941
:10268C00FB690093192301222149F86800F044FAF0
:10269C000346002B01D0012336E0FB68202283F88F
:1026AC003D20FB68002283F83C2000232CE0FB68D3
:1026BC001B681A68FB681B6842F400721A60FB689E
:1026CC001B686FF480625A61FB6900931923012225
:1026DC000F49F86800F020FA0346002B01D00123C3
:1026EC0012E0BB690133BB61BA697B689A42FFF4A3
:1026FC0032AFFB68202283F83D20FB68002283F870
:10270C003C20012300E0022318462037BD4680BD43
:10271C00020010000000FFFF80B588B002AFF86027
:10272C007A603B600B467B81FB68DB6A7B617B6973
:10273C00082B06D07B69012B03D07B6913F5803FF6
:10274C0008D1FB681B681A68FB681B6842F480722E
:10275C001A600BE0FB681B6B122B07D1FB681B6824
:10276C001A68FB681B6842F480721A603B6800931D
:10277C007B6800224FF00111F86800F0CDF9034698
:10278C00002B0DD0FB681B681B6803F48073B3F53A
:10279C00807F03D1FB684FF400721A64032335E089
:1027AC00FB681B69B3F5804F08D17B89DBB21A46F5
:1027BC00FB681B6802F0FE021A611BE07B89DB11CF
:1027CC00DBB203F00603DBB263F00F03DAB2FB6893
:1027DC001B681A613B687A680E49F86800F016FAB3
:1027EC000346002B01D0012310E07B89DAB2FB6891
:1027FC001B681A613B687A680749F86800F006FAAA
:10280C000346002B01D0012300E0002318461837A3
:10281C00BD4680BD080001000200010080B588B0F3
:10282C0002AFF860084611461A4603467B810B46F8
:10283C003B811346FB80FB681B681A68FB681B68AE
:10284C0042F480721A607B6A00933B6A00224FF05C
:10285C000111F86800F060F90346002B0DD0FB68FD
:10286C001B681B6803F48073B3F5807F03D1FB688E
:10287C004FF400721A6403235FE07B89DBB21A46C3
:10288C00FB681B6802F0FE021A617B6A3A6A2D49EA
:10289C00F86800F0BBF90346002B01D001234CE093
:1028AC0000237B61FB681B685B697B61FB681B68B1
:1028BC009B697B617B697A6A396AF86800F046FA31
:1028CC000346002B0DD0FB681B6C042B07D1FB6857
:1028DC001B681A68FB681B6842F400721A600123BB
:1028EC002BE0FB88012B05D13B89DAB2FB681B6816
:1028FC001A6121E03B891B0A9BB2DAB2FB681B68A8
:10290C001A617A6A396AF86800F020FA0346002BDB
:10291C000DD0FB681B6C042B07D1FB681B681A6875
:10292C00FB681B6842F400721A60012305E03B89C6
:10293C00DAB2FB681B681A61002318461837BD46CB
:10294C0080BD00BF0200010080B588B002AFF86006
:10295C00084611461A4603467B810B463B811346BB
:10296C00FB80FB681B681A68FB681B6842F480627A
:10297C001A60FB681B681A68FB681B6842F480725B
:10298C001A607B6A00933B6A00224FF00111F868D1
:10299C0000F0C2F80346002B0DD0FB681B681B68C7
:1029AC0003F48073B3F5807F03D1FB684FF400729E
:1029BC001A640323AAE07B89DBB21A46FB681B6806
:1029CC0002F0FE021A617B6A3A6A5249F86800F01A
:1029DC001DF90346002B01D0012397E000237B61F6
:1029EC00FB681B685B697B61FB681B689B697B618F
:1029FC007B697A6A396AF86800F0A8F90346002BFB
:102A0C000DD0FB681B6C042B07D1FB681B681A6884
:102A1C00FB681B6842F400721A60012376E0FB88A5
:102A2C00012B05D13B89DAB2FB681B681A6121E0E6
:102A3C003B891B0A9BB2DAB2FB681B681A617A6A83
:102A4C00396AF86800F082F90346002B0DD0FB6858
:102A5C001B6C042B07D1FB681B681A68FB681B688E
:102A6C0042F400721A60012350E03B89DAB2FB6831
:102A7C001B681A617A6A396AF86800F067F90346CC
:102A8C00002B0DD0FB681B6C042B07D1FB681B685B
:102A9C001A68FB681B6842F400721A60012335E067
:102AAC00FB681B681A68FB681B6842F480721A602A
:102ABC007B6A00933B6A00224FF00111F86800F02A
:102ACC002BF80346002B0DD0FB681B681B6803F426
:102ADC008073B3F5807F03D1FB684FF400721A64E6
:102AEC00032313E07B89DBB243F00103DAB2FB680A
:102AFC001B681A617B6A3A6A0649F86800F086F826
:102B0C000346002B01D0012300E0002318461837A0
:102B1C00BD4680BD0200010080B584B000AFF860F6
:102B2C00B9603B601346FB7148E03B68B3F1FF3F73
:102B3C0044D0FEF765FC0246BB69D31A3A689A4248
:102B4C0002D33B68002B39D1BB681B0CDBB2012BC9
:102B5C000DD1FB681B685B69DA43BB6813409BB201
:102B6C00002B0CBF01230023DBB21A460CE0FB68E0
:102B7C001B689B69DA43BB6813409BB2002B0CBFEC
:102B8C0001230023DBB21A46FB799A4216D1FB686B
:102B9C0000221A63FB68202283F83D20FB68002288
:102BAC0083F83E20FB681B6C43F02002FB681A6420
:102BBC00FB68002283F83C20012323E0BB681B0C3C
:102BCC00DBB2012B0DD1FB681B685B69DA43BB6878
:102BDC0013409BB2002B0CBF01230023DBB21A461F
:102BEC000CE0FB681B689B69DA43BB6813409BB223
:102BFC00002B0CBF01230023DBB21A46FB799A424F
:102C0C0093D0002318461037BD4680BD80B584B0E4
:102C1C0000AFF860B9607A603B6071E0FB681B68DC
:102C2C005B6903F48063B3F5806F23D1FB681B6889
:102C3C001A68FB681B6842F400721A60FB681B6818
:102C4C006FF480625A61FB6800221A63FB682022D1
:102C5C0083F83D20FB68002283F83E20FB681B6C48
:102C6C0043F00402FB681A64FB68002283F83C20E2
:102C7C00012367E07B68B3F1FF3F41D0FEF7C0FB57
:102C8C0002463B68D31A7A689A4202D37B68002BBF
:102C9C0036D1BB681B0CDBB2012B0CD1FB681B685B
:102CAC005B69DA43BB6813409BB2002B14BF012352
:102CBC000023DBB20BE0FB681B689B69DA43BB6843
:102CCC0013409BB2002B14BF01230023DBB2002B5B
:102CDC0016D0FB6800221A63FB68202283F83D2083
:102CEC00FB68002283F83E20FB681B6C43F020023B
:102CFC00FB681A64FB68002283F83C20012321E066
:102D0C00BB681B0CDBB2012B0CD1FB681B685B692D
:102D1C00DA43BB6813409BB2002B14BF0123002382
:102D2C00DBB20BE0FB681B689B69DA43BB681340A2
:102D3C009BB2002B14BF01230023DBB2002B7FF4CA
:102D4C006DAF002318461037BD4680BD80B584B0EA
:102D5C0000AFF860B9607A6034E0F86800F0E3F82E
:102D6C000346002B01D0012334E0BB68B3F1FF3FD5
:102D7C0028D0FEF745FB02467B68D31ABA689A4204
:102D8C0002D3BB68002B1DD1FB681B685B6903F089
:102D9C008003802B16D0FB6800221A63FB6820226C
:102DAC0083F83D20FB68002283F83E20FB681B6CF7
:102DBC0043F02002FB681A64FB68002283F83C2075
:102DCC00012307E0FB681B685B6903F08003802B21
:102DDC00C3D1002318461037BD4680BD80B584B0E2
:102DEC0000AFF860B9607A6034E0F86800F09BF8E6
:102DFC000346002B01D0012334E0BB68B3F1FF3F45
:102E0C0028D0FEF7FDFA02467B68D31ABA689A42BC
:102E1C0002D3BB68002B1DD1FB681B685B6903F0F8
:102E2C000403042B16D0FB6800221A63FB682022D3
:102E3C0083F83D20FB68002283F83E20FB681B6C66
:102E4C0043F02002FB681A64FB68002283F83C20E4
:102E5C00012307E0FB681B685B6903F00403042B88
:102E6C00C3D1002318461037BD4680BD80B584B051
:102E7C0000AFF860B9607A6049E0FB681B685B6979
:102E8C0003F01003102B19D1FB681B686FF01002B4
:102E9C005A61FB6800221A63FB68202283F83D20EC
:102EAC00FB68002283F83E20FB681A6CFB681A64EE
:102EBC00FB68002283F83C20012330E0FEF7A0FAE7
:102ECC0002467B68D31ABA689A4202D3BB68002BBD
:102EDC001DD1FB681B685B6903F04003402B16D0C7
:102EEC00FB6800221A63FB68202283F83D20FB68F4
:102EFC00002283F83E20FB681B6C43F02002FB6829
:102F0C001A64FB68002283F83C20012307E0FB686D
:102F1C001B685B6903F04003402BAED100231846BD
:102F2C001037BD4680BD80B483B000AF78607B683D
:102F3C001B685B6903F48063B3F5806F1BD17B68FE
:102F4C001B686FF480625A617B6800221A637B688D
:102F5C00202283F83D207B68002283F83E207B688A
:102F6C001B6C43F004027B681A647B68002283F8B4
:102F7C003C20012300E0002318460C37BD4680BCE2
:102F8C007047000080B586B000AF78607B68002B7E
:102F9C0001D1012372E27B681B6803F00103002B53
:102FAC0000F08780924B5B6803F00C03042B0CD071
:102FBC008F4B5B6803F00C03082B12D18C4B5B68B6
:102FCC0003F48033B3F5803F0BD1894B1B6803F4BA
:102FDC000033002B6CD07B685B68002B68D101231D
:102FEC004CE27B685B68B3F5803F06D1804B1B6875
:102FFC007F4A43F4803313602EE07B685B68002BC0
:10300C000CD17B4B1B687A4A23F480331360784BCA
:10301C001B68774A23F4802313601DE07B685B6890
:10302C00B3F5A02F0CD1724B1B68714A43F480236B
:10303C0013606F4B1B686E4A43F4803313600BE0D4
:10304C006B4B1B686A4A23F480331360684B1B6814
:10305C00674A23F4802313607B685B68002B13D0D2
:10306C00FEF7CEF9386108E0FEF7CAF902463B6973
:10307C00D31A642B01D9032300E25D4B1B6803F4C4
:10308C000033002BF0D014E0FEF7BAF9386108E0F9
:10309C00FEF7B6F902463B69D31A642B01D9032318
:1030AC00ECE1534B1B6803F40033002BF0D100E030
:1030BC0000BF7B681B6803F00203002B63D04C4BF2
:1030CC005B6803F00C03002B0BD0494B5B6803F0DF
:1030DC000C03082B1CD1464B5B6803F48033002B8C
:1030EC0016D1434B1B6803F00203002B05D07B6801
:1030FC001B69012B01D00123C0E13D4B1B6823F060
:10310C00F8027B685B69DB00394913430B603AE0DA
:10311C007B681B69002B20D0364B01221A60FEF70E
:10312C006FF9386108E0FEF76BF902463B69D31A78
:10313C00022B01D90323A1E12D4B1B6803F00203E1
:10314C00002BF0D02A4B1B6823F0F8027B685B69DC
:10315C00DB00274913430B6015E0264B00221A6055
:10316C00FEF74EF9386108E0FEF74AF902463B6972
:10317C00D31A022B01D9032380E11D4B1B6803F0EA
:10318C000203002BF0D17B681B6803F00803002BB3
:10319C003AD07B689B69002B19D0174B01221A601F
:1031AC00FEF72EF9386108E0FEF72AF902463B6972
:1031BC00D31A022B01D9032360E10D4B5B6A03F098
:1031CC000203002BF0D0012000F0BAFA1CE00A4BED
:1031DC0000221A60FEF714F938610FE0FEF710F9BF
:1031EC0002463B69D31A022B08D9032346E100BFE0
:1031FC00001002400000424280044242924B5B6A43
:10320C0003F00203002BE9D17B681B6803F0040375
:10321C00002B00F0A6800023FB758B4BDB6903F0C1
:10322C008053002B0DD1884BDB69874A43F08053C8
:10323C00D361854BDB6903F08053BB60BB68012312
:10324C00FB75824B1B6803F48073002B18D17F4BEA
:10325C001B687E4A43F480731360FEF7D1F8386123
:10326C0008E0FEF7CDF802463B69D31A642B01D96E
:10327C00032303E1754B1B6803F48073002BF0D020
:10328C007B68DB68012B06D16F4B1B6A6E4A43F0DF
:10329C00010313622DE07B68DB68002B0CD16A4BB9
:1032AC001B6A694A23F001031362674B1B6A664A67
:1032BC0023F0040313621CE07B68DB68052B0CD144
:1032CC00614B1B6A604A43F0040313625E4B1B6A3A
:1032DC005D4A43F0010313620BE05B4B1B6A5A4AD5
:1032EC0023F001031362584B1B6A574A23F0040363
:1032FC0013627B68DB68002B15D0FEF781F8386110
:10330C000AE0FEF77DF802463B69D31A41F2883297
:10331C00934201D90323B1E04B4B1B6A03F0020328
:10332C00002BEED014E0FEF76BF838610AE0FEF7E4
:10333C0067F802463B69D31A41F28832934201D9AD
:10334C0003239BE0404B1B6A03F00203002BEED1DE
:10335C00FB7D012B05D13C4BDB693B4A23F08053B1
:10336C00D3617B68DB69002B00F08780364B5B6890
:10337C0003F00C03082B61D07B68DB69022B46D170
:10338C00334B00221A60FEF73BF8386108E0FEF779
:10339C0037F802463B69D31A022B01D903236DE09F
:1033AC00294B1B6803F00073002BF0D17B681B6A60
:1033BC00B3F5803F08D1244B5B6823F400327B6863
:1033CC009B68214913434B601F4B5B6823F47412B9
:1033DC007B68196A7B685B6A0B431B4913434B6020
:1033EC001B4B01221A60FEF70BF8386108E0FEF760
:1033FC0007F802463B69D31A022B01D903233DE09F
:10340C00114B1B6803F00073002BF0D035E0104B10
:10341C0000221A60FDF7F4FF386108E0FDF7F0FFB9
:10342C0002463B69D31A022B01D9032326E0064B33
:10343C001B6803F00073002BF0D11EE07B68DB6986
:10344C00012B07D1012319E000100240007000404D
:10345C00600042420B4B5B68FB60FB6803F48032FC
:10346C007B681B6A9A4206D1FB6803F470127B6876
:10347C005B6A9A4201D0012300E0002318461837FA
:10348C00BD4680BD0010024080B584B000AF7860AE
:10349C0039607B68002B01D10123D0E06A4B1B689B
:1034AC0003F007033A689A4210D9674B1B6823F064
:1034BC00070265493B6813430B60634B1B6803F0C1
:1034CC0007033A689A4201D00123B8E07B681B6875
:1034DC0003F00203002B20D07B681B6803F004036D
:1034EC00002B05D0594B5B68584A43F4E06353609A
:1034FC007B681B6803F00803002B05D0534B5B68FB
:10350C00524A43F460535360504B5B6823F0F00213
:10351C007B689B684D4913434B607B681B6803F0C9
:10352C000103002B40D07B685B68012B07D1474B14
:10353C001B6803F40033002B15D101237FE07B685B
:10354C005B68022B07D1414B1B6803F00073002B07
:10355C0009D1012373E03D4B1B6803F00203002BE0
:10356C0001D101236BE0394B5B6823F003027B68CC
:10357C005B68364913434B60FDF742FFF8600AE085
:10358C00FDF73EFF0246FB68D31A41F288329342A4
:10359C0001D9032353E02D4B5B6803F00C027B68CD
:1035AC005B689B009A42EBD1274B1B6803F0070327
:1035BC003A689A4210D2244B1B6823F00702224926
:1035CC003B6813430B60204B1B6803F007033A68FE
:1035DC009A4201D0012332E07B681B6803F004039C
:1035EC00002B08D0194B5B6823F4E0627B68DB6826
:1035FC00164913434B607B681B6803F00803002BD0
:10360C0009D0124B5B6823F460527B681B69DB00AA
:10361C000E4913434B6000F021F802460B4B5B68DC
:10362C001B0903F00F030A49CB5C22FA03F3094A86
:10363C001360094B1B681846FDF7A0FE00231846C3
:10364C001037BD4680BD00BF002002400010024074
:10365C00F4550008100000201400002080B487B03E
:10366C0000AF0023FB600023BB6000237B610023C1
:10367C007B6000233B611E4B5B68FB60FB6803F0C7
:10368C000C03042B02D0082B03D027E0194B3B6111
:10369C0027E0FB689B0C03F00F03174AD35C7B609D
:1036AC00FB6803F48033002B10D0114B5B685B0C70
:1036BC0003F00103114AD35CBB607B680D4A03FB2A
:1036CC0002F2BB68B2FBF3F37B6104E07B680C4A4B
:1036DC0002FB03F37B617B693B6102E0054B3B61C1
:1036EC0000BF3B6918461C37BD4680BC704700BF05
:1036FC000010024000127A000C5600081C560008FC
:10370C0000093D0080B400AF024B1B681846BD4653
:10371C0080BC70471000002080B500AFFFF7F2FFAF
:10372C000246054B5B681B0A03F007030349CB5C9D
:10373C0022FA03F3184680BD00100240045600081C
:10374C0080B485B000AF78600A4B1B680A4AA2FBB4
:10375C0003235B0A7A6802FB03F3FB6000BFFB6880
:10376C005A1EFA60002BF9D100BF00BF1437BD46BA
:10377C0080BC704710000020D34D62100EB46FF067
:10378C00004110B500249DB01FAB0290069007912C
:10379C0004910948094953F8042B0591006802A9C2
:1037AC0001931B9400F092F9029B1C701DB0BDE8B4
:1037BC00104003B0704700BF1C0000200802FFFF40
:1037CC0003460244934200D1704703F8011BF9E70A
:1037DC00014B1868704700BF1C00002070B5002614
:1037EC000C4D0D4C641BA410A64209D100F076FCC4
:1037FC0000260A4D0A4C641BA410A64205D170BDCC
:10380C0055F8043B98470136EEE755F8043B9847CA
:10381C000136F2E754560008545600085456000876
:10382C00585600087047704738B50546002940D0F7
:10383C0051F8043C0C1F002BB8BFE41800F0DEF864
:10384C001C4A136833B9636014602846BDE83840DD
:10385C0000F0DAB8A34208D9206821188B4201BFC6
:10386C0019685B6809182160EDE71A465B680BB1B3
:10387C00A342FAD911685018A0420BD12068014418
:10388C00501883421160E0D118685B6808441060DE
:10389C005360DAE702D90C232B60D6E72068211895
:1038AC008B4201BF19685B68091821606360546022
:1038BC00CBE738BDA806002070B50F4E0C4631681A
:1038CC00054611B900F0A8FB30602146284600F0EF
:1038DC00A3FB431C03D14FF0FF34204670BDC41C26
:1038EC0024F00304A042F8D0211A284600F094FBDF
:1038FC000130F2D1EFE700BFA40600202DE9F84318
:10390C00CD1C25F0030508350C2D38BF0C25002DDA
:10391C00064601DBA94204D90C2333600020BDE824
:10392C00F883DFF8D48000F069F8D8F800301C4632
:10393C0044BB29463046FFF7BFFF431C044658D111
:10394C00D8F800402746002F43D1002C4BD02368D9
:10395C003946304604EB030900F05EFB814542D149
:10396C00216830466D1A2946FFF7A6FF01303AD080
:10397C0023682B442360D8F800305A6862BBC8F81F
:10398C0000700FE02268521B20D40B2A17D9611942
:10399C00A342256018BF5960636808BFC8F80010BF
:1039AC0062514B60304600F02FF804F10B00231DE0
:1039BC0020F00700C21A1CBF1B1AA350AFE76268A5
:1039CC00A3420CBFC8F800205A60EBE7234664689A
:1039DC00AEE73C467F68B6E71A465B68A342FBD16C
:1039EC0000235360DEE70C233046336000F00CF804
:1039FC0094E70560D6E700BFA80600200148FFF752
:103A0C0011BF00BFA00600200148FFF70CBF00BF8C
:103A1C00A00600202DE9F0471F468E688246BE4264
:103A2C000C4690460B682DD8B1F90C2012F4906F0F
:103A3C0026D06569096905EB4505A3EB010905EB82
:103A4C00D5757B1C4B446D109D4238BF1D465305EC
:103A5C0027D52946FFF752FF064660B34A4621692F
:103A6C0000F0F8FAA38923F4906343F08003A38158
:103A7C0026614E4426603E466561A5EB0905A560AE
:103A8C00BE4200D93E4632464146206800F0AAFAB2
:103A9C000020A3689B1BA360236833442360BDE80C
:103AAC00F0872A4600F0E4FA06460028E0D150469A
:103ABC002169FFF7B9FE0C23CAF80030A3894FF037
:103ACC00FF3043F04003A381E9E700002DE9F04FFC
:103ADC0098468B8907461B060D4614469DB010D59B
:103AEC000B6973B94021FFF709FF2860286130B9D1
:103AFC000C233B604FF0FF301DB0BDE8F08F40232E
:103B0C006B610023099320238DF8293030234FF06B
:103B1C000109CDF80C80DFF898818DF82A30234606
:103B2C009A4613F8012B0AB1252AF9D1BAEB040BEA
:103B3C000BD05B46224629463846FFF76BFF013017
:103B4C0000F0A780099A5A4409929AF80030002B89
:103B5C0000F09F8000234FF0FF32CDE905230AF1DE
:103B6C00010A049307938DF853301A935446052297
:103B7C0014F8011B4E4800F05FFA049AD8B9D0062D
:103B8C0044BF20238DF85330110744BF2B238DF8ED
:103B9C0053309AF800302A2B15D0544600204FF0A1
:103BAC000A0C079A214611F8013B303B092B4BD9E3
:103BBC00B0B1079214E0A0EB080309FA03F3134326
:103BCC00A2460493D2E7039B191D1B680391002B9B
:103BDC00BBBF5B4242F0020207930793B8BF04924B
:103BEC0023782E2B0AD163782A2B32D1039B0234F3
:103BFC001A1D1B68039243EAE3730593DFF8B4A024
:103C0C0003225046217800F017FA38B14022049B69
:103C1C00A0EB0A00824013430134049314F8011BF7
:103C2C00062225488DF8281000F006FA002836D018
:103C3C00224B1BBB039B073323F00703083303936F
:103C4C00099B334409936AE70C4601200CFB0232B2
:103C5C00A8E700234FF00A0C1946013405932046BF
:103C6C0010F8012B303A092A03D9002BC6D0059144
:103C7C00C4E7044601230CFB0121F0E703AB0093DE
:103C8C002A4638460E4B04A9AFF30080421C064668
:103C9C00D6D1AB895B063FF52DAF09982CE703AB6A
:103CAC0000932A463846064B04A900F07DF8EDE750
:103CBC001E56000824560008285600080000000074
:103CCC00213A00082DE9F047164698468A680B6998
:103CDC0007469342B8BF1346336091F843200C4615
:103CEC00DDF820900AB1013333602368990642BF96
:103CFC00336802333360256815F0060506D104F1EC
:103D0C00190AE36832689B1AAB422BDC94F84330F7
:103D1C002268003B18BF0123920630D44146384636
:103D2C0004F14302C847013023D02368226903F011
:103D3C000603042B14BF002533684FF0000608BFA0
:103D4C00E56804F11A0408BFED1A54F8123C08BFD8
:103D5C0025EAE5759342C4BF9B1AED18B5421AD1FA
:103D6C00002008E00123524641463846C84701303E
:103D7C0003D14FF0FF30BDE8F0870135C1E73020AB
:103D8C00E11881F843005A1C94F845102244023380
:103D9C0082F84310C2E70123224641463846C84701
:103DAC000130E6D00136D9E72DE9FF470F7E914669
:103DBC00782F80460C469A460C9E01F1430207D898
:103DCC00622F0AD8002F00F0D180582F00F0B88055
:103DDC0004F1420684F842703AE0A7F16303152B14
:103DEC00F6D801A151F823F04D3E0008613E0008C1
:103DFC00DD3D0008DD3D0008DD3D0008DD3D00082F
:103E0C00613E0008DD3D0008DD3D0008DD3D000899
:103E1C00DD3D00085F3F00088B3E0008193F00089D
:103E2C00DD3D0008DD3D0008813F0008DD3D000858
:103E3C008B3E0008DD3D0008DD3D0008213F0008F9
:103E4C0033681A1D1B68326004F1420684F8423054
:103E5C0001239CE033682068191D3160060601D5EA
:103E6C001D6803E04506FBD5B3F90050002D03DABD
:103E7C002D236D4284F843300A23584811E0216801
:103E8C003368080653F8045B02D4490648BFADB248
:103E9C006F2F336014BF0A2308235048002184F885
:103EAC0043106668002EA66005DB21682E4321F0C6
:103EBC00040121604BD01646B5FBF3F103FB1157FF
:103ECC00C75D06F8017D2F46BB420D46F4D9082B81
:103EDC000BD12368DF0708D5236961689942DEBFDF
:103EEC00302306F8013C06F1FF36921B22614B464B
:103EFC0021464046CDF800A003AAFFF7E3FE0130AF
:103F0C004AD14FF0FF3004B0BDE8F087236843F08E
:103F1C00200323607827324884F845702368316881
:103F2C001F0651F8045B02D45F0648BFADB2316086
:103F3C00D90744BF43F0200323601DB11023ADE724
:103F4C002648E9E7236823F020032360F6E71646AA
:103F5C00BDE733682568181D616930602E061B6843
:103F6C0001D5196002E06806FBD5198000231646BE
:103F7C002361BCE7336800211A1D32601E68626839
:103F8C00304600F059F808B1801B6060636823610B
:103F9C00002384F84330AAE7324649464046236959
:103FAC00D0470130ADD023689B0713D4E068039B46
:103FBC009842B8BF1846A6E7012332464946404608
:103FCC00D04701309DD00135E36803995B1AAB42B1
:103FDC00F2DCEBE7002504F11906F5E72F56000893
:103FEC0040560008884210B501EB020402D9844205
:103FFC00234607D8431EA14208D011F8012B03F821
:10400C00012FF8E7014602448A4200D110BD13F893
:10401C00014D02F8014DF7E738B50023054D044674
:10402C0008462B60FDF732F9431C02D12B6803B113
:10403C00236038BD9C060020034610B5C9B202446B
:10404C009342184601D1002003E0047801338C42DE
:10405C00F6D110BD0A44914200F1FF3300D17047F4
:10406C0010B511F8014B914203F8014FF9D110BD75
:10407C002DE9F041074614460D4621B91146BDE81D
:10408C00F041FFF73BBC2AB9FFF7CEFB254628468B
:10409C00BDE8F08100F01AF88442064602D8B4EB71
:1040AC00500FF4D821463846FFF728FC804608B953
:1040BC004546ECE7B4422246294628BF3246FFF774
:1040CC00C9FF29463846FFF7AFFBF1E751F8043C2E
:1040DC00181F002BBCBF0B58C0187047F8B500BF99
:1040EC00F8BC08BC9E467047F8B500BFF8BC08BCCD
:0440FC009E46704725
:104100004D63726F70726F636573736F720000003E
:104110004D583330313032005241570049523A2520
:104120006C7500005245443A256C75000000000093
:10413000000000000000000000000000000000007F
:1041400000100010001000100010001000000010FF
:1041500000000000002800280028000000000000E7
:10416000000000000000000000240024007C002467
:104170000048007C0048004800000000003800545F
:1041800000500038001400540054003800100000A3
:10419000002000540058003000280054001400088B
:1041A0000000000000100028002800100034004823
:1041B0000048003400000000001000100010000053
:1041C00000000000000000000000000000080010D7
:1041D0000020002000200020002000200010000807
:1041E000002000100008000800080008000800086F
:1041F000001000200010003800100028000000000F
:10420000000000000000000000000000001000108E
:10421000007C001000100000000000000000000002
:10422000000000000000000000000010001000105E
:104230000000000000000000000000380000000046
:10424000000000000000000000000000000000006E
:10425000000000100000000000080008001000101E
:104260000010001000200020000000000038004472
:1042700000440054004400440044003800000000A2
:10428000001000300050001000100010001000104E
:104290000000000000380044004400040008001042
:1042A0000020007C000000000038004400040018DA
:1042B000000400040044003800000000000800185A
:1042C000002800280048007C0008000800000000CA
:1042D000007C0040004000780004000400440038E6
:1042E0000000000000380044004000780044004412
:1042F0000044003800000000007C000400080010AA
:1043000000100020002000200000000000380044C1
:10431000004400380044004400440038000000001D
:104320000038004400440044003C000400440038CD
:10433000000000000000000000100000000000006D
:10434000000000100000000000000000000000104D
:10435000000000000000001000100010000000002D
:10436000000C003000400030000C00000000000095
:10437000000000000000007C0000007C0000000045
:104380000000000000000000006000180004001899
:104390000060000000000000003800440004000835
:1043A0000010001000000010000000000038004461
:1043B000004C0054005C0040004000380000000049
:1043C00000100028002800280028007C0044004439
:1043D00000000000007800440044007800440044DD
:1043E0000044007800000000003800440040004015
:1043F0000040004000440038000000000070004809
:1044000000440044004400440048007000000000E4
:10441000007C00400040007C004000400040007CE8
:1044200000000000007C0040004000780040004098
:104430000040004000000000003800440040004000
:10444000005C0044004400380000000000440044C8
:104450000044007C0044004400440044000000008C
:10446000003800100010001000100010001000387C
:104470000000000000040004000400040004000424
:104480000044003800000000004400480050006074
:104490000050004800480044000000000040004078
:1044A00000400040004000400040007C0000000050
:1044B0000044006C006C005400440044004400447C
:1044C0000000000000440064006400540054004CEC
:1044D000004C004400000000003800440044004448
:1044E000004400440044003800000000007800440C
:1044F00000440044007800400040004000000000FC
:104500000038004400440044004400440054003893
:104510000004000000780044004400440078004893
:104520000048004400000000003800440040003013
:10453000000800040044003800000000007C001067
:10454000001000100010001000100010000000000B
:104550000044004400440044004400440044003847
:104560000000000000440044004400280028002807
:1045700000100010000000000044004400540054EB
:104580000054006C002800280000000000440028AF
:10459000002800100010002800280044000000003F
:1045A00000440044002800280010001000100010F3
:1045B00000000000007C0004000800100010002033
:1045C0000040007C000000000018001000100010E7
:1045D0000010001000100010001000180020002033
:1045E000001000100010001000080008000000007B
:1045F000003000100010001000100010001000101B
:1046000000100030001000280028004400000000C6
:10461000000000000000000000000000000000009A
:104620000000000000000000000000FE002000105C
:10463000000000000000000000000000000000007A
:104640000000000000380044003C0044004C0034EE
:104650000000000000400040005800640044004496
:104660000064005800000000000000000038004412
:104670000040004000440038000000000004000436
:104680000034004C00440044004C003400000000A2
:104690000000000000380044007C00400044003866
:1046A00000000000000C0010007C00100010001042
:1046B0000010001000000000000000000034004C5A
:1046C00000440044004C00340004007800400040E6
:1046D000005800640044004400440044000000000E
:1046E00000100000007000100010001000100010FA
:1046F000000000000010000000700010001000100A
:1047000000100010001000E0004000400048005081
:1047100000600050004800440000000000700010DD
:104720000010001000100010001000100000000029
:10473000000000000078005400540054005400545D
:104740000000000000000000005800640044004425
:104750000044004400000000000000000038004455
:104760000044004400440038000000000000000045
:1047700000580064004400440064005800400040B9
:10478000000000000034004C00440044004C0034A1
:1047900000040004000000000058006400400040D5
:1047A000004000400000000000000000003800440D
:1047B0000030000800440038000000000020002005
:1047C00000780020002000200020001800000000D9
:1047D000000000000044004400440044004C003449
:1047E00000000000000000000044004400280028F1
:1047F00000280010000000000000000000540054D9
:104800000054006C00280028000000000000000098
:1048100000440028001000100028004400000000A0
:104820000000000000440044002800280010001090
:104830000010006000000000007C00080010002054
:104840000040007C00000000001800100010001064
:1048500000200020001000100010001800100010B0
:1048600000100010001000100010001000100010C8
:1048700000300010001000100008000800100010A8
:10488000001000300000000000000074004C000028
:104890000000000000000000000000000000000018
:1048A0000000000000000000000000000000000008
:1048B0000000000000000000000000000000000CEC
:1048C000000C000C000C000C000C000C000C000C88
:1048D000000C000C0000000C000C000000000000A8
:1048E0000000001B001B001B001B001B0000000041
:1048F00000000000000000000000000000000000B8
:104900000000000000008019801980198019C07F04
:10491000C07F80190033C07FC07F00330033003375
:1049200000330000000000000000001E003F807502
:1049300080650074003C001E00078005806580656E
:104940008075003F001E000400040000000000709D
:1049500000D840D8C0D880D900730006000C801B56
:10496000C036C066C046C0068003000000000000DC
:104970000000001E003F003300330033001E000C17
:10498000C03CC066806380618063C03E801C0000C4
:10499000000000000000000C000C000C000C000CDB
:1049A0000000000000000000000000000000000007
:1049B000000000000000000080000001000300066D
:1049C00000060004000C000C000C000C000C000C95
:1049D0000004000600060003000180000020001013
:1049E0000018000C000C000400060006000600067B
:1049F000000600060004000C000C00180010002047
:104A00000000000C002D003F001E003300000000DD
:104A10000000000000000000000000000000000096
:104A200000000000000000000000000C000C000C62
:104A3000000CC0FFC0FF000C000C000C000C0000BC
:104A40000000000000000000000000000000000066
:104A50000000000000000000000000000000000056
:104A60000000000C000C000400040008000000001E
:104A70000000000000000000000000000000001E18
:104A8000001E000000000000000000000000000008
:104A90000000000000000000000000000000000016
:104AA00000000000000000000000000C000C0000EE
:104AB00000000000000000030003000300060006E1
:104AC00000060006000C000C000C000C001800187A
:104AD00000180000000000000000001E003F00332E
:104AE000806180618061806D806D806180618061A6
:104AF0000033003F001E0000000000000000000620
:104B0000000E001E00360026000600060006000605
:104B10000006000600060006000600000000000077
:104B20000000001E003F80738061806180010003EF
:104B30000006000C001800300060807F807F0000BD
:104B4000000000000000001C003E00630063000342
:104B5000000E000E00038001800180618073003F21
:104B6000001E00000000000000000006000E000E05
:104B7000001E001E0016003600360066807F807F13
:104B80000006000600060000000000000000007F94
:104B9000007F006000600060006E007F8063800125
:104BA000800180618073003F001E00000000000053
:104BB0000000001E003F803380610060006E007FB7
:104BC00080738061806180618033003F001E00003F
:104BD000000000000000807F807F80010003000350
:104BE00000060006000C000C000C0008001800185D
:104BF00000180000000000000000001E003F80635D
:104C0000806180610021001E003F806180618061C1
:104C10008061003F001E0000000000000000001E38
:104C2000003F00738061806180618073803F801DE0
:104C3000800180610073003F001E00000000000042
:104C400000000000000000000000000C000C00004C
:104C500000000000000000000000000C000C00003C
:104C60000000000000000000000000000000000044
:104C7000000C000C00000000000000000000000C10
:104C8000000C000400040008000000000000000008
:104C900080008003000E003800600038000E8003A2
:104CA0008000000000000000000000000000000084
:104CB000000000000000807F807F00000000807FF7
:104CC000807F0000000000000000000000000000E5
:104CD000000000000000000000400070001C000701
:104CE00080010007001C0070004000000000000070
:104CF000000000000000001F803FC071C060C000C5
:104D0000C00180030007000E000C000C0000000C26
:104D1000000C0000000000000000001E003F803179
:104D200080718063806F806D806D806F80670060B0
:104D30000032003E001C0000000000000000000ED9
:104D4000000E001B001B001B001B80318031803FC8
:104D5000803F8031C060C060C06000000000000083
:104D60000000007C007E0063006300630063007E3F
:104D7000007E0063806180618063007F007E0000B0
:104D8000000000000000001E003F803180610060D4
:104D90000060006000600060006080618031003F62
:104DA000001E0000000000000000007C007F006387
:104DB0008063806180618061806180618061006367
:104DC0000063007E007C0000000000000000807F87
:104DD000807F0060006000600060007F007F0060F6
:104DE000006000600060807F807F000000000000A5
:104DF0000000807F807F0060006000600060007FB6
:104E0000007F0060006000600060006000600000E3
:104E1000000000000000001E003F80318061006043
:104E20000060006080638063806180618031803FCA
:104E3000001E0000000000000000806180618061B1
:104E4000806180618061807F807F8061806180611E
:104E50008061806180610000000000000000003F70
:104E6000003F000C000C000C000C000C000C000CAF
:104E7000000C000C000C003F003F00000000000090
:104E8000000080018001800180018001800180019B
:104E900080018001806180618073003F001E0000FE
:104EA000000000000000C0608061006300660066D2
:104EB000006C0078007C00660066006380618061A1
:104EC000C0600000000000000000006000600060A2
:104ED00000600060006000600060006000600060D2
:104EE0000060807F807F0000000000000000C07133
:104EF000C071C07BC07AC06AC06AC06EC064C06046
:104F0000C060C060C060C060C06000000000000001
:104F1000000080718071807980798079806D806DEA
:104F2000806D806580678067806780638063000034
:104F3000000000000000001E003F0033806180611F
:104F40008061806180618061806180610033003FA9
:104F5000001E0000000000000000007E007F806353
:104F60008061806180618063007F007E00600060FE
:104F70000060006000600000000000000000001EF3
:104F8000003F003380618061806180618061806169
:104F9000806580670033803F401E000000000000F5
:104FA0000000007E007F8063806180618063007FFD
:104FB000007E00660063006380618061C060000065
:104FC000000000000000000E001F80318031003022
:104FD0000038001E00078003806180618031003F3F
:104FE000001E0000000000000000C0FFC0FF000C19
:104FF000000C000C000C000C000C000C000C000C51
:10500000000C000C000C000000000000000080619B
:105010008061806180618061806180618061806188
:10502000806180618073003F001E0000000000006E
:105030000000C060C060C060803180318031001BE2
:10504000001B001B001B000E000E000E00040000E1
:10505000000000000000C0C0C0C0C0C0C0C0C0C0D0
:10506000C0CC804C804C805E8052805280738061C6
:1050700080610000000000000000C0C0806080610E
:105080000033003B001E000C000C001E001F003B04
:1050900080718061C0C00000000000000000C0C03E
:1050A0008061806100330033001E001E000C000C84
:1050B000000C000C000C000C000C000000000000B4
:1050C0000000803F803F8001000300030006000CC9
:1050D000000C0018001800300060807F807F000006
:1050E00000000000000F000F000C000C000C000C72
:1050F000000C000C000C000C000C000C000C000C50
:10510000000C000C000F000F000000180018001821
:10511000000C000C000C000C000600060006000647
:10512000000300030003000000000000001E001E3A
:10513000000600060006000600060006000600063F
:10514000000600060006000600060006001E001EFF
:105150000000000C000C001E0012003300338061C0
:10516000806100000000000000000000000000005E
:10517000000000000000000000000000000000002F
:10518000000000000000000000000000000000001F
:1051900000000000E0FF0000000000380018000CD4
:1051A00000000000000000000000000000000000FF
:1051B00000000000000000000000000000000000EF
:1051C000000000000000001F803F80618001801F00
:1051D000803F80618063807FC03800000000000055
:1051E00000000060006000600060006E007F80735F
:1051F00080618061806180618073007F006E00004B
:105200000000000000000000000000000000001E80
:10521000003F807380610060006080618073003FA8
:10522000001E0000000000000000800180018001DD
:105230008001801D803F807380618061806180611A
:105240008073803F801D000000000000000000000F
:10525000000000000000001E003F00738061807F9E
:10526000807F00608071003F001E00000000000091
:105270000000C007C00F000C000C807F807F000C76
:10528000000C000C000C000C000C000C000C0000CA
:10529000000000000000000000000000801D803FB2
:1052A000807380618061806180618073803F801D38
:1052B00080018063007F003E0000006000600060AD
:1052C0000060006F807F807180618061806180619B
:1052D0008061806180610000000000000000000625
:1052E000000600000000003E003E0006000600062A
:1052F0000006000600060006000600000000000090
:105300000006000600000000003E003E0006000609
:10531000000600060006000600060006000600461D
:10532000007E003C00000060006000600060806162
:1053300000630066006C007C00760063006380619F
:10534000C0600000000000000000003E003E0006BB
:10535000000600060006000600060006000600061D
:10536000000600060006000000000000000000002B
:1053700000000000000080DDC0FFC0CEC0CCC0CC6B
:10538000C0CCC0CCC0CCC0CCC0CC00000000000061
:1053900000000000000000000000006F807F8071AE
:1053A00080618061806180618061806180610000D6
:1053B0000000000000000000000000000000001ECF
:1053C000003F807380618061806180618073003FF5
:1053D000001E0000000000000000000000000000AF
:1053E000006E007F80738061806180618061807366
:1053F000007F006E00600060006000600000000040
:1054000000000000801D803F8073806180618061AA
:1054100080618073803F801D800180018001800158
:10542000000000000000000000000067803F00391D
:10543000003000300030003000300030003000001C
:105440000000000000000000000000000000001E3E
:10545000803F80610060007F803F80018061007F2D
:10546000001E0000000000000000000000080018FE
:105470000018007F007F001800180018001800189E
:105480000018801F800F00000000000000000000D6
:1054900000000000000080618061806180618061A7
:1054A000806180618063807F803D0000000000009B
:1054B00000000000000000000000C060803180316A
:1054C0008031001B001B001B000E000E00060000B8
:1054D000000000000000000000000000000080DD6F
:1054E00080DD80DD005500550055007700770022F3
:1054F000002200000000000000000000000000008A
:105500000000806100330033001E000C000C001E00
:105510000033003380610000000000000000000044
:105520000000000080618061803100330033001B87
:10553000001B001B000E000E000E001C007C007003
:1055400000000000000000000000C07FC07F80015C
:1055500000030006000C00180030C07FC07F000070
:105560000000000080038007000600060006000619
:105570000006000E001C001C000E000600060006BF
:1055800000060006800780030006000600060006ED
:1055900000060006000600060006000600060006DB
:1055A0000006000600060006000600060038003C63
:1055B000000C000C000C000C000C000E0007000793
:1055C000000E000C000C000C000C000C003C00381D
:1055D0000000000000000000000000000000803813
:1055E000807F004700000000000000000000000075
:1055F00000000000000000000000000001020304A1
:105600000607080900000000010203040203040564
:10561000060708090A0B0C0D0E0F10100102232DAE
:10562000302B2000686C4C006566674546470030AB
:1056300031323334353637383941424344454600F8
:1056400030313233343536373839616263646566F8
:045650000000000056
:045654003101000818
:045658000D01000838
:10565C00070A00002C4100080B12000098480008B3
:10566C0000127A0010000000010000002000002051
:10567C000000000064050020CC050020340600204A
:10568C00000000000000000000000000000000000E
:10569C0000000000000000000000000000000000FE
:1056AC0000000000000000000000000000000000EE
:0C56BC00000000000000000000000000E2
:0400000508001311CB
:00000001FF
