:020000040800F2
:100000007004002071130008C9120008CB12000808
:10001000CD120008CF120008D11200080000000025
:10002000000000000000000000000000D3120008E3
:10003000D512000800000000D7120008D9120008ED
:10004000991300089D130008A1130008A5130008C8
:10005000A9130008AD130008B1130008B513000878
:10006000B9130008BD130008C1130008C513000828
:10007000C9130008CD130008D1130008D5130008D8
:10008000D9130008DD130008E1130008E513000888
:10009000E9130008ED130008F1130008F513000838
:1000A000F9130008FD1300080114000805140008E6
:1000B000091400080D140008111400081514000894
:1000C000191400081D140008211400082514000844
:1000D00029140008DD1200082D140008311400084E
:1000E00035140008391400083D14000838B5040020
:1000F00001D1012032BD04F14005687808B900F053
:1001000009F800F00CF800F022F8FFE7486100F071
:1001100010F832BD00212970204600F0B1BA242029
:1001200068702168C86820F40050C860204600F05C
:1001300048BA2168C86840F40050C8606A6020214D
:1001400069702020A8700021616300207047216839
:10015000086920F49040086100222168486920F075
:100160002A00704710B500F130039C7C202C0AD186
:1001700009B1140001D1012010BD00241C60BDE8AC
:10018000104000F067B9022010BD43E800210029AB
:100190007047226802F1140151E8001F143221F067
:1001A000400142E800100028F3D1E06B7047F8B539
:1001B00004462268136811460846CD68466913F064
:1001C0000F0F03F0200105F0200007D1002918BF10
:1001D00000285BD02046BDE8F2408BE1F70702D44F
:1001E00015F4907F52D0DA0705D5ED0503D5626C82
:1001F00042F0010262645A0705D5F50703D5626C27
:1002000042F0020262649A0705D5F50703D5626CD5
:1002100042F0040262641A0706D508B9F30703D551
:10022000626C42F008026264626C002A2DD00029E0
:100230001EBF0028204600F05DF920684069626C0E
:10024000110701D440061BD5204600F01EF9206896
:10025000416948060FD5FFF79CFF60B10FF2852179
:100260004163E06B00F078FA00280ED0E06B416B40
:10027000BDE8F44008472046BDE8F24000F0C8BAA7
:10028000204600F0C5FA00206064F1BD206B012813
:1002900004F1410140F08B80D80600D5EE0640F114
:1002A0008680002300931268009223685A680092A7
:1002B000009B2068426950063FD5E26B1068406899
:1002C00080B20028E1D0A38D9842DEDAE085906903
:1002D00020282AD0226802F10C0555E8002F20685A
:1002E00000F10C0322F4807243E800200028F1D1D1
:1002F00000F09CF8520800F11403520043E800207B
:100300000028F5D100F092F800F1140322F0400229
:1003100043E800200028F5D1202048700021216307
:1003200000F08BF8E06B00F0F3F902206063A18D20
:10033000E08D091A89B2204635E0A38DE28DE08D6B
:100340009B1A00281CBF98B200286ED02246156860
:1003500005F10C0454E8004F0C3524F4907445E882
:1003600000400028F3D1156805F1140454E8004F4B
:1003700064081435640045E800400028F3D12020CB
:10038000487000211163146804F10C0151E8001F4A
:100390000C3421F0100144E800100028F3D10220B1
:1003A000506399B21046BDE8F44000F032BA180626
:1003B0002BD52A0629D50878212836D1A068B0F592
:1003C000805F04BF2069002809D1226A2168108853
:1003D000C0F308004860206A811C216205E0206AA1
:1003E000421C2262216800784860E08C401EE08454
:1003F00080B2D0B92168C86820F08000C860216848
:10040000C86840F04000C860F1BD58060DD56A06C6
:100410000BD52068C26822F04002C260204620222C
:100420000A70BDE8F24000F0F5B9F1BD226802F1B2
:10043000140555E8002F20687047226802F10C016E
:1004400051E8001F0C3221F0100142E80010002892
:10045000F3D1704781628285C285002141642222E6
:1004600080F84220016921B10268D16841F48071AD
:10047000D1600268516941F0010151610168C868A9
:1004800040F02000C86000207047036803F10C02B0
:1004900052E8002F0C3322F4907243E80021002927
:1004A000F3D1036803F1140252E8002F5208143309
:1004B000520043E800210029F3D1016B01290BD13F
:1004C000036803F10C0252E8002F0C3322F01002F3
:1004D00043E800210029F3D1202280F842200021A6
:1004E00001637047406A0022C2850021C18400F088
:1004F0008FB900001CB590F84210222958D18168AC
:10050000826AB1F5805F0AD1016969B903685968E7
:10051000C1F308011180826A911C81620FE00029F9
:1005200004BF0169002902D10368596803E001682A
:10053000496801F07F011170816A4A1C8262C18D95
:10054000491EC18589B289BB0268D16821F02001AA
:10055000D16000230168CA6822F48072CA60026810
:100560005169490849005161202280F842204363C3
:10057000016B012918D10022026300F01BF822F060
:100580001002FFF702FEF8D101680A68D30607D50A
:10059000002200920B680093046862680092009B3E
:1005A000818D00F036F901E000F035F9002016BD2C
:1005B000022016BD036803F10C0252E8002F0C3331
:1005C000704710B5044622681169E06821F4405173
:1005D00001431161D3681A48A168034020690B43A5
:1005E000616903430B43D36016495369A06923F43F
:1005F000407303438A42536102D100F03DFB01E0A6
:1006000000F032FB6268192148439200B0FBF2F21D
:100610006421B2FBF1F16FF0630000FB01221201D3
:1006200032326423B2FBF3F000F0F00202EB01126D
:10063000216800F00F008018886010BD00000000E5
:10064000F3E9FFFF003801402D4881B0026842F015
:1006500001020260016801F001010091009A416805
:10066000284A41F0805141600221406800F08050EA
:1006700000900098106861F31A60106001B0704734
:1006800018B585B0044610210022684600F034FBFE
:1006900023681D498B4230D119481C4C026842F432
:1006A00080420260016801F480410491049A01686B
:1006B00041F0040101600222006800F0040004908F
:1006C0004FF4007004990090032103910192694650
:1006D000204600F01BFB4FF4806000900022019246
:1006E00002926946204600F011FB002201212520DC
:1006F00000F013FC252000F02FFC06B010BD000018
:100700001810024004000140003801400008014078
:1007100090F82130022B00F1380206D0042111603C
:10072000002280F820200120704701680B6823F028
:100730000E030B600368196849084900196001231A
:10074000916852688B4053600021012380F821306A
:1007500080F820100020704738B590F82120002440
:10076000022A00F1340103D00420486001243EE055
:100770000268136823F00E03136003681A685208B6
:1007800052001A60DFF86C3002689A4208BF0123F9
:1007900022D0DFF864309A4208BF10231CD0DFF863
:1007A0005C309A4208BF4FF4807315D0DFF85030A8
:1007B0009A4208BF4FF480530ED0DFF848309A4277
:1007C00008BF4FF4803307D0DFF83C309A420CBFAB
:1007D0004FF480134FF08073DFF830201360012551
:1007E00080F8215080F82040096801B188472046F0
:1007F00032BD0000080002401C00024030000240F0
:1008000044000240580002406C00024004000240D4
:1008100070477047704770472DE9F843040016D0C1
:100820002078DFF86874C10713D5786800F00C00F1
:10083000042807D0786800F00C00082840D17968B7
:10084000C8033DD53A68910303D56068002800F0DD
:100850005B812078DFF84464810719D5786810F04F
:100860000C0F07D0786800F00C0008285FD178687A
:10087000C1035CD43868810703D52069012840F0A2
:1008800043813968606921F0F80141EAC0013960AB
:100890002178080778D5A069DFF80414002800F053
:1008A0009E8001220A6000F07FFB0546796A880776
:1008B0005BD400F079FB401B0228F7D9032026E126
:1008C0006068B0F5803F03D1386840F4803013E0B1
:1008D00058B1B0F5A02F08D1386840F480203860B6
:1008E0003A6842F480323A6007E0396821F4803196
:1008F0003960386820F480203860606858B100F0B2
:1009000053FB054639688803A3D400F04DFB401B18
:100910006528F7D3D2E700F047FB0546396888031E
:1009200097D500F041FB401B6528F7D3C6E7206947
:1009300068B10121316000F037FB05463868810756
:100940009FD400F031FB401B0228F7D9B6E7002204
:10095000326000F029FB05463968880798D500F019
:1009600023FB401B0228F7D9A8E7DFF824231168EE
:10097000C9084FF47A70B1FBF0F0009000BF009806
:10098000411E00280091F9D1207841076ED5F96900
:100990000025C80009D4F96941F08051F9610125A9
:1009A000F86900F0805000900098DFF8F882D8F8DD
:1009B0000000C10520D4D8F8000040F48070C8F8C9
:1009C000000000F0F1FA8146D8F80010C80513D4F1
:1009D00000F0EAFAA0EB09006528F5D36EE708609D
:1009E00000F0E2FA0546796A8807CDD500F0DCFA16
:1009F000401B0228F7D961E7E068012808D008B950
:100A0000386A09E00528386A06D140F004003862E7
:100A1000386A40F0010005E0400840003862386A5A
:100A200020F00400386241F28938E06860B100F0DB
:100A3000BBFA8146396A880713D400F0B5FAA0EBF7
:100A400009004045F6D339E700F0AEFA8146396A2D
:100A5000880706D500F0A8FAA0EB09004045F6D3B8
:100A60002CE71DB1F86920F08050F861E06900289A
:100A70004CD0796801F00C01082938D002282AD11D
:100A800000F047F805463968880105D500F08CFA72
:100A9000401B0228F7D911E7206AB0F5803F05D145
:100AA0007968A06821F40031014379607A68206A8E
:100AB000616A22F4741202430A437A60012000F052
:100AC00029F804463868810120D400F06DFA001B33
:100AD0000228F7D9F2E600F01CF8044638688101D4
:100AE00014D500F061FA001B0228F7D9E6E60128C8
:100AF0000AD07868226A00F48031914202BF00F483
:100B00007010616A884201D0012000E00020BDE839
:100B1000F2830020306600F047BA2DE9F04104006E
:100B200088465FD0604E306800F00700404509D22B
:100B30003168C90848EAC1013160306800F0070037
:100B400040454FD12168514D880712D5490703D53B
:100B5000686840F4E06068602078010703D5686841
:100B600040F4605068606968A06821F0F0010143BA
:100B700069602178C80726D56068012802D12968F4
:100B80008A0303E0022803D129688A0103D429E0FB
:100B90002B68990726D56A68920840EA8200686047
:100BA00000F002FA07466868616800F00C00B0EBDC
:100BB000810F08D000F0F8F9C01B41F2893188425A
:100BC000F1D3032032E0316801F0070188450BD2F0
:100BD0003068C00848EAC0003060316801F00701A1
:100BE000414501D0012021E02178480705D56968F9
:100BF000E06821F4E0610143696021780A0706D5C5
:100C00006868216920F4605040EAC100686000F023
:100C10000FF86A682549C2F303128B5C1C49D8405F
:100C200008601D48006800F0C5F90020BDE8F081AB
:100C30001F4918480A6802F00C03082B00D07047BF
:100C400010B500BF1DA4C2F38343D203E35C08D5F3
:100C5000096858431DA3C1F34041595CB0FBF1F052
:100C600010BD1448584310BD0948114B00681A685C
:100C70001149C2F3022206E005480D4B00681A68CC
:100C80000D49C2F3C222895CC8407047001002407F
:100C90000C00002000127A000800002000004242F0
:100CA00080044242007000400020024060130008AF
:100CB0000410024000093D009013000802030405DF
:100CC000060708090A0B0C0D0E0F101001020EE0AA
:100CD00002684368024408305FEAC37C44BF4B4467
:100CE0005B1E52F804CB43F804CB091FF9D150F82E
:100CF000041B0029ECD170474018491C1CBFB1F1FE
:100D0000010100F8012DF9D1704700002DE9F84FDD
:100D100000270024684BDFF8A481DFF8A491DFF8F6
:100D2000A4B14FF00F0A024610E0D3F800E000EA49
:100D30000E00186009E0C3F804C04D68ED03F4D557
:100D400018684EEA000EC3F800E07F1C0D6835FA03
:100D500007F000F0AB80012000FA07FC0CEA050E5A
:100D6000E645F2D14D683DB3012D1AD0022D1DD0BC
:100D7000032D2ED0112D16D0122D1AD05248854297
:100D80001CBF5248854217D0514885421CBF51486C
:100D9000854211D0504885421CBF504885420BD037
:100DA00018E0CC6816E0CC68241D13E0CC68083449
:100DB00010E0CC680C340DE0886808B9042409E020
:100DC000012819BF0824C2F814C00824C2F810C0B2
:100DD00000E00024BEF5807F03D210464FEA870C66
:100DE00004E0A7F10805101D4FEA850C06680AFA11
:100DF0000CF5AE4304FA0CF545EA060CC0F800C049
:100E00004868C000A1D5D9F800C04CF0010CC9F861
:100E100000C0BD00D9F8000000F00100009005F00E
:100E20000C0C0098B80858F820600AFA0CF5AE438C
:100E30005A4508BF00250ED0294DAA4208BF0125FA
:100E400009D0284DAA4208BF022504D0264DAA4247
:100E50000CBF0325042505FA0CF545EA060C48F8F5
:100E600020C06FEA0E004D68ED0204D59D684EEA81
:100E700005059D6005E0D3F808C000EA0C0CC3F836
:100E800008C04D68D3F80CC0AD024CBF4EEA0C0C44
:100E900000EA0C0CC3F80CC04D68D3F804C0AD03D5
:100EA0004CBF4EEA0C0C00EA0C0C44E7BDE8F18F95
:100EB00002B90904016170470004014008000140C3
:100EC000181002400008014000001110000012102C
:100ED000000021100000221000003110000032102C
:100EE000000C014000100140001401400A01010003
:100EF00002D4274B5A547047264801F00F01014491
:100F000001F8042C704724490A6860F30A2240F271
:100F1000FA5060F31F420A60704770B51E4C236898
:100F2000C3F302230124C3F10705052D2FBF0F26AC
:100F3000C3F1070604FA06F6761E1D1D072D34BF01
:100F40000023DB1E3140994004FA03F3BDE87040F2
:100F50005B1E1A401143C9E7010007D4012200F0CB
:100F60001F010E4B8A40400943F820207047401E65
:100F7000B0F1807F01D30120704709494860F02219
:100F80000848027000238B6007220A600020704727
:100F900000E400E018ED00E00CED00E000E100E00E
:100FA00010E000E023ED00E001484068704700BF1A
:100FB0000000002038B50D4D0D4A297804464FF445
:100FC0007A731068B3FBF1F1B0FBF1F0FFF7CFFFDC
:100FD00050B9102C08D2002221464FF0FF30FFF705
:100FE0009CFFAC60002032BD012032BD000000201B
:100FF0000C0000201CB500F087F800F055F82548DB
:10100000234C026842F020020260016801F02001D6
:101010000091009A0168204A41F0040101600068D3
:1010200000F0040000904FF4165000996060002119
:101030000C2060612260A160E1602161A161E16139
:101040002046FFF753F808B100F057F800F026F8F3
:1010500000F09CF800F0D1F829A000F0A5F84FF4BA
:10106000FA6000F0D9F800F0C8F800F0C6F80021E6
:10107000002000F0A7F804F1480000F095F8E08D9A
:101080000028F2D12046FFF731F800F007F8ECE72E
:10109000100000201810024000380140102204F116
:1010A00048012046FFF75EB800B58FB02821002226
:1010B00005A8FFF721FE142100226846FFF71CFE59
:1010C000012005904FF48032002106920C9105A872
:1010D000FFF7A2FB08B100F010F80F2000900122EA
:1010E000002101920291039104916846FFF715FDDA
:1010F00008B100F002F80FB000BD72B6FEE70000C4
:10110000484920556172740080B50748016841F074
:10111000100101600320FFF7F6FE0F20FFF74AFFE2
:10112000FFF792FA002002BD0020024070B500F0E7
:101130006EF8144C002204E070B500F068F8114C11
:10114000012220212046FFF7B3FE00224021204645
:10115000FFF7AEFE0C4D0022FF212846FFF7A8FE48
:10116000012231462846FFF7A3FE012280212046B6
:10117000FFF79EFE2046BDE8704000228021FFF769
:1011800097BE0000000C01400008014080B50A2015
:1011900000F042F83820FFF7C9FF0620FFF7C6FF2E
:1011A000BDE802400C20C1E710B5044600F030F85D
:1011B00003E014F8010BFFF7BFFF20780028F8D1F7
:1011C00010BD000038B505460C4600F021F8032C90
:1011D00012D8DFE804F00205080BA5F1800007E053
:1011E000A5F1400004E0A5F16C0001E0A5F12C00A0
:1011F000BDE83240C0B299E731BD80B500F008F8D3
:101200000120FFF793FFBDE8024002208EE706466B
:10121000012000F001B8000038B50546FFF7C4FE14
:1012200015F1010F044602D0044908784519FFF76B
:10123000BBFE001BA842FAD331BD00BF0000002056
:1012400030B4002412E050F8043BDA0744BF4B44AA
:101250005B1E091F042943F8044BFAD21A468D0776
:1012600044BF1C80921CCB0748BF147050F8041B6D
:101270000029E8D130BC704710B5034A7A440832DF
:10128000024C7C44A41D03E01C0000003C00000054
:1012900004E01168101D114488470246A242F8D1AB
:1012A00010BD00009DFFFFFF5C000000100000204B
:1012B000000000001BFAFFFF10000000C400000047
:1012C0000000002000000000FEE7FEE7FEE7FEE76A
:1012D000FEE770477047704700F006B80148FEF718
:1012E00066BF000010000020024A516810784118C3
:1012F000516070470000002000F00DF8002801D078
:10130000FFF7BAFFAFF300800020AFF30080FFF7D4
:1013100071FE00F002F80120704700F001B80000F3
:101320000746384600F002F8FBE7000080B5AFF34F
:101330000080024A11001820ABBEFBE72600020025
:101340000548014603B4684680F30988AFF300807E
:10135000AFF30080FFF7D0FFA5EDF5FE704700006A
:101360000000000000000000010203040607080955
:1013700001488047014800475D13000841130008F9
:1013800001000000000000001000000000127A00C0
:101390000000000001020304FFF7FEBFFFF7FEBFDD
:1013A000FFF7FEBFFFF7FEBFFFF7FEBFFFF7FEBF71
:1013B000FFF7FEBFFFF7FEBFFFF7FEBFFFF7FEBF61
:1013C000FFF7FEBFFFF7FEBFFFF7FEBFFFF7FEBF51
:1013D000FFF7FEBFFFF7FEBFFFF7FEBFFFF7FEBF41
:1013E000FFF7FEBFFFF7FEBFFFF7FEBFFFF7FEBF31
:1013F000FFF7FEBFFFF7FEBFFFF7FEBFFFF7FEBF21
:10140000FFF7FEBFFFF7FEBFFFF7FEBFFFF7FEBF10
:10141000FFF7FEBFFFF7FEBFFFF7FEBFFFF7FEBF00
:10142000FFF7FEBFFFF7FEBFFFF7FEBFFFF7FEBFF0
:10143000FFF7FEBFFFF7FEBFFFF7FEBFFFF7FEBFE0
:04000005080013419B
:00000001FF
