:020000040800F2
:100000006804002021280008E9270008EB270008E1
:10001000ED270008EF270008F12700080000000086
:10002000000000000000000000000000F3270008AE
:10003000F527000800000000F7270008F92700084E
:100040003128000835280008392800083D28000814
:100050004128000845280008492800084D280008C4
:100060005128000855280008592800085D28000874
:100070006128000865280008692800086D28000824
:100080007128000875280008792800087D280008D4
:100090008128000885280008892800088D28000884
:1000A0009128000895280008992800089D28000834
:1000B000A1280008A5280008A9280008AD280008E4
:1000C000B1280008B5280008B9280008BD28000894
:1000D000C1280008C5280008C9280008CD28000844
:1000E000D1280008D5280008D928000840F02000B1
:1000F00070472DE9F14FB0B0924604910DF14201E5
:100100003A9A2B9199464A7000200AE01AF8011B8E
:100110000498309A90470028049000F043860D9888
:10012000401C0D909AF8000050B12528EED1002215
:1001300000210792089109920A910B920C9104E018
:100140000D9800F031BE41F001011AF8010F20288E
:10015000F9D023280CD02B2804D02D2805D0302806
:1001600009D00BE041F00201EFE741F00401ECE7B8
:1001700041F00801E9E741F01001E6E72A280FD134
:10018000D9F8002052F8040BC9F8002000280F907D
:1001900003D540420F9041F004010AF1010A14E036
:1001A0000F92DFF80C0C0AE00F9C844205DA04EB96
:1001B000840302EB4302303A0F920AF1010A9AF8E3
:1001C0000020A2F130030A2BEED39AF800202E2A49
:1001D00003D04FF0FF300E9029E01AF8010F2A28C3
:1001E00009D1D9F8002052F8040BC9F800200E906C
:1001F0000AF1010A1BE02D280CBF0AF1010A0020B8
:1002000000220E92DFF8A85B0BE040B90E9BAB42D8
:1002100005DA03EB830402EB4402303A0E920AF152
:10022000010A9AF80020A2F130030A2BEDD3ADF8B1
:1002300040100FF680309AF8001000F0D9FE08B197
:100240001AF8010B8DF842009DF84200682805D18C
:100250009AF8001068290CD1622006E06C2804BFCF
:100260009AF800106C2904D171208DF842000AF12F
:10027000010A12AA06921AF801BBBBF125002CD084
:100280001C3800F09781001F022840F29381133838
:1002900000F0BA84093800F08D81801E00F04F858F
:1002A000401E00F0FC84401E022840F28381001FA3
:1002B00000F0F584401F00F0F280401E00F0A4849E
:1002C000401E00F0DA80C01E0ED0801E00F09C841C
:1002D000C01E00F0998400F03DBD01222521079247
:1002E0008DF8481000F042BDD9F8000050F8044BDA
:1002F000C9F80000002C059440F0AB802B99487899
:10030000002800F0A1804FF0FF340FF6B02000F07D
:100310007FFE241A40F0468500F028BD01236A467E
:1003200002A9304600F00CFE002840F03B85641E18
:10033000F4D13096079C12AE74B1309F16F8011BB1
:100340000498B8470028049000F02C850D98401CB4
:10035000641E0D90F2D130970A9C3021002C8DF84C
:1003600000100CDD309E01236A4602A9304600F0E1
:10037000E7FD002840F01685641EF4D13096059EF6
:10038000089C74B1309F16F8011B0498B8470028E8
:10039000049000F007850D98401C641E0D90F2D16A
:1003A00030970B9C3021002C8DF800100CDD309E16
:1003B00001236A4602A9304600F0C2FD002840F041
:1003C000F184641EF4D1309605980899099C46186A
:1003D00074B1309F16F8011B0498B84700280490A8
:1003E00000F0E0840D98401C641E0D90F2D130970F
:1003F0000C9C3021002C8DF800100CDD309E012368
:100400006A4602A9304600F09BFD002840F0CA84ED
:10041000641EF4D130969DF8400041077FF582AE0E
:100420002020002D8DF800007FF77CAE309C01234A
:100430006A4602A9204600F083FD002840F0B284FD
:100440006D1EF4D130946DE60FF65430059000F037
:100450008DBC0E9D002D04D5204600F0F9FD04460C
:1004600008E02A460021204600F00EFE002814BFB6
:10047000041B2C46089400F079BCD9F8001051F800
:10048000040BC9F8001020F00002002121F0FF3316
:10049000CDE9022312AC0594782100F04CBC2B99D5
:1004A000487820B14FF0FF340FF6C4202FE79DF8B5
:1004B0004200622860D0682817D06A283FD06C2894
:1004C00006D0712847D074282CD07A281DD062E03D
:1004D000D9F8001051F8040BC9F80010002866D1B3
:1004E0004FF0FF340FF6A02011E7D9F8001051F8B3
:1004F000040BC9F8001020B94FF0FF340FF6882024
:1005000005E70D99018000F031BCD9F8001051F8D1
:10051000040BC9F80010002849D14FF0FF340FF642
:100520006820F4E6D9F8001051F8040BC9F800105F
:1005300000283CD14FF0FF340FF64C20E7E6D9F805
:10054000001051F8040BC9F8001080B94FF0FF34C7
:100550000FF63420DBE6D9F8001051F8040BC9F887
:10056000001020B94FF0FF340FF61C20CFE60D9A93
:10057000D317C0E90023F9E3D9F8001051F8040BB0
:10058000C9F8001020B94FF0FF340FF6FC10BEE69A
:100590000D990170EAE3D9F8001051F8040BC9F87D
:1005A000001020B94FF0FF340FF6DC10AFE60D99C4
:1005B0000160DBE39DF842004C2807BFD9F800102A
:1005C000CA1DD9F80000C21D22F00702C9F8002098
:1005D000D2E900010832C9F80020CDE90201C80FB4
:1005E00002D007982D210AE0BDF84010880702D5F7
:1005F00007982B2103E0C80705D50798202112AAE8
:100600001154401C079012A807994BF0200300EBEF
:10061000010CDDE90201CDE92C01612BCDF814C0FC
:1006200021AC0BD00E98002848BF062105D404BF8A
:100630004BF02000672801D101210E91DDE902670E
:100640007B0043EAD6735A15DB174FF0FF30834225
:1006500008BF824210D13F0347EA16573603002FE6
:1006600008BF002E08D0ABF1610503211A2D0891B7
:1006700018D30FF6341110E0DDE902014A005215DB
:1006800012F1010F11D108030FD1ABF16105032164
:100690001A2D08911FD30FF618110322604600F09F
:1006A0001FFD63E30FF6FC01F7E7DDE902016A468F
:1006B00000F06AFDCDE902014BF02000612811D164
:1006C000059830220270811C0591BBF1610F0CBFAF
:1006D0007821582102E00FF6D401DEE74170079837
:1006E000801C0790DDE9020120F0000231F0004398
:1006F00008BF002A02D10026002542E14BF0200865
:10070000B8F1610F40F093800E98002847BF212177
:100710000191401C0190019EDDE92C01761C002214
:100720000023DDE9024500F067FD38BF85F0004594
:1007300000988DF88420001F002E00900DF1850791
:1007400032DD204629460022002300F06FFD2BD227
:100750001C2200F085FD04460D4600F01FFEF61F2A
:10076000002E804609DD00F035FE02460B4620468D
:10077000294600F0F7FE04460D46F81D0721B8F1A2
:10078000000F0CDD491E5EBF08F00F0200F8012DBE
:100790004FEA2818F3D502E0002200F8012D491E87
:1007A000FAD5C71D002ECCDC0DF185003F1A01984B
:1007B0000DF185043E468742C8BF0646002E2FD461
:1007C000BE4206DA0DF18500815D0829A8BF0F2021
:1007D00000DA0020324621A98D1800E0761E15F8B7
:1007E0000139521E8342F9D00F2804D10DF1850141
:1007F000885C401C8854002A04D50098001D21AC58
:10080000761C0090701E0BD421180B783033DAB2AE
:100810003A2AA4BF5B443A3B401E01F80139F4D5A3
:100820000E99002940F1AC80701E0E90A8E000994E
:10083000DFF8FC2647F29750414391FBF2F2009219
:10084000DDE92C45C2F10702002A25F0004504DD50
:100850002046294600F049FB0BE052420020DFF819
:10086000D41600F042FB02460B462046294600F013
:10087000EBFE04460D46B8F1660F06BF009E0A3631
:1008800006260E983618142EC8BF142630208DF870
:1008900084000DF18507002E34DD2046294600F046
:1008A000F7FF01460A4607F1080C04200A27B2FBAD
:1008B000F7FE0EEB8E03A2EB430230320CF8012C54
:1008C0000A22BEFBF2F202EB8203AEEB43033033AB
:1008D000401E0CF8023DE9D1083E002E0CF108073D
:1008E000D9DD084600F0E6FF02460B4620462946C1
:1008F00000F038FE0022DFF8403600F0E9FF044641
:100900000D46CAE70DF185003F1A0DF1850404E09C
:100910000098401E7F1E0090641C20783028F7D07D
:10092000B8F1660F02D1009E761C04E0B8F1650FA5
:100930000CBF012600260E983618B742B8BF7E1E9F
:10094000002E1DD4BE4204DAA05D3428C8BF392071
:1009500000DC30203246611E8D1800E0761E15F84E
:100960000179521E8742F9D0392802D1A05C401C7F
:10097000A054002A04D50098401C0C46761C009018
:10098000009D01F07BF8406A0778DDF8388030B2CE
:10099000002802DC01260FF21C644BF020006628C0
:1009A00008BF6D1C16D0672845D128B210F1040F7E
:1009B00047DB404545DA9DF840106D1C080703D41D
:1009C00030B24045D8BF804628B2B8EB000848BFD7
:1009D0004FF000080FFA85FBBBF1000F00F3B38066
:1009E0000898411C0891302205990A54B8F1000F6B
:1009F00003DC9DF84010080704D50898411C0891B5
:100A000005990F5418EB0B0FB8BFC8F100052DB2B4
:100A10006842454432B20B909542B8BF2E46059BC2
:100A2000089836B2099632462146184400F058FB21
:100A3000AD1B0C95D1E0BBF1610F17D14FF0700BDE
:100A400019E030B2404504DA9DF840100A0758BF5B
:100A50008046B8F1010848BF4FF00008BBF1670FAE
:100A600014BF4FF0450B4FF0650B04E0BBF1410F95
:100A700008BF4FF0500B0898411C0891B8F1000FC7
:100A8000059914F8012B0A5403DC9DF8401008075F
:100A90001AD50898411C0891B8F1000F05990F5418
:100AA00012DD761E30B28045B8BF46460598089BD9
:100AB00032B22146184400F013FB089836B23018C1
:100AC0000890A8EB06000B9005980899014428B2FD
:100AD000002881F800B003D42B204870891C04E062
:100AE0002D224A700546891C6D4200202CAA0AE07E
:100AF0002B460A2593FBF5F505EB8504A3EB440390
:100B000002F8013B401C2DB2002DF1DC012806DC6F
:100B10004BF02002652A04BF302201F8012B002887
:100B20002CAB08D1302001F8010B06E0401E1A5C06
:100B3000303201F8012B0028F8DC059A089810449F
:100B4000091A099149E031B228B281421CDA059BA9
:100B5000089832B22146184400F0C2FA089936B219
:100B600071180891ABEB0600B8F1000F0B9003DC95
:100B70009DF84000020704D5059847540999491C7F
:100B80000991CDF8308028E0059B08982AB22146CB
:100B9000184400F0A5FA0898761B5844B8F1000FE5
:100BA000089003DC9DF840100A0703D5411C08910A
:100BB00005990F5430B28045B8BF46460598089B4A
:100BC00032B204EB0B01184400F08AFA089836B2EE
:100BD00030180890A8EB06000B909DF8400000F03C
:100BE0001400102840F0C280079A08980B998218C8
:100BF00009988A1882180C980F998018884280F2F8
:100C0000B580081A0A90B1E09DF84200622808D029
:100C100068280ED06A2814D06C281FD0712810D0F4
:100C20001CE0D9F8001051F8040BC9F80010C0B24C
:100C30001AE0D9F8001051F8040BC9F8001080B27E
:100C400012E0D9F80000C21D22F00702C9F8002006
:100C5000D2E900010832C9F8002006E0D9F80010F6
:100C600051F8040BC9F800100021CDE902019DF8EC
:100C7000400002075AD5DDE90201002908BF00281B
:100C800054D04BF02002782A50D1079912A8302373
:100C90004354491C4A1C079200F801B046E09DF8F5
:100CA0004200622808D068280ED06A2814D06C2828
:100CB0001FD0712810D01CE0D9F8001051F8040B97
:100CC000C9F8001040B21AE0D9F8001051F8040B2E
:100CD000C9F8001000B212E0D9F80000C21D22F0DD
:100CE0000702C9F80020D2E900010832C9F8002043
:100CF00006E0D9F8001051F8040BC9F80010C1172C
:100D0000CDE90201002902D507982D220AE0BDF89D
:100D10004000810702D507982B2203E0C00705D5C4
:100D20000798202212A90A54401C079012A807997C
:100D300001440591594602A800F04EF816E0012042
:100D40000790D9F8001051F8040BC9F800108DF87D
:100D500048000BE001222521BBF1000F07928DF81E
:100D6000481003D0022007908DF849B00F9D0798D6
:100D70000A992D1A08986D1A0B992D1A09986D1A4F
:100D80000C992D1A9DF840006D1A41073FF5D2AA23
:100D90002020002D8DF800007FF7CCAA309E2C4635
:100DA000FFF7BCBA4FF0FF3031B0BDE8F08F000064
:100DB000CBCCCC0C686A6C747A4C00007072696E93
:100DC00074665F733A2062616420257320617267E4
:100DD000756D656E740000002DE9FE4C06468B466D
:100DE000376958466F2808BF082205D0FFF77EF9FB
:100DF000782814BF0A221022D6E900013C250446B7
:100E00008A46BBF1640F18BFBBF1690F04D10029FA
:100E100002D564426AEB4A0ABAF1000F08BF002CFF
:100E20000CD1306B50B9082A3BD196F8381008071E
:100E300037D530213B2587F83B1032E08DF800B0E4
:100E40009346204651465A46002300F01BFE30329E
:100E5000D0B26D1E3A2801950DDA7A5520465146DA
:100E60005A46002300F00EFE04465FEA010A08BF5E
:100E7000002C05D108E09DF800001218513AECE76B
:100E8000F16878198142DCD3BBF1080F09D196F8DB
:100E90003800010705D5785D302802D06D1E30205E
:100EA0007855C5F13C02306BB26179198242F1602C
:100EB00007DA318F821A4FF6EF70014032623187C4
:100EC00010E000280ED596F8380000F01400102825
:100ED00008D1736B7069316A1B1A5B1A9B1A002B5D
:100EE000C8BF336203B0BDE8F08C2DE9D04306469D
:100EF0000F4614464FF00008DFF8409012E0E0077C
:100F000007D542464B463046394600F0E1FC0646DE
:100F10000F464046494642464B4600F0D9FC641015
:100F200080468946002CEAD130463946BDE8D08358
:100F3000A08601000000F03F84D7974100002440C4
:100F4000F8B505460E4617461C4600205CB117F85A
:100F5000011BB068A847B06030B1F06A401CF06275
:100F60000020641EF3D1F2BD4FF0FF30F2BD00004F
:100F70007072696E74665F733A20256E20646973BF
:100F8000616C6C6F776564007072696E74663A208C
:100F900062616420256E20617267756D656E7400F4
:100FA000000000006E616E004E414E00696E6600EA
:100FB000494E4600300030B50168846842184168E7
:100FC00002EB5103C90703D54C4401E0491C08D189
:100FD0009A4218BF12F9011B01D10C3030BD12F832
:100FE000015B002904F8015BF0D4491EF7D5EFE757
:100FF000C9B202788A421AB11CBF10F8012FF9E772
:1010000018BF0020704703685A1C026019707047AF
:1010100080B500B906A005490B681BB1222200214A
:10102000984701E000F046FE222002BD600000204B
:10103000636F6E73747261696E742068616E646C44
:1010400065723A20626164206D6573736167650043
:1010500000F10103810704D010F8011B820781B160
:10106000FAD10268A2F10131914311F0803104BF3D
:1010700050F8042FF6E709BAB1FA81F100EBD1007C
:10108000401CC01A70472E00C9B2830706D0521EFA
:1010900022D310F8013B9942F7D11FE0083A13D34D
:1010A00002F1040241EA012141EA014150F8043B06
:1010B000121F21BF4B40A3F1013C2CEA030C1CF092
:1010C000803FF3D0C9B2001F0832521E24BF10F86F
:1010D000013B91EA030FF8D818BF0120401E70476A
:1010E00062B38B0708D0521E11F8013B00F8013B98
:1010F00000F024808B07F6D1830740F0208000BFEA
:10110000103A07D330B4B1E83810103AA0E83810DC
:10111000F9D230BC530724BFB1E80810A0E808108A
:1011200044BF51F8043B40F8043BD20724BF31F8D8
:10113000022B20F8022B44BF0B7803707047121F5C
:1011400017D35B0009D151F8043B20F8023B1B0C7C
:10115000121F20F8023BF6D20BE051F8043B00F8D6
:10116000013B1B0A20F8023B1B0C121F00F8013B3D
:10117000F3D238BF121D521E24BF11F8013B00F8F4
:10118000013BF8D87047000010B5144600F002F893
:10119000226010BDC1F30A5343B14A0012F5001F8B
:1011A00028D2A3F2FE32A1EB0251704750EA410C63
:1011B00020D001F0004C31EA0C01B1FA81F204BFF9
:1011C000B0FA80F3D2180B3AB2F120032CBF00FA28
:1011D00003F1914041EA0C013EBFC2F1200C20FA1C
:1011E0000CF319439040524240F2FD33D21A01EB06
:1011F000035170470022704741EA030C50EA4C0C3F
:1012000052EA0C0C4FF4001C09D307D01CEB410F21
:101210009CBF1CEB430F8B4208BF824270471CEB04
:10122000430FFBD8994208BF9042704741EA030C34
:1012300050EA4C0C52EA0C0C4FF4001C09D307D0B6
:101240001CEB410F9CBF1CEB430F994208BF90421F
:1012500070471CEB410FFBD88B4208BF824270479E
:10126000124254D440F2FF7C1CEA11530FD0634564
:1012700031D09B1863453CBF01EB0251704701F030
:10128000004141EA0C510020AFF30080704750EA62
:10129000410320D001F0004C91EA0C011CD0B1FABE
:1012A00081F30B3B9A420DD9D21A994051EA0C01B5
:1012B000C3F1200C20FA0CFC61449840531C40F20E
:1012C000FF7CD7E7914041EA0C01C2F1200C20FAE3
:1012D0000CF3194390407047B0FA80F31533202B7C
:1012E000E0D3202AEED3203A203B9A4209D9D21AE1
:1012F00000FA03F141EA0C010020531C40F2FF7C8C
:10130000B8E700FA02F141EA0C01002070475242AE
:1013100040F2FF7C1CEA11530DD06345DBD0B2EBE9
:10132000030C3CBFA1EB025170470CF1010221EA12
:10133000035141F4801150EA410CCCD001F0004C33
:10134000352A27DC30B481EA0C01B2F1200309DA36
:10135000C2F12003044601FA03F5D0402843D140EE
:101360009C400CE0C3F12002450020FA03F418BFB2
:1013700044F0010421FA03F091400C43002174F180
:10138000004550F1000051EB0C01244230BC7FF4C9
:101390007BAF70476146002076E70000C1F30A5337
:1013A00040F21E42D31A0CDDCA0283F3070342EA5D
:1013B000505242F00042DA4002EBE17282EAE17000
:1013C00070476FEAE17203F2E13008B182F0004049
:1013D0007047000010F0004160B148BF4042B0FAD1
:1013E00080F29040D21CC2F5846241EA025202EBC4
:1013F000D021400570470000841A71EB030604D227
:101400006E40001BB141121973414FF4001C1CEBDC
:10141000410F34BF7CEB430683E00C0DA4EB135665
:10142000362E00F37C80012E45EAC32341DC43EADB
:10143000525312BFD20292025B08240545EAC12131
:1014400041EA5051D2EBC020994125D407D1B0FADE
:1014500080F610FA06F162D00020203608E0B1FADA
:1014600081F6B140C6F1200220FA02F21143B040E9
:101470004FEAF474B4EB465434F001064FEA7404B6
:101480000AD8D6F50016760D04F00044F04061FA53
:1014900006F25040F1404840C00A40EA415021F075
:1014A000004128BF5FEA500550F1000044EBD12114
:1014B00035E0DB0A45EAC121C90AB6F120050EDD97
:1014C00042EA0242120CC5F1200603FA06F6EB408E
:1014D00042EA06056D42984161F100010DE062FAB1
:1014E00006F5F240554063FA06FC82EA0C02F3402E
:1014F0005A406D42904161EB030111F4801F05D108
:10150000641E620502D06D004041494121F4801102
:10151000430875F1004350F1000041EB045170BCE9
:1015200070471CEB410F15D223F0004352EA4306EB
:101530000BD04FEA4C0CBCEB410F04D80C0D661ECF
:10154000342EB7DDEBE7801A994150EA410608BF17
:101550000021E4E708BF1CEB430F28BF6FF0000138
:10156000DDE7000070B491EA030F4FF000457FF50E
:1015700043AF6B40841A71EB030603D2001BB141E9
:10158000121973414FF4001C1CEB410F34BF7CEB6C
:10159000430442E00C0DA4EB1356352E4FDC45EA14
:1015A000C323DB0A45EAC121C912B6F120050DDDCE
:1015B00063FA05F6EB4086EA0305124218BF45F0D0
:1015C0000105C01851F100010CD213E062FA06F5D2
:1015D000F2405540F3415A40B340F3405A4080181E
:1015E000594107D349085FEA30005FEA350528BF53
:1015F00045F0010501F58011420875F1004250F1F6
:10160000000041EB04514E0016F5001F70BC38BFBE
:1016100070470020090D090570471CEB410F10D2DF
:1016200052EA43060BD0BCEB410F05D80C0DAB437F
:10163000661E342EB6DD02E0AB438018594170BC03
:10164000704770BC70470000F0B540F2FF7581EA4A
:10165000030C0CF0004C15EA11541DBF15EA13578A
:10166000AC42AF42E5E0BC41C1F31301C3F3130345
:10167000801A994143F4801304D2641E0018494132
:1016800080185941C90241EA5051B1FBF3F603FBFE
:101690001611A2FB0675D7EBC020A94102D2761E17
:1016A00080185941C90241EA5051B1FBF3FE03FBD6
:1016B0001E11A2FB0E75D7EBC020A94103D2AEF1DB
:1016C000010E80185941890241EA9051760546EA97
:1016D0008E2EB1FBF3F603FB1611A2FB0675D7EBBA
:1016E0008020A94102D2761E80185941C90241EAE0
:1016F00050514EEA060EB1FBF3F603FB1611A2FBA6
:101700000675D7EBC020A94102D2761E8018594138
:10171000C90241EA5051B1FBF3F703FB1711A2FBD9
:101720000735D3EBC020A94167F100070CBF004289
:1017300047F0010766F3D5274FEA1E31B80814F5C4
:10174000806412DDBD0775F1004250EB0E5051EB85
:10175000045111F5801F5CBF41EA0C01F0BD4CF053
:101760007F6141F0E0410020F0BDBD076D0840EA17
:101770000E5041F48011D4F10104B4F120060ADACC
:10178000C4F120060200E04001FA06F3E1401843EC
:10179000B24015430EE0342C13DCC6F1200445EAB8
:1017A00040056D0820FA06F2154321FA06F0A14023
:1017B0000D43002175F1004250F1000051EB0C0186
:1017C000F0BD00205FEA0C01F0BDCFB992185B417B
:1017D000B3FA83F704BFB2FA82F6BF190B3FB7F131
:1017E00020062FBF02FA06F3BB40C7F1200622FAFB
:1017F00006F638BF3343BA401CB1E419641E33E720
:101800007F4231F00041B1FA81F404BFB0FA80F6B2
:10181000A4190B3CB4F120062FBF00FA06F1A14039
:10182000C4F1200620FA06F638BF3143A0403C1B25
:101830001AE7AC421ABF05EA1357AF4212E050EA6A
:1018400041061CBF52EA4306BFE750EA4107304653
:1018500061461CBF41EA0551F0BD52EA430C08BF86
:10186000C143F0BD00204FF4001616EB410F98BFA6
:1018700016EB430F08BF16EB410F24BFC14305E031
:1018800016EB430F0CBF61464CEA0551F0BD00005A
:10189000400D40F21E4C40EAC120BCEB115C40F010
:1018A000004003D48CF30701C84070476FEAE17031
:1018B0007047000050B1B0FA80F18840C91CC1F5F2
:1018C0008461090501EBD02140057047014670474E
:1018D00030B540F2FF7C1CEA11541DBF1CEA1355C1
:1018E000644565453FE0641981EA030C6FF35F537B
:1018F0000CF0004C43F48013C90241F0004141EA6E
:10190000505EC5021100A5FB020200284FF0000046
:10191000EEFB01204FF00001E3FB052118BF42F070
:101920000102401800214941E3FB0E01A4F5806447
:101930000D0302D292184041494154F1010470DD77
:10194000450872F1004250F1000051EB0451A1F53D
:10195000801102D441EA0C0130BD40F2FF7E4CEA16
:101960000E51002030BD0CEA1355644518BF654583
:1019700081EA030C0CF0004C41D050EA410E1CBF30
:1019800052EA430E02E06146002030BD24422C445E
:101990001BD15FEA050EF6D0090302BF0146002005
:1019A000AEF1140EB1FA81F5AEEB050401FA05FEB5
:1019B0000C35C5F1200100FA05F5C8404EEA000ECD
:1019C0006FF35F5343F480139CE733F00043B3FAA3
:1019D00083F504BFB2FA82FE75440B3D641BB5F17A
:1019E000200E2FBF02FA0EF3AB40C5F1200E22FAF3
:1019F0000EFE38BF43EA0E03AA40641C7CE750EA9F
:101A0000410E14BF52EA430E6FF000014FF400156F
:101A100015EB430F8EBF194615EB410F9DE7B4D868
:101A200030BDD4F10104B4F120050FDAC4F1200572
:101A3000520828BF42F0010210FA05FE01FA05F52E
:101A40007244E2BFE0402843E1400FE0352C9ADCCD
:101A5000C5F1200452EA400220FA05F218BF42F014
:101A6000010231FA05F0A1400A43002172F100425F
:101A700050F1000051EB0C0130BD000000487047F0
:101A800010000020BBBBE1B1B2F5803F80F07E804A
:101A9000022A1ED98C46B1FBF2F102FB11C31B04D2
:101AA00043EA1043B3FBF2FC02FB1C3380B240EA72
:101AB0000343B3FBF2F002FB103240EA0C40002378
:101AC0007047022A05D98446B0FBF2F002FB10C22F
:101AD00070474AB105D100F0010249085FEA3000C1
:101AE000704700220023704700F0E8B80B000200A6
:101AF000002100207047904271EB030CF6D3B3F540
:101B0000803F2FD2F0B5B3FA83F7B1FA81F4A7F191
:101B10000F0E3D1B5340CEF1200602FA0EF2F341A8
:101B20005340B5F10F0746D80F3C2C444140C4F157
:101B30002006A040F1414140B1FBF3F603FB161132
:101B4000A2FB0645001BA94102D2761E801859410E
:101B500080EA010221FA0EF362FA0EF200215A40E5
:101B60003046F0BD30B4B1FBF3FC03FB1C11A2FB0B
:101B70000C45001BA94103D2ACF1010C801859415E
:101B800030BC02460B46604600217047B2F1807FB0
:101B900065D3F0B5B2FA82F7B1FA81F4C7F10F0656
:101BA0003D1B22FA06F307F1110EF24120355A408F
:101BB000B5F10F07B8D94140C4F12006A040F1416A
:101BC0004140B1FBF3FC03FB1C11A2FB0C45001BC5
:101BD000A94103D2BCF1010C801859410F2F12D337
:101BE0000F3FC90341EA5041B1FBF3F603FB161165
:101BF000A2FB0645D4EBC030A94102D2761E801864
:101C0000594146EACC3C07B34140C7F12006B840F1
:101C1000F1414140B1FBF3F603FB1611A2FB06456F
:101C2000001BA94102D2761E8018594180EA0102A8
:101C300021FA0EF3C7F1200462FA0EF20CFA07F053
:101C40005A402CFA04F13043F0BD80EA010221FA37
:101C50000EF3002162FA0EF260465A40F0BD8C4647
:101C6000B1FBF2F102FB11C31B0243EA1063B3FBA9
:101C7000F2FC02FB1C331B024CEA002043EA106317
:101C8000B3FBF2FC02FB1C331B024CEA002043EACC
:101C90001063B3FBF2FC02FB1C331B024CEA002076
:101CA00043EA1063B3FBF2FC02FB1C324CEA002057
:101CB00000237047012000F003B8000070470000C7
:101CC00080B5AFF30080024A11001820ABBEFBE7DD
:101CD000260002002DE9F843040016D02078DFF832
:101CE0004474C10713D5786800F00C00042807D0AD
:101CF000786800F00C00082840D17968C8033DD509
:101D00003A68910303D56068002800F05B81207871
:101D1000DFF82064810719D5786810F00C0F07D020
:101D2000786800F00C0008285FD17868C1035CD4A3
:101D30003868810703D52069012840F0438139685C
:101D4000606921F0F80141EAC00139602178080793
:101D500078D5A069DFF8E013002800F09E8001220A
:101D60000A6000F0FFF90546796A88075BD400F045
:101D7000F9F9401B0228F7D9032026E16068B0F585
:101D8000803F03D1386840F4803013E058B1B0F59B
:101D9000A02F08D1386840F4802038603A6842F4B7
:101DA00080323A6007E0396821F480313960386860
:101DB00020F480203860606858B100F0D3F90546FF
:101DC00039688803A3D400F0CDF9401B6528F7D308
:101DD000D2E700F0C7F905463968880397D500F0C7
:101DE000C1F9401B6528F7D3C6E7206968B1012116
:101DF000316000F0B7F90546386881079FD400F0DC
:101E0000B1F9401B0228F7D9B6E70022326000F092
:101E1000A9F905463968880798D500F0A3F9401B51
:101E20000228F7D9A8E7DFF800231168C9084FF4A2
:101E30007A70B1FBF0F0009000BF0098411E0028BE
:101E40000091F9D1207841076ED5F9690025C800C5
:101E500009D4F96941F08051F9610125F86900F070
:101E6000805000900098DFF8D482D8F80000C105B7
:101E700020D4D8F8000040F48070C8F8000000F0CA
:101E800071F98146D8F80010C80513D400F06AF93A
:101E9000A0EB09006528F5D36EE7086000F062F951
:101EA0000546796A8807CDD500F05CF9401B022809
:101EB000F7D961E7E068012808D008B9386A09E075
:101EC0000528386A06D140F004003862386A40F0CC
:101ED000010005E0400840003862386A20F0040044
:101EE000386241F28938E06860B100F03BF9814620
:101EF000396A880713D400F035F9A0EB0900404592
:101F0000F6D339E700F02EF98146396A880706D5FD
:101F100000F028F9A0EB09004045F6D32CE71DB1ED
:101F2000F86920F08050F861E06900284CD07968A9
:101F300001F00C01082938D002282AD100F047F816
:101F400005463968880105D500F00CF9401B0228C8
:101F5000F7D911E7206AB0F5803F05D17968A0680C
:101F600021F40031014379607A68206A616A22F4C1
:101F7000741202430A437A60012000F029F80446F3
:101F80003868810120D400F0EDF8001B0228F7D951
:101F9000F2E600F01CF804463868810114D500F020
:101FA000E1F8001B0228F7D9E6E601280AD0786894
:101FB000226A00F48031914202BF00F47010616A1D
:101FC000884201D0012000E00020BDE8F28300201B
:101FD000306600F0C7B82DE9F041040088465FD0B4
:101FE000574E306800F00700404509D23168C908F3
:101FF00048EAC1013160306800F0070040454FD128
:102000002168484D880712D5490703D5686840F410
:10201000E06068602078010703D5686840F460508C
:1020200068606968A06821F0F00101436960217867
:10203000C80726D56068012802D129688A0303E011
:10204000022803D129688A0103D429E02B68990763
:1020500026D56A68920840EA8200686000F082F83B
:1020600007466868616800F00C00B0EB810F08D08B
:1020700000F078F8C01B41F289318842F1D3032087
:1020800032E0316801F0070188450BD23068C008A2
:1020900048EAC0003060316801F00701414501D0D5
:1020A000012021E02178480705D56968E06821F41E
:1020B000E0610143696021780A0706D568682169F3
:1020C00020F4605040EAC100686000F00FF86A68D0
:1020D0001C49C2F303128B5C1349D84008601448B2
:1020E000006800F045F80020BDE8F08116490F486F
:1020F0000A6802F00C03082B00D0704710B500BF2F
:1021000013A4C2F38343D203E35C08D509685843A0
:1021100013A3C1F34041595CB0FBF1F010BD0B4873
:10212000584310BD001002400C00002000127A003D
:10213000080000200000424280044242007000403B
:1021400000200240102800080410024000093D0051
:1021500002030405060708090A0B0C0D0E0F1010E8
:102160000102000001484068704700BF00000020E5
:1021700038B50D4D0D4A297804464FF47A7310682E
:10218000B3FBF1F1B0FBF1F000F048F850B9102CBE
:1021900008D2002221464FF0FF3000F020F8AC605A
:1021A000002032BD012032BD000000200C000020C4
:1021B0000A01010002D4224B5A547047214801F011
:1021C0000F01014401F8042C70471F490A6860F3AD
:1021D0000A2240F2FA5060F31F420A60704770B55D
:1021E000194C2368C3F302230124C3F10705052D0D
:1021F0002FBF0F26C3F1070604FA06F6761E1D1D33
:10220000072D34BF0023DB1E3140994004FA03F34D
:10221000BDE870405B1E1A401143C9E7401EB0F193
:10222000807F01D30120704708494860F0220848A8
:10223000027000238B6007220A60002070470000B4
:1022400000E400E018ED00E00CED00E010E000E03C
:1022500023ED00E02DE9F84F00270024684BDFF85C
:10226000A481DFF8A491DFF8A4B14FF00F0A024671
:1022700010E0D3F800E000EA0E00186009E0C3F8AF
:1022800004C04D68ED03F4D518684EEA000EC3F89B
:1022900000E07F1C0D6835FA07F000F0AB800120EC
:1022A00000FA07FC0CEA050EE645F2D14D683DB395
:1022B000012D1AD0022D1DD0032D2ED0112D16D098
:1022C000122D1AD0524885421CBF5248854217D061
:1022D000514885421CBF5148854211D05048854223
:1022E0001CBF504885420BD018E0CC6816E0CC6883
:1022F000241D13E0CC68083410E0CC680C340DE0E9
:10230000886808B9042409E0012819BF0824C2F824
:1023100014C00824C2F810C000E00024BEF5807F7D
:1023200003D210464FEA870C04E0A7F10805101D00
:102330004FEA850C06680AFA0CF5AE4304FA0CF570
:1023400045EA060CC0F800C04868C000A1D5D9F81D
:1023500000C04CF0010CC9F800C0BD00D9F8000065
:1023600000F00100009005F00C0C0098B80858F837
:1023700020600AFA0CF5AE435A4508BF00250ED07E
:10238000294DAA4208BF012509D0284DAA4208BFFD
:10239000022504D0264DAA420CBF0325042505FAC8
:1023A0000CF545EA060C48F820C06FEA0E004D68AF
:1023B000ED0204D59D684EEA05059D6005E0D3F861
:1023C00008C000EA0C0CC3F808C04D68D3F80CC074
:1023D000AD024CBF4EEA0C0C00EA0C0CC3F80CC06A
:1023E0004D68D3F804C0AD034CBF4EEA0C0C00EAB4
:1023F0000C0C44E7BDE8F18F02B909040161704794
:10240000000401400800014018100240000801408B
:102410000000111000001210000021100000221016
:102420000000311000003210000C0140001001408B
:102430000014014030B585B000F0AAF800F06EF845
:1024400010210022684600F0B5F83048304D02688F
:10245000304C42F020020260016801F0200104913A
:10246000049B026842F004020260016801F004016A
:102470000491049A016841F008010160002200689B
:1024800000F008000490FF2104982846FFF7B4FFED
:102490000022E0212046FFF7AFFF01210191FF203C
:1024A0000221009000220391029269462846FFF71C
:1024B000D1FE0121E022019100920221002203912C
:1024C000029269462046FFF7C5FE00F0ADF800F025
:1024D000E2F80021002000F0C3F800BF0FF29400E2
:1024E00028A50D4C00F0AEF84FF4FA6000F0E2F8C9
:1024F00022682946201D00F0F1F80021002000F09C
:10250000AFF8201D00F09EF8F2E70000181002401E
:1025100000080140000C01404800002000B58FB0C9
:102520002821002205A800F045F814210022684661
:1025300000F040F8012005904FF48032002106920F
:102540000C9105A8FFF7C6FB08B100F010F80F20AA
:1025500000900122002101920291039104916846AA
:10256000FFF739FD08B100F002F80FB000BD72B6F8
:10257000FEE7000048656C6C6F20576F726C64203A
:102580002100000056616C7565203D202564000027
:1025900080B50748016841F0100101600320FFF792
:1025A00014FE0F20FFF7E4FD00F0B8F8002002BD94
:1025B000002002404018491C1CBFB1F1010100F885
:1025C000012DF9D17047000070B500F06EF8144C81
:1025D000002204E070B500F068F8114C01222021BF
:1025E0002046FFF709FF002240212046FFF704FFA5
:1025F0000C4D0022FF212846FFF7FEFE0122314646
:102600002846FFF7F9FE012280212046FFF7F4FE5D
:102610002046BDE8704000228021FFF7EDBE00009B
:10262000000C01400008014080B50A2000F042F88B
:102630003820FFF7C9FF0620FFF7C6FFBDE80240BC
:102640000C20C1E710B5044600F030F803E014F8A0
:10265000010BFFF7BFFF20780028F8D110BD000064
:1026600038B505460C4600F021F8032C12D8DFE8F7
:1026700004F00205080BA5F1800007E0A5F1400079
:1026800004E0A5F16C0001E0A5F12C00BDE83240AA
:10269000C0B299E731BD80B500F008F80120FFF71E
:1026A00093FFBDE8024002208EE70646012000F0BD
:1026B00001B8000038B50546FFF754FD15F1010FCC
:1026C000044602D0044908784519FFF74BFD001B6A
:1026D000A842FAD331BD00BF000000200CB430B5D1
:1026E00083B00A4606A9029104460025019400958C
:1026F00002AB01A9084878441E30FDF7FAFC0199A5
:102700000D7000284EBF04460198041B204603B0FC
:1027100030BC5DF80CFB00BFEFE8FFFF0D4881B057
:10272000026842F001020260016801F001010091BB
:10273000009A4168084A41F0805141600221406896
:1027400000F0805000900098106861F31A601060EB
:1027500001B07047181002400400014010B5034A50
:102760007A440832024C7C44A41D03E01C000000A3
:102770002800000004E01168101D1144884702463B
:10278000A242F8D110BD00002FE8FFFF5001000069
:10279000760000000000002000F00DF8002801D0B5
:1027A000FFF7DCFFAFF300800020AFF30080FFF7FE
:1027B00041FE00F002F80120704700F001B800006F
:1027C00007463846FFF77CFAFBE70000054801465C
:1027D00003B4684680F30988AFF30080AFF300804C
:1027E000FFF7DAFFA5EDF5FEFEE7FEE7FEE7FEE701
:1027F000FEE770477047704700F000B8024A516822
:1028000010784118516070470000002070470000A8
:102810000000000000000000010203040607080990
:1028200001488047014800470D280008CD270008CF
:10283000FFF7FEBFFFF7FEBFFFF7FEBFFFF7FEBFCC
:10284000FFF7FEBFFFF7FEBFFFF7FEBFFFF7FEBFBC
:10285000FFF7FEBFFFF7FEBFFFF7FEBFFFF7FEBFAC
:10286000FFF7FEBFFFF7FEBFFFF7FEBFFFF7FEBF9C
:10287000FFF7FEBFFFF7FEBFFFF7FEBFFFF7FEBF8C
:10288000FFF7FEBFFFF7FEBFFFF7FEBFFFF7FEBF7C
:10289000FFF7FEBFFFF7FEBFFFF7FEBFFFF7FEBF6C
:1028A000FFF7FEBFFFF7FEBFFFF7FEBFFFF7FEBF5C
:1028B000FFF7FEBFFFF7FEBFFFF7FEBFFFF7FEBF4C
:1028C000FFF7FEBFFFF7FEBFFFF7FEBFFFF7FEBF3C
:1028D000FFF7FEBFFFF7FEBFFFF7FEBF0001F900E5
:1028E0000010FC001E24F400861100088611000868
:1028F000861100088611000886110008861100085C
:1029000086110008F8FF0B86100008861100088663
:07291000110008FAFFE200CC
:04000005080027CDFB
:00000001FF
