:020000040800F2
:100000008806002091010008990100089B01000862
:100010009D0100089F010008A101000800000000E8
:10002000000000000000000000000000A301000824
:10003000A501000800000000A70100081D08000835
:10004000AB010008AB010008AB010008AB010008E0
:10005000AB010008AB010008AB010008AB010008D0
:10006000AB010008AB010008AB010008AB010008C0
:10007000AB010008AB010008AB010008AB010008B0
:10008000AB010008AB010008AB010008AB010008A0
:10009000AB010008AB010008AB010008AB01000890
:1000A000AB010008AB010008AB010008AB01000880
:1000B000AB0100081109000849090008AB0100085C
:1000C000AB010008AB010008AB010008AB01000860
:1000D000AB010008AB010008AB010008AB01000850
:1000E000AB010008AB010008AB01000800F002F80A
:1000F00000F03FF80AA090E8000C82448344AAF183
:100100000107DA4501D100F034F8AFF2090EBAE880
:100110000F0013F0010F18BFFB1A43F0010318473B
:10012000840B0000A40B0000103A24BF78C878C1EB
:10013000FAD8520724BF30C830C144BF04680C60ED
:10014000704700000023002400250026103A28BF35
:1001500078C1FBD8520728BF30C148BF0B60704739
:10016000642900F07D80002070471FB51FBD10B5C9
:1001700010BD00F02AF91146FFF7F7FF00F040FC30
:1001800000F048F903B4FFF7F2FF03BC00F050F9A8
:100190000948804709480047FEE7FEE7FEE7FEE71B
:1001A000FEE7FEE7FEE7FEE7FEE7FEE70448054957
:1001B000054A064B70470000B1080008ED00000832
:1001C0008800002088060020880200208802002085
:1001D0000FB41CB5074B06AA7B44694600900598EE
:1001E00000F0DBF80020694600F0EAF81CBC5DF87E
:1001F00014FB0000E50100002DE9F0410E46044625
:10020000002020622046E168884730B3252805D0C9
:10021000D4E901219047206A401CF2E7E1682046BA
:1002200000278847050018D0A5F14100192802D8F9
:1002300020354FF400673246294620462760FFF7F5
:100240008FFF40B1012804D0F61D26F007060836BE
:10025000D8E7361DD6E72846DAE7206ABDE8F08100
:100260002DE9F0410646002410687529314616A58F
:1002700010D0AFF30080002802DA404213A507E057
:1002800031688A0701D512A502E0490704D511A5F6
:10029000012401E0AFF3008000210A2206F12407C7
:1002A00009E0B0FBF2FCB0FBF2F302FB1C003030C3
:1002B00078541846491C0028F3D123462A46304674
:1002C000BDE8F04100F00BB8000000002D00000078
:1002D0002B000000200000007047704770472DE998
:1002E000F0470D4699469246044600F124080168FD
:1002F000880604D5E06921F01001216000E00120AA
:10030000A84201DD471B00E00027A1697A1902EB32
:100310000900081AA0612078C00602D42046AFF375
:100320000080002608E0D4E901211AF80600904771
:10033000206A401C761C20624E45F4DB2078C00603
:100340000AD52046AFF3008006E0D4E90121302031
:100350009047206A401C2062381EA7F10107F4DC98
:1003600007E0D4E9012118F805009047206A401CF5
:100370002062281EA5F10105F3DC2046AFF30080C2
:100380002078000602D50220BDE8F0870120FBE7B7
:1003900001694A1C02610878704700B58FB0CDE949
:1003A00001310021059105497944CDE90310114639
:1003B0006846FFF721FF0FB000BD0000E5FFFFFF1B
:1003C0000A6802F8010B0A607047754600F02CF8C5
:1003D000AE4605006946534620F00700854618B032
:1003E00020B5FFF7E3FEBDE820404FF000064FF0D8
:1003F00000074FF000084FF0000B21F00701AC465A
:10040000ACE8C009ACE8C009ACE8C009ACE8C00978
:100410008D46704710B50446AFF300802046BDE816
:100420001040FFF7AFBE00000048704724000020D6
:1004300001491820ABBEFEE726000200704700000D
:100440004C48806940F004004A4988610846806948
:1004500040F0080088610846806940F0010088612A
:100460004548006840F44030434908600846006849
:1004700020F4802008600846006840F440100860BE
:100480000846006820F4800008600846006840F0D4
:10049000407008600846006820F0806008600846E8
:1004A000006840F0405008600846006820F0804036
:1004B00008603248006840F44070304908600846DF
:1004C000006820F4806008600846006840F44050EE
:1004D00008600846006820F480400860081F006833
:1004E00020F08070091F08600846006840F08060B6
:1004F00008600846006820F0006008600846006850
:1005000020F4801008600846006820F4800008602D
:100510000846006840F4000008600846006820F4BF
:10052000803008600846006820F480200860084693
:10053000006840F40020086010480830006840F06F
:1005400010000E49083108600846006840F020009D
:1005500008600948006840F0030007490860084641
:10056000006820F0040008600846006840F00800B9
:10057000086070470010024000080140040C014070
:1005800010B5012000F002F810BD000010B50446BF
:1005900020090001174908601748006820F48060AE
:1005A000154908600846006840F4006008600120B2
:1005B00000F0E6F91048006820F400600E49086079
:1005C000012000F0DDF92007000E0A4908600A4802
:1005D000006840F4006008490860012000F0D0F98C
:1005E0000548006820F4006003490860012000F01D
:1005F000C7F910BD0C0801400C0C014010B50446B1
:1006000020090001174908601748006840F480601D
:10061000154908600846006840F400600860012041
:1006200000F0AEF91048006820F400600E49086040
:10063000012000F0A5F92007000E0A4908600A48C9
:10064000006840F4006008490860012000F098F953
:100650000548006820F4006003490860012000F0AC
:100660008FF910BD0C0801400C0C014038B5044650
:100670000D4607A000680090691E1DF80110214476
:10068000491EC8B2FFF782FF012000F079F938BD9A
:1006900080C094D410B50F48006820F400600D4964
:1006A0000860012000F06CF93320FFF76FFF322063
:1006B000FFF76CFF2820FFF769FF0C20FFF766FFAC
:1006C0000620FFF763FF0120FFF760FF0220FFF71E
:1006D0005DFF10BD0C0C014070B50446002504E020
:1006E000605DFFF78BFF681CC5B2605D0028F7D125
:1006F00070BD002809DB00F01F0201219140420972
:10070000920002F1E022C2F80011704710B50028F3
:1007100004DB0A07130E054A135406E00A07140EF9
:10072000034A00F00F031B1FD45410BD00E400E087
:1007300018ED00E010B500F001F810BD0CB5002078
:10074000019000903348006840F4803031490860DF
:1007500000BF3048006800F4003000900198401C51
:100760000190009818B90198B0F5A06FF1D129480F
:10077000006800F4003010B10120009001E000207A
:1007800000900098012843D12348006840F01000F1
:10079000214908600846006820F007000860084604
:1007A000006840F0020008601A4840681949486033
:1007B0000846406848600846406840F480604860E9
:1007C0000846406820F47C1048600846406840F4C1
:1007D000E81048600846006840F08070086000BF7C
:1007E0000C48006800F000700028F9D00948406803
:1007F00020F00300074948600846406840F00200C6
:10080000486000BF0348406800F00C000828F9D198
:100810000CBD0000001002400020024000B500F0B6
:10082000A3F800BD2048006840F002001E4908609F
:100830001E48006840F480301C49086000BF1B4817
:10084000006800F400300028F9D01848406820F40F
:100850000030164948600846406840F480304860DF
:100860000846406840F4E01048600846006840F0E0
:100870008070086000BF0D48006800F0007000281C
:10088000F9D00A48406840F480600849486008464A
:10089000406840F00200486000BF0448406800F033
:1008A00008000828F9D170470020024000100240DB
:1008B00010B51348006840F001001149086008466F
:1008C0004068104908400E494860084600680E49D3
:1008D00008400B4908600846006820F48020086042
:1008E0000846406820F4FE0048604FF41F0088600E
:1008F000FFF720FF4FF000600449086010BD0000C2
:10090000001002400000FFF8FFFFF6FE08ED00E0D7
:100910000A48008800F0010078B1094800680A21FF
:1009200090FBF1F007490860002005490860034882
:10093000008820F001000149088070471004004041
:10094000000000200400002005480068401C044905
:1009500008600448008820F00200024908807047BF
:1009600000000020100800400448006820B103483F
:100970000068401E01490860704700000C0000201C
:1009800001B504490098086000BF024800680028CB
:10099000FBD108BD0C00002030B5164800684FF4AC
:1009A0007A72B0FBF2F1481EB0F1807F01D30120D2
:1009B0001BE0481E4FF0E022506150170F22002824
:1009C00004DB13071C0E0C4B1C5406E013071D0E12
:1009D0000A4B00F00F04241F1D5500BF00204FF0EC
:1009E000E022906107201061002008B100BFFEE7FF
:1009F00030BD00001000002000E400E018ED00E031
:100A000086B0FFF70FFFFFF71BFDFFF7C5FF8F480D
:100A1000C06940F001008D49C8610846C06940F0D6
:100A20000200C8610846C06940F00400C8610B209C
:100A300089040885864800888885854800888886D6
:100A40000846008B40F0300008830846008C40F0D8
:100A5000010008840846008C20F00200088427204A
:100A60007C4908804FF6FF70091D088079481038CE
:100A7000008840F001007749103908800846008856
:100A800020F00200088073480838008840F0010018
:100A90007049083908806F481C38008840F002000F
:100AA0006C491C3908806B481038008820F004001D
:100AB0006849103908800846008820F0080008803E
:100AC00064480838008820F002006249083908802C
:100AD00044F61F606049088044F25060091D088098
:100AE0005D481C38008840F001005B491C390880D3
:100AF00000200246594B19684FF6FF031940584B26
:100B00000B4343EA0221554B196000BF03211D200E
:100B1000FFF7FCFD04211E20FFF7F8FD1D20FFF765
:100B2000E8FD1E20FFF7E5FD00204A49091F088067
:100B30004949091F088009078884474828380088E0
:100B400040F001004449283908804248283800888C
:100B500040F001003F4928390880C804008840F06F
:100B60000100C9040880FFF795FDFFF709FD012189
:100B70000846FFF77BFD3BA0FFF7AEFD02210120F9
:100B8000FFF774FD3BA0FFF7A7FD4FF4FA60FFF7F6
:100B9000F7FEFFF7F5FC58E03AA101A8FFF718FBB4
:100BA00001210846FFF762FD01A8FFF795FD3948CE
:100BB000026839A101A8FFF70BFB02210120FFF712
:100BC00055FD01A8FFF788FD3548006800F02000BA
:100BD000E0B900BF3248006800F020000028F9D0DA
:100BE0001B480068401C1A490860084600684FF618
:100BF000FE71884202DD08461549086014480088E5
:100C00004FF0804188851248008888862448006813
:100C100000F01000C8B900BF2148006800F01000C3
:100C20000028F9D00A480068401E094908600846B3
:100C30000068012801DA01200860054800884FF0AB
:100C400080418885024800888886A5E70010024018
:100C50000800002028080040280400400CED00E0B7
:100C60000000FA05416D6972686F7365696E2E4206
:100C7000000000004D6963726F70726F636573737B
:100C80006F7200004672657175656E6379204973F5
:100C90003A20000004000020256420487A2000004B
:100CA000080C0140C40C00080000002024000000D3
:100CB00028010008E80C0008240000206406000059
:100CC0004401000800000000000000000F000000C8
:100CD0000000000000A24A04000000000000000024
:080CE0000102030406070809E4
:04000005080000ED02
:00000001FF
